{
  "contractName": "ShadowZap",
  "abi": [
    {
      "inputs": [
        {
          "internalType": "address",
          "name": "_WCOREAddress",
          "type": "address"
        },
        {
          "internalType": "address",
          "name": "_ShadowRouter",
          "type": "address"
        },
        {
          "internalType": "uint256",
          "name": "_maxZapReverseRatio",
          "type": "uint256"
        }
      ],
      "stateMutability": "nonpayable",
      "type": "constructor"
    },
    {
      "anonymous": false,
      "inputs": [
        {
          "indexed": true,
          "internalType": "address",
          "name": "tokenAddress",
          "type": "address"
        },
        {
          "indexed": false,
          "internalType": "uint256",
          "name": "amountTokens",
          "type": "uint256"
        }
      ],
      "name": "AdminTokenRecovery",
      "type": "event"
    },
    {
      "anonymous": false,
      "inputs": [
        {
          "indexed": false,
          "internalType": "uint256",
          "name": "maxZapReverseRatio",
          "type": "uint256"
        }
      ],
      "name": "NewMaxZapReverseRatio",
      "type": "event"
    },
    {
      "anonymous": false,
      "inputs": [
        {
          "indexed": true,
          "internalType": "address",
          "name": "previousOwner",
          "type": "address"
        },
        {
          "indexed": true,
          "internalType": "address",
          "name": "newOwner",
          "type": "address"
        }
      ],
      "name": "OwnershipTransferred",
      "type": "event"
    },
    {
      "anonymous": false,
      "inputs": [
        {
          "indexed": true,
          "internalType": "address",
          "name": "tokenToZap",
          "type": "address"
        },
        {
          "indexed": true,
          "internalType": "address",
          "name": "lpToken",
          "type": "address"
        },
        {
          "indexed": false,
          "internalType": "uint256",
          "name": "tokenAmountIn",
          "type": "uint256"
        },
        {
          "indexed": false,
          "internalType": "uint256",
          "name": "lpTokenAmountReceived",
          "type": "uint256"
        },
        {
          "indexed": true,
          "internalType": "address",
          "name": "user",
          "type": "address"
        }
      ],
      "name": "ZapIn",
      "type": "event"
    },
    {
      "anonymous": false,
      "inputs": [
        {
          "indexed": true,
          "internalType": "address",
          "name": "token0ToZap",
          "type": "address"
        },
        {
          "indexed": true,
          "internalType": "address",
          "name": "token1ToZap",
          "type": "address"
        },
        {
          "indexed": false,
          "internalType": "address",
          "name": "lpToken",
          "type": "address"
        },
        {
          "indexed": false,
          "internalType": "uint256",
          "name": "token0AmountIn",
          "type": "uint256"
        },
        {
          "indexed": false,
          "internalType": "uint256",
          "name": "token1AmountIn",
          "type": "uint256"
        },
        {
          "indexed": false,
          "internalType": "uint256",
          "name": "lpTokenAmountReceived",
          "type": "uint256"
        },
        {
          "indexed": true,
          "internalType": "address",
          "name": "user",
          "type": "address"
        }
      ],
      "name": "ZapInRebalancing",
      "type": "event"
    },
    {
      "anonymous": false,
      "inputs": [
        {
          "indexed": true,
          "internalType": "address",
          "name": "lpToken",
          "type": "address"
        },
        {
          "indexed": true,
          "internalType": "address",
          "name": "tokenToReceive",
          "type": "address"
        },
        {
          "indexed": false,
          "internalType": "uint256",
          "name": "lpTokenAmount",
          "type": "uint256"
        },
        {
          "indexed": false,
          "internalType": "uint256",
          "name": "tokenAmountReceived",
          "type": "uint256"
        },
        {
          "indexed": true,
          "internalType": "address",
          "name": "user",
          "type": "address"
        }
      ],
      "name": "ZapOut",
      "type": "event"
    },
    {
      "inputs": [],
      "name": "MAX_INT",
      "outputs": [
        {
          "internalType": "uint256",
          "name": "",
          "type": "uint256"
        }
      ],
      "stateMutability": "view",
      "type": "function",
      "constant": true
    },
    {
      "inputs": [],
      "name": "MINIMUM_AMOUNT",
      "outputs": [
        {
          "internalType": "uint256",
          "name": "",
          "type": "uint256"
        }
      ],
      "stateMutability": "view",
      "type": "function",
      "constant": true
    },
    {
      "inputs": [],
      "name": "ShadowRouter",
      "outputs": [
        {
          "internalType": "contract IShadowRouter02",
          "name": "",
          "type": "address"
        }
      ],
      "stateMutability": "view",
      "type": "function",
      "constant": true
    },
    {
      "inputs": [],
      "name": "WCORE",
      "outputs": [
        {
          "internalType": "contract IWETH",
          "name": "",
          "type": "address"
        }
      ],
      "stateMutability": "view",
      "type": "function",
      "constant": true
    },
    {
      "inputs": [],
      "name": "maxZapReverseRatio",
      "outputs": [
        {
          "internalType": "uint256",
          "name": "",
          "type": "uint256"
        }
      ],
      "stateMutability": "view",
      "type": "function",
      "constant": true
    },
    {
      "inputs": [],
      "name": "owner",
      "outputs": [
        {
          "internalType": "address",
          "name": "",
          "type": "address"
        }
      ],
      "stateMutability": "view",
      "type": "function",
      "constant": true
    },
    {
      "inputs": [],
      "name": "renounceOwnership",
      "outputs": [],
      "stateMutability": "nonpayable",
      "type": "function"
    },
    {
      "inputs": [
        {
          "internalType": "address",
          "name": "newOwner",
          "type": "address"
        }
      ],
      "name": "transferOwnership",
      "outputs": [],
      "stateMutability": "nonpayable",
      "type": "function"
    },
    {
      "stateMutability": "payable",
      "type": "receive",
      "payable": true
    },
    {
      "inputs": [
        {
          "internalType": "address",
          "name": "_lpToken",
          "type": "address"
        },
        {
          "internalType": "uint256",
          "name": "_tokenAmountOutMin",
          "type": "uint256"
        }
      ],
      "name": "zapInBNB",
      "outputs": [],
      "stateMutability": "payable",
      "type": "function",
      "payable": true
    },
    {
      "inputs": [
        {
          "internalType": "address",
          "name": "_tokenToZap",
          "type": "address"
        },
        {
          "internalType": "uint256",
          "name": "_tokenAmountIn",
          "type": "uint256"
        },
        {
          "internalType": "address",
          "name": "_lpToken",
          "type": "address"
        },
        {
          "internalType": "uint256",
          "name": "_tokenAmountOutMin",
          "type": "uint256"
        }
      ],
      "name": "zapInToken",
      "outputs": [],
      "stateMutability": "nonpayable",
      "type": "function"
    },
    {
      "inputs": [
        {
          "internalType": "address",
          "name": "_token0ToZap",
          "type": "address"
        },
        {
          "internalType": "address",
          "name": "_token1ToZap",
          "type": "address"
        },
        {
          "internalType": "uint256",
          "name": "_token0AmountIn",
          "type": "uint256"
        },
        {
          "internalType": "uint256",
          "name": "_token1AmountIn",
          "type": "uint256"
        },
        {
          "internalType": "address",
          "name": "_lpToken",
          "type": "address"
        },
        {
          "internalType": "uint256",
          "name": "_tokenAmountInMax",
          "type": "uint256"
        },
        {
          "internalType": "uint256",
          "name": "_tokenAmountOutMin",
          "type": "uint256"
        },
        {
          "internalType": "bool",
          "name": "_isToken0Sold",
          "type": "bool"
        }
      ],
      "name": "zapInTokenRebalancing",
      "outputs": [],
      "stateMutability": "nonpayable",
      "type": "function"
    },
    {
      "inputs": [
        {
          "internalType": "address",
          "name": "_token1ToZap",
          "type": "address"
        },
        {
          "internalType": "uint256",
          "name": "_token1AmountIn",
          "type": "uint256"
        },
        {
          "internalType": "address",
          "name": "_lpToken",
          "type": "address"
        },
        {
          "internalType": "uint256",
          "name": "_tokenAmountInMax",
          "type": "uint256"
        },
        {
          "internalType": "uint256",
          "name": "_tokenAmountOutMin",
          "type": "uint256"
        },
        {
          "internalType": "bool",
          "name": "_isToken0Sold",
          "type": "bool"
        }
      ],
      "name": "zapInBNBRebalancing",
      "outputs": [],
      "stateMutability": "payable",
      "type": "function",
      "payable": true
    },
    {
      "inputs": [
        {
          "internalType": "address",
          "name": "_lpToken",
          "type": "address"
        },
        {
          "internalType": "uint256",
          "name": "_lpTokenAmount",
          "type": "uint256"
        },
        {
          "internalType": "uint256",
          "name": "_tokenAmountOutMin",
          "type": "uint256"
        },
        {
          "internalType": "uint256",
          "name": "_totalTokenAmountOutMin",
          "type": "uint256"
        }
      ],
      "name": "zapOutBNB",
      "outputs": [],
      "stateMutability": "nonpayable",
      "type": "function"
    },
    {
      "inputs": [
        {
          "internalType": "address",
          "name": "_lpToken",
          "type": "address"
        },
        {
          "internalType": "address",
          "name": "_tokenToReceive",
          "type": "address"
        },
        {
          "internalType": "uint256",
          "name": "_lpTokenAmount",
          "type": "uint256"
        },
        {
          "internalType": "uint256",
          "name": "_tokenAmountOutMin",
          "type": "uint256"
        },
        {
          "internalType": "uint256",
          "name": "_totalTokenAmountOutMin",
          "type": "uint256"
        }
      ],
      "name": "zapOutToken",
      "outputs": [],
      "stateMutability": "nonpayable",
      "type": "function"
    },
    {
      "inputs": [
        {
          "internalType": "uint256",
          "name": "_maxZapInverseRatio",
          "type": "uint256"
        }
      ],
      "name": "updateMaxZapInverseRatio",
      "outputs": [],
      "stateMutability": "nonpayable",
      "type": "function"
    },
    {
      "inputs": [
        {
          "internalType": "address",
          "name": "_tokenAddress",
          "type": "address"
        },
        {
          "internalType": "uint256",
          "name": "_tokenAmount",
          "type": "uint256"
        }
      ],
      "name": "recoverWrongTokens",
      "outputs": [],
      "stateMutability": "nonpayable",
      "type": "function"
    },
    {
      "inputs": [
        {
          "internalType": "address",
          "name": "_tokenToZap",
          "type": "address"
        },
        {
          "internalType": "uint256",
          "name": "_tokenAmountIn",
          "type": "uint256"
        },
        {
          "internalType": "address",
          "name": "_lpToken",
          "type": "address"
        }
      ],
      "name": "estimateZapInSwap",
      "outputs": [
        {
          "internalType": "uint256",
          "name": "swapAmountIn",
          "type": "uint256"
        },
        {
          "internalType": "uint256",
          "name": "swapAmountOut",
          "type": "uint256"
        },
        {
          "internalType": "address",
          "name": "swapTokenOut",
          "type": "address"
        }
      ],
      "stateMutability": "view",
      "type": "function",
      "constant": true
    },
    {
      "inputs": [
        {
          "internalType": "address",
          "name": "_token0ToZap",
          "type": "address"
        },
        {
          "internalType": "address",
          "name": "_token1ToZap",
          "type": "address"
        },
        {
          "internalType": "uint256",
          "name": "_token0AmountIn",
          "type": "uint256"
        },
        {
          "internalType": "uint256",
          "name": "_token1AmountIn",
          "type": "uint256"
        },
        {
          "internalType": "address",
          "name": "_lpToken",
          "type": "address"
        }
      ],
      "name": "estimateZapInRebalancingSwap",
      "outputs": [
        {
          "internalType": "uint256",
          "name": "swapAmountIn",
          "type": "uint256"
        },
        {
          "internalType": "uint256",
          "name": "swapAmountOut",
          "type": "uint256"
        },
        {
          "internalType": "bool",
          "name": "sellToken0",
          "type": "bool"
        }
      ],
      "stateMutability": "view",
      "type": "function",
      "constant": true
    },
    {
      "inputs": [
        {
          "internalType": "address",
          "name": "_lpToken",
          "type": "address"
        },
        {
          "internalType": "uint256",
          "name": "_lpTokenAmount",
          "type": "uint256"
        },
        {
          "internalType": "address",
          "name": "_tokenToReceive",
          "type": "address"
        }
      ],
      "name": "estimateZapOutSwap",
      "outputs": [
        {
          "internalType": "uint256",
          "name": "swapAmountIn",
          "type": "uint256"
        },
        {
          "internalType": "uint256",
          "name": "swapAmountOut",
          "type": "uint256"
        },
        {
          "internalType": "address",
          "name": "swapTokenOut",
          "type": "address"
        }
      ],
      "stateMutability": "view",
      "type": "function",
      "constant": true
    }
  ],
  "bytecode": "0x60806040523480156200001157600080fd5b5060405162005a4e38038062005a4e833981016040819052620000349162000102565b6200003f3362000095565b60018055600680546001600160a01b039485166001600160a01b03199182168117909255600280548216909217909155600580549390941692811683179093556003805490931690911790915560045562000142565b600080546001600160a01b038381166001600160a01b0319831681178455604051919092169283917f8be0079c531659141344cd1fd0a4f28419497f9722a3daafe3b4186f6b6457e09190a35050565b80516001600160a01b0381168114620000fd57600080fd5b919050565b60008060006060848603121562000117578283fd5b6200012284620000e5565b92506200013260208501620000e5565b9150604084015190509250925092565b6158fc80620001526000396000f3fe6080604052600436106101485760003560e01c80635ce62a18116100c05780638da5cb5b11610074578063e3ceb16b11610059578063e3ceb16b14610435578063ead8141814610448578063f2fde38b1461046857600080fd5b80638da5cb5b146103ea578063b421e91e1461041557600080fd5b806382c98b2d116100a557806382c98b2d14610360578063857e49101461039d57806387e3f21c146103ca57600080fd5b80635ce62a18146102f9578063715018a61461034b57600080fd5b80632f883da4116101175780633f138d4b116100fc5780633f138d4b146102a657806350c7959d146102c65780635cb88a3f146102e657600080fd5b80632f883da4146102355780633b0a48bb1461028657600080fd5b8063098d3228146101a25780630f4e4e63146101e9578063257d9bb8146101ff5780632b4652eb1461021557600080fd5b3661019d5760065473ffffffffffffffffffffffffffffffffffffffff16331461019b577f4e487b7100000000000000000000000000000000000000000000000000000000600052600160045260246000fd5b005b600080fd5b3480156101ae57600080fd5b506101d67fffffffffffffffffffffffffffffffffffffffffffffffffffffffffffffffff81565b6040519081526020015b60405180910390f35b3480156101f557600080fd5b506101d660045481565b34801561020b57600080fd5b506101d66103e881565b34801561022157600080fd5b5061019b6102303660046155f0565b610488565b34801561024157600080fd5b5061025561025036600461538b565b6104cb565b60408051938452602084019290925273ffffffffffffffffffffffffffffffffffffffff16908201526060016101e0565b34801561029257600080fd5b506102556102a136600461538b565b610a2c565b3480156102b257600080fd5b5061019b6102c1366004615360565b610e6d565b3480156102d257600080fd5b5061019b6102e1366004615310565b610eea565b61019b6102f4366004615360565b611014565b34801561030557600080fd5b506003546103269073ffffffffffffffffffffffffffffffffffffffff1681565b60405173ffffffffffffffffffffffffffffffffffffffff90911681526020016101e0565b34801561035757600080fd5b5061019b611197565b34801561036c57600080fd5b5061038061037b36600461522e565b6111ab565b6040805193845260208401929092521515908201526060016101e0565b3480156103a957600080fd5b506002546103269073ffffffffffffffffffffffffffffffffffffffff1681565b3480156103d657600080fd5b5061019b6103e53660046153cc565b6119dd565b3480156103f657600080fd5b5060005473ffffffffffffffffffffffffffffffffffffffff16610326565b34801561042157600080fd5b5061019b61043036600461528c565b611b13565b61019b610443366004615413565b611c55565b34801561045457600080fd5b5061019b610463366004615479565b611e14565b34801561047457600080fd5b5061019b6104833660046151f6565b612076565b61049061212d565b60048190556040518181527fc7e29c44236bfea8bef0d337e382f5f27ec5bc4d425d82437f115f9b59d2ba799060200160405180910390a150565b6000806000808673ffffffffffffffffffffffffffffffffffffffff16630dfe16816040518163ffffffff1660e01b815260040160206040518083038186803b15801561051757600080fd5b505afa15801561052b573d6000803e3d6000fd5b505050506040513d601f19601f8201168201806040525081019061054f9190615212565b905060008773ffffffffffffffffffffffffffffffffffffffff1663d21220a76040518163ffffffff1660e01b815260040160206040518083038186803b15801561059957600080fd5b505afa1580156105ad573d6000803e3d6000fd5b505050506040513d601f19601f820116820180604052508101906105d19190615212565b90508173ffffffffffffffffffffffffffffffffffffffff168673ffffffffffffffffffffffffffffffffffffffff16148061063857508073ffffffffffffffffffffffffffffffffffffffff168673ffffffffffffffffffffffffffffffffffffffff16145b6106a3576040517f08c379a000000000000000000000000000000000000000000000000000000000815260206004820152601460248201527f5a61703a20546f6b656e206e6f7420696e204c5000000000000000000000000060448201526064015b60405180910390fd5b6000808973ffffffffffffffffffffffffffffffffffffffff16630902f1ac6040518163ffffffff1660e01b815260040160606040518083038186803b1580156106ec57600080fd5b505afa158015610700573d6000803e3d6000fd5b505050506040513d601f19601f8201168201806040525081019061072491906155ad565b506dffffffffffffffffffffffffffff1691506dffffffffffffffffffffffffffff1691508773ffffffffffffffffffffffffffffffffffffffff168373ffffffffffffffffffffffffffffffffffffffff1614156108d05760008a73ffffffffffffffffffffffffffffffffffffffff166318160ddd6040518163ffffffff1660e01b815260040160206040518083038186803b1580156107c557600080fd5b505afa1580156107d9573d6000803e3d6000fd5b505050506040513d601f19601f820116820180604052508101906107fd9190615608565b610807848c6157b8565b610811919061577f565b6003546040517f054d50d400000000000000000000000000000000000000000000000000000000815260048101839052602481018690526044810185905291995089925073ffffffffffffffffffffffffffffffffffffffff169063054d50d49060640160206040518083038186803b15801561088d57600080fd5b505afa1580156108a1573d6000803e3d6000fd5b505050506040513d601f19601f820116820180604052508101906108c59190615608565b965084955050610a1f565b60008a73ffffffffffffffffffffffffffffffffffffffff166318160ddd6040518163ffffffff1660e01b815260040160206040518083038186803b15801561091857600080fd5b505afa15801561092c573d6000803e3d6000fd5b505050506040513d601f19601f820116820180604052508101906109509190615608565b61095a838c6157b8565b610964919061577f565b6003546040517f054d50d400000000000000000000000000000000000000000000000000000000815260048101839052602481018590526044810186905291995089925073ffffffffffffffffffffffffffffffffffffffff169063054d50d49060640160206040518083038186803b1580156109e057600080fd5b505afa1580156109f4573d6000803e3d6000fd5b505050506040513d601f19601f82011682018060405250810190610a189190615608565b9650839550505b5050505093509350939050565b6000806000808473ffffffffffffffffffffffffffffffffffffffff16630dfe16816040518163ffffffff1660e01b815260040160206040518083038186803b158015610a7857600080fd5b505afa158015610a8c573d6000803e3d6000fd5b505050506040513d601f19601f82011682018060405250810190610ab09190615212565b905060008573ffffffffffffffffffffffffffffffffffffffff1663d21220a76040518163ffffffff1660e01b815260040160206040518083038186803b158015610afa57600080fd5b505afa158015610b0e573d6000803e3d6000fd5b505050506040513d601f19601f82011682018060405250810190610b329190615212565b90508173ffffffffffffffffffffffffffffffffffffffff168873ffffffffffffffffffffffffffffffffffffffff161480610b9957508073ffffffffffffffffffffffffffffffffffffffff168873ffffffffffffffffffffffffffffffffffffffff16145b610bff576040517f08c379a000000000000000000000000000000000000000000000000000000000815260206004820152601160248201527f5a61703a2057726f6e6720746f6b656e73000000000000000000000000000000604482015260640161069a565b6000808773ffffffffffffffffffffffffffffffffffffffff16630902f1ac6040518163ffffffff1660e01b815260040160606040518083038186803b158015610c4857600080fd5b505afa158015610c5c573d6000803e3d6000fd5b505050506040513d601f19601f82011682018060405250810190610c8091906155ad565b506dffffffffffffffffffffffffffff1691506dffffffffffffffffffffffffffff1691508973ffffffffffffffffffffffffffffffffffffffff168473ffffffffffffffffffffffffffffffffffffffff161415610d9f57829450610ce78983836121ae565b6003546040517f054d50d400000000000000000000000000000000000000000000000000000000815260048101839052602481018590526044810184905291985073ffffffffffffffffffffffffffffffffffffffff169063054d50d49060640160206040518083038186803b158015610d6057600080fd5b505afa158015610d74573d6000803e3d6000fd5b505050506040513d601f19601f82011682018060405250810190610d989190615608565b9550610a1f565b839450610dad8982846121ae565b6003546040517f054d50d400000000000000000000000000000000000000000000000000000000815260048101839052602481018490526044810185905291985073ffffffffffffffffffffffffffffffffffffffff169063054d50d49060640160206040518083038186803b158015610e2657600080fd5b505afa158015610e3a573d6000803e3d6000fd5b505050506040513d601f19601f82011682018060405250810190610e5e9190615608565b95505050505093509350939050565b610e7561212d565b610e9673ffffffffffffffffffffffffffffffffffffffff83163383612380565b8173ffffffffffffffffffffffffffffffffffffffff167f74545154aac348a3eac92596bd1971957ca94795f4e954ec5f613b55fab7812982604051610ede91815260200190565b60405180910390a25050565b60026001541415610f57576040517f08c379a000000000000000000000000000000000000000000000000000000000815260206004820152601f60248201527f5265656e7472616e637947756172643a207265656e7472616e742063616c6c00604482015260640161069a565b6002600155610f7e73ffffffffffffffffffffffffffffffffffffffff8616338786612459565b6000610f8c868685856124bd565b9050610faf73ffffffffffffffffffffffffffffffffffffffff86163383612380565b6040805185815260208101839052339173ffffffffffffffffffffffffffffffffffffffff88811692908a16917f20ef8a4c975ec6c340089d8171a0f9c6a6324b11e3ecc4353155186f6c638c2891015b60405180910390a450506001805550505050565b60026001541415611081576040517f08c379a000000000000000000000000000000000000000000000000000000000815260206004820152601f60248201527f5265656e7472616e637947756172643a207265656e7472616e742063616c6c00604482015260640161069a565b6002600181905554604080517fd0e30db0000000000000000000000000000000000000000000000000000000008152905173ffffffffffffffffffffffffffffffffffffffff9092169163d0e30db0913491600480830192600092919082900301818588803b1580156110f357600080fd5b505af1158015611107573d6000803e3d6000fd5b505060065460009350611135925073ffffffffffffffffffffffffffffffffffffffff169050348585612d55565b6040805134815260208101839052919250339173ffffffffffffffffffffffffffffffffffffffff8616916000917fa71185a0ff368de4e9e445d8601c4fbd50d9b674e4e43f5f8feafb8d64a2e13e910160405180910390a450506001805550565b61119f61212d565b6111a96000613689565b565b60008060008373ffffffffffffffffffffffffffffffffffffffff16630dfe16816040518163ffffffff1660e01b815260040160206040518083038186803b1580156111f657600080fd5b505afa15801561120a573d6000803e3d6000fd5b505050506040513d601f19601f8201168201806040525081019061122e9190615212565b73ffffffffffffffffffffffffffffffffffffffff168873ffffffffffffffffffffffffffffffffffffffff16148061130f57508373ffffffffffffffffffffffffffffffffffffffff1663d21220a76040518163ffffffff1660e01b815260040160206040518083038186803b1580156112a857600080fd5b505afa1580156112bc573d6000803e3d6000fd5b505050506040513d601f19601f820116820180604052508101906112e09190615212565b73ffffffffffffffffffffffffffffffffffffffff168873ffffffffffffffffffffffffffffffffffffffff16145b611375576040517f08c379a000000000000000000000000000000000000000000000000000000000815260206004820152601160248201527f5a61703a2057726f6e6720746f6b656e30000000000000000000000000000000604482015260640161069a565b8373ffffffffffffffffffffffffffffffffffffffff16630dfe16816040518163ffffffff1660e01b815260040160206040518083038186803b1580156113bb57600080fd5b505afa1580156113cf573d6000803e3d6000fd5b505050506040513d601f19601f820116820180604052508101906113f39190615212565b73ffffffffffffffffffffffffffffffffffffffff168773ffffffffffffffffffffffffffffffffffffffff1614806114d457508373ffffffffffffffffffffffffffffffffffffffff1663d21220a76040518163ffffffff1660e01b815260040160206040518083038186803b15801561146d57600080fd5b505afa158015611481573d6000803e3d6000fd5b505050506040513d601f19601f820116820180604052508101906114a59190615212565b73ffffffffffffffffffffffffffffffffffffffff168773ffffffffffffffffffffffffffffffffffffffff16145b61153a576040517f08c379a000000000000000000000000000000000000000000000000000000000815260206004820152601160248201527f5a61703a2057726f6e6720746f6b656e31000000000000000000000000000000604482015260640161069a565b8673ffffffffffffffffffffffffffffffffffffffff168873ffffffffffffffffffffffffffffffffffffffff1614156115d0576040517f08c379a000000000000000000000000000000000000000000000000000000000815260206004820152601060248201527f5a61703a2053616d6520746f6b656e7300000000000000000000000000000000604482015260640161069a565b6000808573ffffffffffffffffffffffffffffffffffffffff16630902f1ac6040518163ffffffff1660e01b815260040160606040518083038186803b15801561161957600080fd5b505afa15801561162d573d6000803e3d6000fd5b505050506040513d601f19601f8201168201806040525081019061165191906155ad565b506dffffffffffffffffffffffffffff1691506dffffffffffffffffffffffffffff1691508573ffffffffffffffffffffffffffffffffffffffff16630dfe16816040518163ffffffff1660e01b815260040160206040518083038186803b1580156116bc57600080fd5b505afa1580156116d0573d6000803e3d6000fd5b505050506040513d601f19601f820116820180604052508101906116f49190615212565b73ffffffffffffffffffffffffffffffffffffffff168a73ffffffffffffffffffffffffffffffffffffffff16141561187e5761173182886157b8565b61173b828a6157b8565b1161174757600061174a565b60015b925061175988888484876136fe565b94508215611819576003546040517f054d50d400000000000000000000000000000000000000000000000000000000815260048101879052602481018490526044810183905273ffffffffffffffffffffffffffffffffffffffff9091169063054d50d4906064015b60206040518083038186803b1580156117da57600080fd5b505afa1580156117ee573d6000803e3d6000fd5b505050506040513d601f19601f820116820180604052508101906118129190615608565b93506119d0565b6003546040517f054d50d400000000000000000000000000000000000000000000000000000000815260048101879052602481018390526044810184905273ffffffffffffffffffffffffffffffffffffffff9091169063054d50d4906064016117c2565b61188881886157b8565b611892838a6157b8565b1161189e5760006118a1565b60015b92506118b088888385876136fe565b9450821561191d576003546040517f054d50d400000000000000000000000000000000000000000000000000000000815260048101879052602481018390526044810184905273ffffffffffffffffffffffffffffffffffffffff9091169063054d50d4906064016117c2565b6003546040517f054d50d400000000000000000000000000000000000000000000000000000000815260048101879052602481018490526044810183905273ffffffffffffffffffffffffffffffffffffffff9091169063054d50d49060640160206040518083038186803b15801561199557600080fd5b505afa1580156119a9573d6000803e3d6000fd5b505050506040513d601f19601f820116820180604052508101906119cd9190615608565b93505b5050955095509592505050565b60026001541415611a4a576040517f08c379a000000000000000000000000000000000000000000000000000000000815260206004820152601f60248201527f5265656e7472616e637947756172643a207265656e7472616e742063616c6c00604482015260640161069a565b6002600155611a7173ffffffffffffffffffffffffffffffffffffffff8516333086612459565b6000611a7f85858585612d55565b90503373ffffffffffffffffffffffffffffffffffffffff168373ffffffffffffffffffffffffffffffffffffffff168673ffffffffffffffffffffffffffffffffffffffff167fa71185a0ff368de4e9e445d8601c4fbd50d9b674e4e43f5f8feafb8d64a2e13e8785604051611b00929190918252602082015260400190565b60405180910390a4505060018055505050565b60026001541415611b80576040517f08c379a000000000000000000000000000000000000000000000000000000000815260206004820152601f60248201527f5265656e7472616e637947756172643a207265656e7472616e742063616c6c00604482015260640161069a565b6002600155611ba773ffffffffffffffffffffffffffffffffffffffff8916333089612459565b611bc973ffffffffffffffffffffffffffffffffffffffff8816333088612459565b6000611bdb8989898989898989613bdf565b6040805173ffffffffffffffffffffffffffffffffffffffff8881168252602082018b90529181018990526060810183905291925033918a8216918c16907f4ff29158e89c3af93365bf0fa1d14c5768109fb139f24b97c8a7d510b2d5e3f69060800160405180910390a450506001805550505050505050565b60026001541415611cc2576040517f08c379a000000000000000000000000000000000000000000000000000000000815260206004820152601f60248201527f5265656e7472616e637947756172643a207265656e7472616e742063616c6c00604482015260640161069a565b6002600181905554604080517fd0e30db0000000000000000000000000000000000000000000000000000000008152905173ffffffffffffffffffffffffffffffffffffffff9092169163d0e30db0913491600480830192600092919082900301818588803b158015611d3457600080fd5b505af1158015611d48573d6000803e3d6000fd5b50611d719350505073ffffffffffffffffffffffffffffffffffffffff88169050333088612459565b600654600090611d9d9073ffffffffffffffffffffffffffffffffffffffff1688348989898989613bdf565b6040805173ffffffffffffffffffffffffffffffffffffffff8881168252346020830152918101899052606081018390529192503391908916906000907f4ff29158e89c3af93365bf0fa1d14c5768109fb139f24b97c8a7d510b2d5e3f69060800160405180910390a45050600180555050505050565b60026001541415611e81576040517f08c379a000000000000000000000000000000000000000000000000000000000815260206004820152601f60248201527f5265656e7472616e637947756172643a207265656e7472616e742063616c6c00604482015260640161069a565b6002600155611ea873ffffffffffffffffffffffffffffffffffffffff8516338686612459565b600654600090611ed190869073ffffffffffffffffffffffffffffffffffffffff1685856124bd565b6002546040517f2e1a7d4d0000000000000000000000000000000000000000000000000000000081526004810183905291925073ffffffffffffffffffffffffffffffffffffffff1690632e1a7d4d90602401600060405180830381600087803b158015611f3e57600080fd5b505af1158015611f52573d6000803e3d6000fd5b5050604080516000808252602082019283905293503392508491611f769190615670565b60006040518083038185875af1925050503d8060008114611fb3576040519150601f19603f3d011682016040523d82523d6000602084013e611fb8565b606091505b5050905080612023576040517f08c379a000000000000000000000000000000000000000000000000000000000815260206004820152601360248201527f434f52453a207472616e73666572206661696c00000000000000000000000000604482015260640161069a565b6040805186815260208101849052339160009173ffffffffffffffffffffffffffffffffffffffff8a16917f20ef8a4c975ec6c340089d8171a0f9c6a6324b11e3ecc4353155186f6c638c289101611000565b61207e61212d565b73ffffffffffffffffffffffffffffffffffffffff8116612121576040517f08c379a000000000000000000000000000000000000000000000000000000000815260206004820152602660248201527f4f776e61626c653a206e6577206f776e657220697320746865207a65726f206160448201527f6464726573730000000000000000000000000000000000000000000000000000606482015260840161069a565b61212a81613689565b50565b60005473ffffffffffffffffffffffffffffffffffffffff1633146111a9576040517f08c379a000000000000000000000000000000000000000000000000000000000815260206004820181905260248201527f4f776e61626c653a2063616c6c6572206973206e6f7420746865206f776e6572604482015260640161069a565b6000806121bc60028661577f565b6003546040517f054d50d400000000000000000000000000000000000000000000000000000000815260048101839052602481018790526044810186905291925060009173ffffffffffffffffffffffffffffffffffffffff9091169063054d50d49060640160206040518083038186803b15801561223a57600080fd5b505afa15801561224e573d6000803e3d6000fd5b505050506040513d601f19601f820116820180604052508101906122729190615608565b60035490915060009073ffffffffffffffffffffffffffffffffffffffff1663ad615dec846122a1818a615767565b6122ab868a6157f5565b6040517fffffffff0000000000000000000000000000000000000000000000000000000060e086901b16815260048101939093526024830191909152604482015260640160206040518083038186803b15801561230757600080fd5b505afa15801561231b573d6000803e3d6000fd5b505050506040513d601f19601f8201168201806040525081019061233f9190615608565b9050612369818361235086806157b8565b61235a91906157b8565b612364919061577f565b614a88565b61237390886157f5565b93505050505b9392505050565b60405173ffffffffffffffffffffffffffffffffffffffff83166024820152604481018290526124549084907fa9059cbb00000000000000000000000000000000000000000000000000000000906064015b604080517fffffffffffffffffffffffffffffffffffffffffffffffffffffffffffffffe08184030181529190526020810180517bffffffffffffffffffffffffffffffffffffffffffffffffffffffff167fffffffff0000000000000000000000000000000000000000000000000000000090931692909217909152614c13565b505050565b60405173ffffffffffffffffffffffffffffffffffffffff808516602483015283166044820152606481018290526124b79085907f23b872dd00000000000000000000000000000000000000000000000000000000906084016123d2565b50505050565b6000808573ffffffffffffffffffffffffffffffffffffffff16630dfe16816040518163ffffffff1660e01b815260040160206040518083038186803b15801561250657600080fd5b505afa15801561251a573d6000803e3d6000fd5b505050506040513d601f19601f8201168201806040525081019061253e9190615212565b905060008673ffffffffffffffffffffffffffffffffffffffff1663d21220a76040518163ffffffff1660e01b815260040160206040518083038186803b15801561258857600080fd5b505afa15801561259c573d6000803e3d6000fd5b505050506040513d601f19601f820116820180604052508101906125c09190615212565b90508173ffffffffffffffffffffffffffffffffffffffff168673ffffffffffffffffffffffffffffffffffffffff16148061262757508073ffffffffffffffffffffffffffffffffffffffff168673ffffffffffffffffffffffffffffffffffffffff16145b61268d576040517f08c379a000000000000000000000000000000000000000000000000000000000815260206004820152601460248201527f5a61703a20546f6b656e206e6f7420696e204c50000000000000000000000000604482015260640161069a565b6040517f89afcb44000000000000000000000000000000000000000000000000000000008152306004820152600090819073ffffffffffffffffffffffffffffffffffffffff8a16906389afcb44906024016040805180830381600087803b1580156126f857600080fd5b505af115801561270c573d6000803e3d6000fd5b505050506040513d601f19601f820116820180604052508101906127309190615620565b915091506103e88210156127c6576040517f08c379a000000000000000000000000000000000000000000000000000000000815260206004820152602360248201527f536861646f77526f757465723a20494e53554646494349454e545f415f414d4f60448201527f554e540000000000000000000000000000000000000000000000000000000000606482015260840161069a565b6103e8811015612858576040517f08c379a000000000000000000000000000000000000000000000000000000000815260206004820152602360248201527f536861646f77526f757465723a20494e53554646494349454e545f425f414d4f60448201527f554e540000000000000000000000000000000000000000000000000000000000606482015260840161069a565b60408051600280825260608201835260009260208301908036833701905050905088816001815181106128b4577f4e487b7100000000000000000000000000000000000000000000000000000000600052603260045260246000fd5b73ffffffffffffffffffffffffffffffffffffffff9283166020918202929092010152600090868116908b1614156129de578482600081518110612921577f4e487b7100000000000000000000000000000000000000000000000000000000600052603260045260246000fd5b73ffffffffffffffffffffffffffffffffffffffff92831660209182029290920101526040517f70a08231000000000000000000000000000000000000000000000000000000008152306004820152908616906370a082319060240160206040518083038186803b15801561299557600080fd5b505afa1580156129a9573d6000803e3d6000fd5b505050506040513d601f19601f820116820180604052508101906129cd9190615608565b90506129d98582614d1f565b612ad1565b8582600081518110612a19577f4e487b7100000000000000000000000000000000000000000000000000000000600052603260045260246000fd5b73ffffffffffffffffffffffffffffffffffffffff92831660209182029290920101526040517f70a08231000000000000000000000000000000000000000000000000000000008152306004820152908716906370a082319060240160206040518083038186803b158015612a8d57600080fd5b505afa158015612aa1573d6000803e3d6000fd5b505050506040513d601f19601f82011682018060405250810190612ac59190615608565b9050612ad18682614d1f565b6003546040517f38ed173900000000000000000000000000000000000000000000000000000000815273ffffffffffffffffffffffffffffffffffffffff909116906338ed173990612b2f9084908d908790309042906004016156dd565b600060405180830381600087803b158015612b4957600080fd5b505af1158015612b5d573d6000803e3d6000fd5b505050506040513d6000823e601f3d9081017fffffffffffffffffffffffffffffffffffffffffffffffffffffffffffffffe0168201604052612ba391908101906154b3565b506040517f70a0823100000000000000000000000000000000000000000000000000000000815230600482015273ffffffffffffffffffffffffffffffffffffffff8b16906370a082319060240160206040518083038186803b158015612c0957600080fd5b505afa158015612c1d573d6000803e3d6000fd5b505050506040513d601f19601f82011682018060405250810190612c419190615608565b8810612ca9576040517f08c379a000000000000000000000000000000000000000000000000000000000815260206004820152601460248201527f616d6f756e74206973206e6f7420656e6f756768000000000000000000000000604482015260640161069a565b6040517f70a0823100000000000000000000000000000000000000000000000000000000815230600482015273ffffffffffffffffffffffffffffffffffffffff8b16906370a082319060240160206040518083038186803b158015612d0e57600080fd5b505afa158015612d22573d6000803e3d6000fd5b505050506040513d601f19601f82011682018060405250810190612d469190615608565b9b9a5050505050505050505050565b60006103e8841015612dc3576040517f08c379a000000000000000000000000000000000000000000000000000000000815260206004820152601360248201527f5a61703a20416d6f756e7420746f6f206c6f7700000000000000000000000000604482015260640161069a565b60008373ffffffffffffffffffffffffffffffffffffffff16630dfe16816040518163ffffffff1660e01b815260040160206040518083038186803b158015612e0b57600080fd5b505afa158015612e1f573d6000803e3d6000fd5b505050506040513d601f19601f82011682018060405250810190612e439190615212565b905060008473ffffffffffffffffffffffffffffffffffffffff1663d21220a76040518163ffffffff1660e01b815260040160206040518083038186803b158015612e8d57600080fd5b505afa158015612ea1573d6000803e3d6000fd5b505050506040513d601f19601f82011682018060405250810190612ec59190615212565b90508173ffffffffffffffffffffffffffffffffffffffff168773ffffffffffffffffffffffffffffffffffffffff161480612f2c57508073ffffffffffffffffffffffffffffffffffffffff168773ffffffffffffffffffffffffffffffffffffffff16145b612f92576040517f08c379a000000000000000000000000000000000000000000000000000000000815260206004820152601160248201527f5a61703a2057726f6e6720746f6b656e73000000000000000000000000000000604482015260640161069a565b6040805160028082526060820183526000926020830190803683370190505090508781600081518110612fee577f4e487b7100000000000000000000000000000000000000000000000000000000600052603260045260246000fd5b602002602001019073ffffffffffffffffffffffffffffffffffffffff16908173ffffffffffffffffffffffffffffffffffffffff168152505060008060008873ffffffffffffffffffffffffffffffffffffffff16630902f1ac6040518163ffffffff1660e01b815260040160606040518083038186803b15801561307357600080fd5b505afa158015613087573d6000803e3d6000fd5b505050506040513d601f19601f820116820180604052508101906130ab91906155ad565b506dffffffffffffffffffffffffffff1691506dffffffffffffffffffffffffffff1691506103e882101580156130e457506103e88110155b61314a576040517f08c379a000000000000000000000000000000000000000000000000000000000815260206004820152601560248201527f5a61703a20526573657276657320746f6f206c6f770000000000000000000000604482015260640161069a565b8a73ffffffffffffffffffffffffffffffffffffffff168673ffffffffffffffffffffffffffffffffffffffff161415613265576131898a83836121ae565b925084846001815181106131c6577f4e487b7100000000000000000000000000000000000000000000000000000000600052603260045260246000fd5b73ffffffffffffffffffffffffffffffffffffffff909216602092830291909101909101526004546131f8848461577f565b1015613260576040517f08c379a000000000000000000000000000000000000000000000000000000000815260206004820152601f60248201527f5a61703a205175616e7469747920686967686572207468616e206c696d697400604482015260640161069a565b613347565b6132708a82846121ae565b925085846001815181106132ad577f4e487b7100000000000000000000000000000000000000000000000000000000600052603260045260246000fd5b73ffffffffffffffffffffffffffffffffffffffff909216602092830291909101909101526004546132df848361577f565b1015613347576040517f08c379a000000000000000000000000000000000000000000000000000000000815260206004820152601f60248201527f5a61703a205175616e7469747920686967686572207468616e206c696d697400604482015260640161069a565b50506133538982614d1f565b6003546040517f38ed173900000000000000000000000000000000000000000000000000000000815260009173ffffffffffffffffffffffffffffffffffffffff16906338ed1739906133b29085908b908890309042906004016156dd565b600060405180830381600087803b1580156133cc57600080fd5b505af11580156133e0573d6000803e3d6000fd5b505050506040513d6000823e601f3d9081017fffffffffffffffffffffffffffffffffffffffffffffffffffffffffffffffe016820160405261342691908101906154b3565b90508973ffffffffffffffffffffffffffffffffffffffff168573ffffffffffffffffffffffffffffffffffffffff16141561346b576134668483614d1f565b613475565b6134758583614d1f565b600354835173ffffffffffffffffffffffffffffffffffffffff9091169063e8e337009085906000906134d1577f4e487b7100000000000000000000000000000000000000000000000000000000600052603260045260246000fd5b602002602001015185600181518110613513577f4e487b7100000000000000000000000000000000000000000000000000000000600052603260045260246000fd5b602002602001015184600081518110613555577f4e487b7100000000000000000000000000000000000000000000000000000000600052603260045260246000fd5b60200260200101518d61356891906157f5565b856001815181106135a2577f4e487b7100000000000000000000000000000000000000000000000000000000600052603260045260246000fd5b60209081029190910101516040517fffffffff0000000000000000000000000000000000000000000000000000000060e087901b16815273ffffffffffffffffffffffffffffffffffffffff94851660048201529390921660248401526044830152606482015260016084820181905260a48201523360c48201524260e482015261010401606060405180830381600087803b15801561364157600080fd5b505af1158015613655573d6000803e3d6000fd5b505050506040513d601f19601f820116820180604052508101906136799190615643565b9c9b505050505050505050505050565b6000805473ffffffffffffffffffffffffffffffffffffffff8381167fffffffffffffffffffffffff0000000000000000000000000000000000000000831681178455604051919092169283917f8be0079c531659141344cd1fd0a4f28419497f9722a3daafe3b4186f6b6457e09190a35050565b60008061370b85876157b8565b61371585896157b8565b11613721576000613724565b60015b905082151581151514613793576040517f08c379a000000000000000000000000000000000000000000000000000000000815260206004820152601a60248201527f5a61703a2057726f6e6720747261646520646972656374696f6e000000000000604482015260640161069a565b80156139b95760006002856137a8888a6157b8565b6137b2919061577f565b6137bc908a6157f5565b6137c6919061577f565b6003546040517f054d50d400000000000000000000000000000000000000000000000000000000815260048101839052602481018990526044810188905291925060009173ffffffffffffffffffffffffffffffffffffffff9091169063054d50d49060640160206040518083038186803b15801561384457600080fd5b505afa158015613858573d6000803e3d6000fd5b505050506040513d601f19601f8201168201806040525081019061387c9190615608565b60035490915060009073ffffffffffffffffffffffffffffffffffffffff1663ad615dec846138ab818c615767565b6138b5868c6157f5565b6040517fffffffff0000000000000000000000000000000000000000000000000000000060e086901b16815260048101939093526024830191909152604482015260640160206040518083038186803b15801561391157600080fd5b505afa158015613925573d6000803e3d6000fd5b505050506040513d601f19601f820116820180604052508101906139499190615608565b9050600261395783896157f5565b613961858b615767565b61396b908c6157b8565b613975919061577f565b61397f908c6157f5565b613989919061577f565b925061399a818361235086806157b8565b6139a58460026157b8565b6139af91906157f5565b9450505050613bd5565b60006002866139c8878b6157b8565b6139d2919061577f565b6139dc90896157f5565b6139e6919061577f565b6003546040517f054d50d400000000000000000000000000000000000000000000000000000000815260048101839052602481018890526044810189905291925060009173ffffffffffffffffffffffffffffffffffffffff9091169063054d50d49060640160206040518083038186803b158015613a6457600080fd5b505afa158015613a78573d6000803e3d6000fd5b505050506040513d601f19601f82011682018060405250810190613a9c9190615608565b60035490915060009073ffffffffffffffffffffffffffffffffffffffff1663ad615dec84613acb818b615767565b613ad5868d6157f5565b6040517fffffffff0000000000000000000000000000000000000000000000000000000060e086901b16815260048101939093526024830191909152604482015260640160206040518083038186803b158015613b3157600080fd5b505afa158015613b45573d6000803e3d6000fd5b505050506040513d601f19601f82011682018060405250810190613b699190615608565b90506002613b77838a6157f5565b613b81858a615767565b613b8b908d6157b8565b613b95919061577f565b613b9f908b6157f5565b613ba9919061577f565b9250613bba818361235086806157b8565b613bc58460026157b8565b613bcf91906157f5565b94505050505b5095945050505050565b60008473ffffffffffffffffffffffffffffffffffffffff16630dfe16816040518163ffffffff1660e01b815260040160206040518083038186803b158015613c2757600080fd5b505afa158015613c3b573d6000803e3d6000fd5b505050506040513d601f19601f82011682018060405250810190613c5f9190615212565b73ffffffffffffffffffffffffffffffffffffffff168973ffffffffffffffffffffffffffffffffffffffff161480613d4057508473ffffffffffffffffffffffffffffffffffffffff1663d21220a76040518163ffffffff1660e01b815260040160206040518083038186803b158015613cd957600080fd5b505afa158015613ced573d6000803e3d6000fd5b505050506040513d601f19601f82011682018060405250810190613d119190615212565b73ffffffffffffffffffffffffffffffffffffffff168973ffffffffffffffffffffffffffffffffffffffff16145b613da6576040517f08c379a000000000000000000000000000000000000000000000000000000000815260206004820152601160248201527f5a61703a2057726f6e6720746f6b656e30000000000000000000000000000000604482015260640161069a565b8473ffffffffffffffffffffffffffffffffffffffff16630dfe16816040518163ffffffff1660e01b815260040160206040518083038186803b158015613dec57600080fd5b505afa158015613e00573d6000803e3d6000fd5b505050506040513d601f19601f82011682018060405250810190613e249190615212565b73ffffffffffffffffffffffffffffffffffffffff168873ffffffffffffffffffffffffffffffffffffffff161480613f0557508473ffffffffffffffffffffffffffffffffffffffff1663d21220a76040518163ffffffff1660e01b815260040160206040518083038186803b158015613e9e57600080fd5b505afa158015613eb2573d6000803e3d6000fd5b505050506040513d601f19601f82011682018060405250810190613ed69190615212565b73ffffffffffffffffffffffffffffffffffffffff168873ffffffffffffffffffffffffffffffffffffffff16145b613f6b576040517f08c379a000000000000000000000000000000000000000000000000000000000815260206004820152601160248201527f5a61703a2057726f6e6720746f6b656e31000000000000000000000000000000604482015260640161069a565b8773ffffffffffffffffffffffffffffffffffffffff168973ffffffffffffffffffffffffffffffffffffffff161415614001576040517f08c379a000000000000000000000000000000000000000000000000000000000815260206004820152601060248201527f5a61703a2053616d6520746f6b656e7300000000000000000000000000000000604482015260640161069a565b60008060008773ffffffffffffffffffffffffffffffffffffffff16630902f1ac6040518163ffffffff1660e01b815260040160606040518083038186803b15801561404c57600080fd5b505afa158015614060573d6000803e3d6000fd5b505050506040513d601f19601f8201168201806040525081019061408491906155ad565b506dffffffffffffffffffffffffffff1691506dffffffffffffffffffffffffffff1691506103e882101580156140bd57506103e88110155b614123576040517f08c379a000000000000000000000000000000000000000000000000000000000815260206004820152601560248201527f5a61703a20526573657276657320746f6f206c6f770000000000000000000000604482015260640161069a565b8773ffffffffffffffffffffffffffffffffffffffff16630dfe16816040518163ffffffff1660e01b815260040160206040518083038186803b15801561416957600080fd5b505afa15801561417d573d6000803e3d6000fd5b505050506040513d601f19601f820116820180604052508101906141a19190615212565b73ffffffffffffffffffffffffffffffffffffffff168c73ffffffffffffffffffffffffffffffffffffffff16141561425e576141e18a8a8484896136fe565b6004549093506141f1848461577f565b1015614259576040517f08c379a000000000000000000000000000000000000000000000000000000000815260206004820152601f60248201527f5a61703a205175616e7469747920686967686572207468616e206c696d697400604482015260640161069a565b6142e3565b61426b8a8a8385896136fe565b60045490935061427b848361577f565b10156142e3576040517f08c379a000000000000000000000000000000000000000000000000000000000815260206004820152601f60248201527f5a61703a205175616e7469747920686967686572207468616e206c696d697400604482015260640161069a565b50508481111561434f576040517f08c379a000000000000000000000000000000000000000000000000000000000815260206004820152601c60248201527f5a61703a20416d6f756e7420746f207377617020746f6f206869676800000000604482015260640161069a565b604080516002808252606082018352600092602083019080368337019050509050831561446f578a816000815181106143b1577f4e487b7100000000000000000000000000000000000000000000000000000000600052603260045260246000fd5b602002602001019073ffffffffffffffffffffffffffffffffffffffff16908173ffffffffffffffffffffffffffffffffffffffff16815250508981600181518110614426577f4e487b7100000000000000000000000000000000000000000000000000000000600052603260045260246000fd5b602002602001019073ffffffffffffffffffffffffffffffffffffffff16908173ffffffffffffffffffffffffffffffffffffffff168152505061446a8b83614d1f565b614563565b89816000815181106144aa577f4e487b7100000000000000000000000000000000000000000000000000000000600052603260045260246000fd5b602002602001019073ffffffffffffffffffffffffffffffffffffffff16908173ffffffffffffffffffffffffffffffffffffffff16815250508a8160018151811061451f577f4e487b7100000000000000000000000000000000000000000000000000000000600052603260045260246000fd5b602002602001019073ffffffffffffffffffffffffffffffffffffffff16908173ffffffffffffffffffffffffffffffffffffffff16815250506145638a83614d1f565b6003546040517f38ed173900000000000000000000000000000000000000000000000000000000815260009173ffffffffffffffffffffffffffffffffffffffff16906338ed1739906145c29086908a908790309042906004016156dd565b600060405180830381600087803b1580156145dc57600080fd5b505af11580156145f0573d6000803e3d6000fd5b505050506040513d6000823e601f3d9081017fffffffffffffffffffffffffffffffffffffffffffffffffffffffffffffffe016820160405261463691908101906154b3565b9050841561485e576146488b84614d1f565b600354825173ffffffffffffffffffffffffffffffffffffffff9091169063e8e337009084906000906146a4577f4e487b7100000000000000000000000000000000000000000000000000000000600052603260045260246000fd5b6020026020010151846001815181106146e6577f4e487b7100000000000000000000000000000000000000000000000000000000600052603260045260246000fd5b602002602001015184600081518110614728577f4e487b7100000000000000000000000000000000000000000000000000000000600052603260045260246000fd5b60200260200101518e61473b91906157f5565b85600181518110614775577f4e487b7100000000000000000000000000000000000000000000000000000000600052603260045260246000fd5b60200260200101518e6147889190615767565b6040517fffffffff0000000000000000000000000000000000000000000000000000000060e087901b16815273ffffffffffffffffffffffffffffffffffffffff94851660048201529390921660248401526044830152606482015260016084820181905260a48201523360c48201524260e482015261010401606060405180830381600087803b15801561481c57600080fd5b505af1158015614830573d6000803e3d6000fd5b505050506040513d601f19601f820116820180604052508101906148549190615643565b9550614a79915050565b6148688c84614d1f565b600354825173ffffffffffffffffffffffffffffffffffffffff9091169063e8e337009084906000906148c4577f4e487b7100000000000000000000000000000000000000000000000000000000600052603260045260246000fd5b602002602001015184600181518110614906577f4e487b7100000000000000000000000000000000000000000000000000000000600052603260045260246000fd5b602002602001015184600081518110614948577f4e487b7100000000000000000000000000000000000000000000000000000000600052603260045260246000fd5b60200260200101518d61495b91906157f5565b85600181518110614995577f4e487b7100000000000000000000000000000000000000000000000000000000600052603260045260246000fd5b60200260200101518f6149a89190615767565b6040517fffffffff0000000000000000000000000000000000000000000000000000000060e087901b16815273ffffffffffffffffffffffffffffffffffffffff94851660048201529390921660248401526044830152606482015260016084820181905260a48201523360c48201524260e482015261010401606060405180830381600087803b158015614a3c57600080fd5b505af1158015614a50573d6000803e3d6000fd5b505050506040513d601f19601f82011682018060405250810190614a749190615643565b955050505b50505098975050505050505050565b600081614a9757506000919050565b8160017001000000000000000000000000000000008210614abd5760809190911c9060401b5b680100000000000000008210614ad85760409190911c9060201b5b6401000000008210614aef5760209190911c9060101b5b620100008210614b045760109190911c9060081b5b6101008210614b185760089190911c9060041b5b60108210614b2b5760049190911c9060021b5b60088210614b375760011b5b6001614b43828661577f565b614b4d9083615767565b901c90506001614b5d828661577f565b614b679083615767565b901c90506001614b77828661577f565b614b819083615767565b901c90506001614b91828661577f565b614b9b9083615767565b901c90506001614bab828661577f565b614bb59083615767565b901c90506001614bc5828661577f565b614bcf9083615767565b901c90506001614bdf828661577f565b614be99083615767565b901c90506000614bf9828661577f565b9050808210614c085780614c0a565b815b95945050505050565b6000614c75826040518060400160405280602081526020017f5361666545524332303a206c6f772d6c6576656c2063616c6c206661696c65648152508573ffffffffffffffffffffffffffffffffffffffff16614e429092919063ffffffff16565b8051909150156124545780806020019051810190614c939190615591565b612454576040517f08c379a000000000000000000000000000000000000000000000000000000000815260206004820152602a60248201527f5361666545524332303a204552433230206f7065726174696f6e20646964206e60448201527f6f74207375636365656400000000000000000000000000000000000000000000606482015260840161069a565b6005546040517fdd62ed3e00000000000000000000000000000000000000000000000000000000815230600482015273ffffffffffffffffffffffffffffffffffffffff9182166024820152829184169063dd62ed3e9060440160206040518083038186803b158015614d9157600080fd5b505afa158015614da5573d6000803e3d6000fd5b505050506040513d601f19601f82011682018060405250810190614dc99190615608565b1015614e3e57600554614df79073ffffffffffffffffffffffffffffffffffffffff84811691166000614e59565b600554614e3e9073ffffffffffffffffffffffffffffffffffffffff84811691167fffffffffffffffffffffffffffffffffffffffffffffffffffffffffffffffff614e59565b5050565b6060614e518484600085614fea565b949350505050565b801580614f0857506040517fdd62ed3e00000000000000000000000000000000000000000000000000000000815230600482015273ffffffffffffffffffffffffffffffffffffffff838116602483015284169063dd62ed3e9060440160206040518083038186803b158015614ece57600080fd5b505afa158015614ee2573d6000803e3d6000fd5b505050506040513d601f19601f82011682018060405250810190614f069190615608565b155b614f94576040517f08c379a000000000000000000000000000000000000000000000000000000000815260206004820152603660248201527f5361666545524332303a20617070726f76652066726f6d206e6f6e2d7a65726f60448201527f20746f206e6f6e2d7a65726f20616c6c6f77616e636500000000000000000000606482015260840161069a565b60405173ffffffffffffffffffffffffffffffffffffffff83166024820152604481018290526124549084907f095ea7b300000000000000000000000000000000000000000000000000000000906064016123d2565b60608247101561507c576040517f08c379a000000000000000000000000000000000000000000000000000000000815260206004820152602660248201527f416464726573733a20696e73756666696369656e742062616c616e636520666f60448201527f722063616c6c0000000000000000000000000000000000000000000000000000606482015260840161069a565b73ffffffffffffffffffffffffffffffffffffffff85163b6150fa576040517f08c379a000000000000000000000000000000000000000000000000000000000815260206004820152601d60248201527f416464726573733a2063616c6c20746f206e6f6e2d636f6e7472616374000000604482015260640161069a565b6000808673ffffffffffffffffffffffffffffffffffffffff1685876040516151239190615670565b60006040518083038185875af1925050503d8060008114615160576040519150601f19603f3d011682016040523d82523d6000602084013e615165565b606091505b5091509150615175828286615180565b979650505050505050565b6060831561518f575081612379565b82511561519f5782518084602001fd5b816040517f08c379a000000000000000000000000000000000000000000000000000000000815260040161069a919061568c565b80516dffffffffffffffffffffffffffff811681146151f157600080fd5b919050565b600060208284031215615207578081fd5b813561237981615896565b600060208284031215615223578081fd5b815161237981615896565b600080600080600060a08688031215615245578081fd5b853561525081615896565b9450602086013561526081615896565b93506040860135925060608601359150608086013561527e81615896565b809150509295509295909350565b600080600080600080600080610100898b0312156152a8578283fd5b88356152b381615896565b975060208901356152c381615896565b9650604089013595506060890135945060808901356152e181615896565b935060a0890135925060c0890135915060e08901356152ff816158b8565b809150509295985092959890939650565b600080600080600060a08688031215615327578081fd5b853561533281615896565b9450602086013561534281615896565b94979496505050506040830135926060810135926080909101359150565b60008060408385031215615372578182fd5b823561537d81615896565b946020939093013593505050565b60008060006060848603121561539f578283fd5b83356153aa81615896565b92506020840135915060408401356153c181615896565b809150509250925092565b600080600080608085870312156153e1578384fd5b84356153ec81615896565b935060208501359250604085013561540381615896565b9396929550929360600135925050565b60008060008060008060c0878903121561542b578182fd5b863561543681615896565b955060208701359450604087013561544d81615896565b9350606087013592506080870135915060a087013561546b816158b8565b809150509295509295509295565b6000806000806080858703121561548e578182fd5b843561549981615896565b966020860135965060408601359560600135945092505050565b600060208083850312156154c5578182fd5b825167ffffffffffffffff808211156154dc578384fd5b818501915085601f8301126154ef578384fd5b81518181111561550157615501615867565b8060051b6040517fffffffffffffffffffffffffffffffffffffffffffffffffffffffffffffffe0603f8301168101818110858211171561554457615544615867565b604052828152858101935084860182860187018a1015615562578788fd5b8795505b83861015615584578051855260019590950194938601938601615566565b5098975050505050505050565b6000602082840312156155a2578081fd5b8151612379816158b8565b6000806000606084860312156155c1578081fd5b6155ca846151d3565b92506155d8602085016151d3565b9150604084015163ffffffff811681146153c1578182fd5b600060208284031215615601578081fd5b5035919050565b600060208284031215615619578081fd5b5051919050565b60008060408385031215615632578182fd5b505080516020909101519092909150565b600080600060608486031215615657578081fd5b8351925060208401519150604084015190509250925092565b6000825161568281846020870161580c565b9190910192915050565b60208152600082518060208401526156ab81604085016020870161580c565b601f017fffffffffffffffffffffffffffffffffffffffffffffffffffffffffffffffe0169190910160400192915050565b600060a082018783526020878185015260a0604085015281875180845260c0860191508289019350845b8181101561573957845173ffffffffffffffffffffffffffffffffffffffff1683529383019391830191600101615707565b505073ffffffffffffffffffffffffffffffffffffffff969096166060850152505050608001529392505050565b6000821982111561577a5761577a615838565b500190565b6000826157b3577f4e487b710000000000000000000000000000000000000000000000000000000081526012600452602481fd5b500490565b6000817fffffffffffffffffffffffffffffffffffffffffffffffffffffffffffffffff04831182151516156157f0576157f0615838565b500290565b60008282101561580757615807615838565b500390565b60005b8381101561582757818101518382015260200161580f565b838111156124b75750506000910152565b7f4e487b7100000000000000000000000000000000000000000000000000000000600052601160045260246000fd5b7f4e487b7100000000000000000000000000000000000000000000000000000000600052604160045260246000fd5b73ffffffffffffffffffffffffffffffffffffffff8116811461212a57600080fd5b801515811461212a57600080fdfea2646970667358221220259a54ffa1a25e9bd4023e190cdc2dfca5f6dc4f08494189f7d403a7ad08745e64736f6c63430008040033",
  "immutableReferences": {},
  "source": "// SPDX-License-Identifier: MIT\r\npragma solidity ^0.8.4;\r\n\r\nimport {Ownable} from \"@openzeppelin/contracts/access/Ownable.sol\";\r\nimport {IERC20} from \"@openzeppelin/contracts/token/ERC20/IERC20.sol\";\r\nimport {SafeERC20} from \"@openzeppelin/contracts/token/ERC20/utils/SafeERC20.sol\";\r\nimport {ReentrancyGuard} from \"@openzeppelin/contracts/security/ReentrancyGuard.sol\";\r\n\r\nimport {IShadowPair} from \"./interfaces/IShadowPair.sol\";\r\nimport {IShadowRouter02} from \"./interfaces/IShadowRouter02.sol\";\r\nimport {IWETH} from \"./interfaces/IWETH.sol\";\r\nimport {Babylonian} from \"./libraries/Babylonian.sol\";\r\n\r\n/*\r\n * @author Inspiration from the work of Zapper and Beefy.\r\n * Implemented and modified by SVerse Lab teams.\r\n */\r\ncontract ShadowZap is Ownable, ReentrancyGuard {\r\n    using SafeERC20 for IERC20;\r\n\r\n    // Interface for Wrapped tCORE (WCORE)\r\n    IWETH public WCORE;\r\n\r\n    // ShadowRouter interface\r\n    IShadowRouter02 public ShadowRouter;\r\n\r\n    // Maximum integer (used for managing allowance)\r\n    uint256 public constant MAX_INT = 2**256 - 1;\r\n\r\n    // Minimum amount for a swap (derived from ShadowSwap)\r\n    uint256 public constant MINIMUM_AMOUNT = 1000;\r\n\r\n    // Maximum reverse zap ratio (100 --> 1%, 1000 --> 0.1%)\r\n    uint256 public maxZapReverseRatio;\r\n\r\n    // Address ShadowRouter\r\n    address private ShadowRouterAddress;\r\n\r\n    // Address Wrapped tCORE (WCORE)\r\n    address private WCOREAddress;\r\n\r\n    // Owner recovers token\r\n    event AdminTokenRecovery(address indexed tokenAddress, uint256 amountTokens);\r\n\r\n    // Owner changes the maxZapReverseRatio\r\n    event NewMaxZapReverseRatio(uint256 maxZapReverseRatio);\r\n\r\n    // tokenToZap = 0x00 address if CORE\r\n    event ZapIn(\r\n        address indexed tokenToZap,\r\n        address indexed lpToken,\r\n        uint256 tokenAmountIn,\r\n        uint256 lpTokenAmountReceived,\r\n        address indexed user\r\n    );\r\n\r\n    // token0ToZap = 0x00 address if CORE\r\n    event ZapInRebalancing(\r\n        address indexed token0ToZap,\r\n        address indexed token1ToZap,\r\n        address lpToken,\r\n        uint256 token0AmountIn,\r\n        uint256 token1AmountIn,\r\n        uint256 lpTokenAmountReceived,\r\n        address indexed user\r\n    );\r\n\r\n    // tokenToReceive = 0x00 address if CORE\r\n    event ZapOut(\r\n        address indexed lpToken,\r\n        address indexed tokenToReceive,\r\n        uint256 lpTokenAmount,\r\n        uint256 tokenAmountReceived,\r\n        address indexed user\r\n    );\r\n\r\n    /*\r\n     * @notice Fallback for WCORE\r\n     */\r\n    receive() external payable {\r\n        assert(msg.sender == WCOREAddress);\r\n    }\r\n\r\n    /*\r\n     * @notice Constructor\r\n     * @param _WCOREAddress: address of the WCORE contract\r\n     * @param _ShadowRouter: address of the ShadowRouter\r\n     * @param _maxZapReverseRatio: maximum zap ratio\r\n     */\r\n    constructor(\r\n        address _WCOREAddress,\r\n        address _ShadowRouter,\r\n        uint256 _maxZapReverseRatio\r\n    ) {\r\n        WCOREAddress = _WCOREAddress;\r\n        WCORE = IWETH(_WCOREAddress);\r\n        ShadowRouterAddress = _ShadowRouter;\r\n        ShadowRouter = IShadowRouter02(_ShadowRouter);\r\n        maxZapReverseRatio = _maxZapReverseRatio;\r\n    }\r\n\r\n    /*\r\n     * @notice Zap CORE in a WCORE pool (e.g. WCORE/token)\r\n     * @param _lpToken: LP token address (e.g. SHDW/CORE)\r\n     * @param _tokenAmountOutMin: minimum token amount (e.g. SHDW) to receive in the intermediary swap (e.g. CORE --> SHDW)\r\n     */\r\n    function zapInBNB(address _lpToken, uint256 _tokenAmountOutMin) external payable nonReentrant {\r\n        WCORE.deposit{value: msg.value}();\r\n\r\n        // Call zap function\r\n        uint256 lpTokenAmountTransferred = _zapIn(WCOREAddress, msg.value, _lpToken, _tokenAmountOutMin);\r\n\r\n        // Emit event\r\n        emit ZapIn(\r\n            address(0x0000000000000000000000000000000000000000),\r\n            _lpToken,\r\n            msg.value,\r\n            lpTokenAmountTransferred,\r\n            msg.sender\r\n        );\r\n    }\r\n\r\n    /*\r\n     * @notice Zap a token in (e.g. token/other token)\r\n     * @param _tokenToZap: token to zap\r\n     * @param _tokenAmountIn: amount of token to swap\r\n     * @param _lpToken: LP token address (e.g. SHDW/BUSD)\r\n     * @param _tokenAmountOutMin: minimum token to receive (e.g. SHDW) in the intermediary swap (e.g. BUSD --> SHDW)\r\n     */\r\n    function zapInToken(\r\n        address _tokenToZap,\r\n        uint256 _tokenAmountIn,\r\n        address _lpToken,\r\n        uint256 _tokenAmountOutMin\r\n    ) external nonReentrant {\r\n        // Transfer tokens to this contract\r\n        IERC20(_tokenToZap).safeTransferFrom(msg.sender, address(this), _tokenAmountIn);\r\n\r\n        // Call zap function\r\n        uint256 lpTokenAmountTransferred = _zapIn(_tokenToZap, _tokenAmountIn, _lpToken, _tokenAmountOutMin);\r\n\r\n        // Emit event\r\n        emit ZapIn(_tokenToZap, _lpToken, _tokenAmountIn, lpTokenAmountTransferred, msg.sender);\r\n    }\r\n\r\n    /*\r\n     * @notice Zap two tokens in, rebalance them to 50-50, before adding them to LP\r\n     * @param _token0ToZap: address of token0 to zap\r\n     * @param _token1ToZap: address of token1 to zap\r\n     * @param _token0AmountIn: amount of token0 to zap\r\n     * @param _token1AmountIn: amount of token1 to zap\r\n     * @param _lpToken: LP token address (token0/token1)\r\n     * @param _tokenAmountInMax: maximum token amount to sell (in token to sell in the intermediary swap)\r\n     * @param _tokenAmountOutMin: minimum token to receive in the intermediary swap\r\n     * @param _isToken0Sold: whether token0 is expected to be sold (if false, sell token1)\r\n     */\r\n    function zapInTokenRebalancing(\r\n        address _token0ToZap,\r\n        address _token1ToZap,\r\n        uint256 _token0AmountIn,\r\n        uint256 _token1AmountIn,\r\n        address _lpToken,\r\n        uint256 _tokenAmountInMax,\r\n        uint256 _tokenAmountOutMin,\r\n        bool _isToken0Sold\r\n    ) external nonReentrant {\r\n        // Transfer tokens to this contract\r\n        IERC20(_token0ToZap).safeTransferFrom(msg.sender, address(this), _token0AmountIn);\r\n        IERC20(_token1ToZap).safeTransferFrom(msg.sender, address(this), _token1AmountIn);\r\n\r\n        // Call zapIn function\r\n        uint256 lpTokenAmountTransferred = _zapInRebalancing(\r\n            _token0ToZap,\r\n            _token1ToZap,\r\n            _token0AmountIn,\r\n            _token1AmountIn,\r\n            _lpToken,\r\n            _tokenAmountInMax,\r\n            _tokenAmountOutMin,\r\n            _isToken0Sold\r\n        );\r\n\r\n        // Emit event\r\n        emit ZapInRebalancing(\r\n            _token0ToZap,\r\n            _token1ToZap,\r\n            _lpToken,\r\n            _token0AmountIn,\r\n            _token1AmountIn,\r\n            lpTokenAmountTransferred,\r\n            msg.sender\r\n        );\r\n    }\r\n\r\n    /*\r\n     * @notice Zap 1 token and CORE, rebalance them to 50-50, before adding them to LP\r\n     * @param _token1ToZap: address of token1 to zap\r\n     * @param _token1AmountIn: amount of token1 to zap\r\n     * @param _lpToken: LP token address\r\n     * @param _tokenAmountInMax: maximum token amount to sell (in token to sell in the intermediary swap)\r\n     * @param _tokenAmountOutMin: minimum token to receive in the intermediary swap\r\n     * @param _isToken0Sold: whether token0 is expected to be sold (if false, sell token1)\r\n     */\r\n    function zapInBNBRebalancing(\r\n        address _token1ToZap,\r\n        uint256 _token1AmountIn,\r\n        address _lpToken,\r\n        uint256 _tokenAmountInMax,\r\n        uint256 _tokenAmountOutMin,\r\n        bool _isToken0Sold\r\n    ) external payable nonReentrant {\r\n        WCORE.deposit{value: msg.value}();\r\n\r\n        IERC20(_token1ToZap).safeTransferFrom(msg.sender, address(this), _token1AmountIn);\r\n\r\n        // Call zapIn function\r\n        uint256 lpTokenAmountTransferred = _zapInRebalancing(\r\n            WCOREAddress,\r\n            _token1ToZap,\r\n            msg.value,\r\n            _token1AmountIn,\r\n            _lpToken,\r\n            _tokenAmountInMax,\r\n            _tokenAmountOutMin,\r\n            _isToken0Sold\r\n        );\r\n\r\n        // Emit event\r\n        emit ZapInRebalancing(\r\n            address(0x0000000000000000000000000000000000000000),\r\n            _token1ToZap,\r\n            _lpToken,\r\n            msg.value,\r\n            _token1AmountIn,\r\n            lpTokenAmountTransferred,\r\n            msg.sender\r\n        );\r\n    }\r\n\r\n    /*\r\n     * @notice Zap a LP token out to receive CORE\r\n     * @param _lpToken: LP token address (e.g. SHDW/WCORE)\r\n     * @param _lpTokenAmount: amount of LP tokens to zap out\r\n     * @param _tokenAmountOutMin: minimum amount to receive (in CORE/WCORE) in the intermediary swap (e.g. SHDW --> CORE)\r\n     */\r\n    function zapOutBNB(\r\n        address _lpToken,\r\n        uint256 _lpTokenAmount,\r\n        uint256 _tokenAmountOutMin,\r\n        uint256 _totalTokenAmountOutMin\r\n    ) external nonReentrant {\r\n        // Transfer LP token to this address\r\n        IERC20(_lpToken).safeTransferFrom(msg.sender, address(_lpToken), _lpTokenAmount);\r\n\r\n        // Call zapOut\r\n        uint256 tokenAmountToTransfer = _zapOut(_lpToken, WCOREAddress, _tokenAmountOutMin, _totalTokenAmountOutMin);\r\n\r\n        // Unwrap CORE\r\n        WCORE.withdraw(tokenAmountToTransfer);\r\n\r\n        // Transfer CORE to the msg.sender\r\n        (bool success, ) = msg.sender.call{value: tokenAmountToTransfer}(new bytes(0));\r\n        require(success, \"CORE: transfer fail\");\r\n\r\n        // Emit event\r\n        emit ZapOut(\r\n            _lpToken,\r\n            address(0x0000000000000000000000000000000000000000),\r\n            _lpTokenAmount,\r\n            tokenAmountToTransfer,\r\n            msg.sender\r\n        );\r\n    }\r\n\r\n    /*\r\n     * @notice Zap a LP token out (to receive a token)\r\n     * @param _lpToken: LP token address (e.g. SHDW/BUSD)\r\n     * @param _tokenToReceive: one of the 2 tokens from the LP (e.g. SHDW or BUSD)\r\n     * @param _lpTokenAmount: amount of LP tokens to zap out\r\n     * @param _tokenAmountOutMin: minimum token to receive (e.g. SHDW) in the intermediary swap (e.g. BUSD --> SHDW)\r\n     */\r\n    function zapOutToken(\r\n        address _lpToken,\r\n        address _tokenToReceive,\r\n        uint256 _lpTokenAmount,\r\n        uint256 _tokenAmountOutMin,\r\n        uint256 _totalTokenAmountOutMin\r\n    ) external nonReentrant {\r\n        // Transfer LP token to this address\r\n        IERC20(_lpToken).safeTransferFrom(msg.sender, address(_lpToken), _lpTokenAmount);\r\n\r\n        uint256 tokenAmountToTransfer = _zapOut(_lpToken, _tokenToReceive, _tokenAmountOutMin, _totalTokenAmountOutMin);\r\n\r\n        IERC20(_tokenToReceive).safeTransfer(msg.sender, tokenAmountToTransfer);\r\n\r\n        emit ZapOut(_lpToken, _tokenToReceive, _lpTokenAmount, tokenAmountToTransfer, msg.sender);\r\n    }\r\n\r\n    /**\r\n     * @notice It allows the owner to change the risk parameter for quantities\r\n     * @param _maxZapInverseRatio: new inverse ratio\r\n     * @dev This function is only callable by owner.\r\n     */\r\n    function updateMaxZapInverseRatio(uint256 _maxZapInverseRatio) external onlyOwner {\r\n        maxZapReverseRatio = _maxZapInverseRatio;\r\n        emit NewMaxZapReverseRatio(_maxZapInverseRatio);\r\n    }\r\n\r\n    /**\r\n     * @notice It allows the owner to recover wrong tokens sent to the contract\r\n     * @param _tokenAddress: the address of the token to withdraw (18 decimals)\r\n     * @param _tokenAmount: the number of token amount to withdraw\r\n     * @dev This function is only callable by owner.\r\n     */\r\n    function recoverWrongTokens(address _tokenAddress, uint256 _tokenAmount) external onlyOwner {\r\n        IERC20(_tokenAddress).safeTransfer(msg.sender, _tokenAmount);\r\n        emit AdminTokenRecovery(_tokenAddress, _tokenAmount);\r\n    }\r\n\r\n    /*\r\n     * @notice View the details for single zap\r\n     * @dev Use WCORE for _tokenToZap (if CORE is the input)\r\n     * @param _tokenToZap: address of the token to zap\r\n     * @param _tokenAmountIn: amount of token to zap inputed\r\n     * @param _lpToken: address of the LP token\r\n     * @return swapAmountIn: amount that is expected to get swapped in intermediary swap\r\n     * @return swapAmountOut: amount that is expected to get received in intermediary swap\r\n     * @return swapTokenOut: token address of the token that is used in the intermediary swap\r\n     */\r\n    function estimateZapInSwap(\r\n        address _tokenToZap,\r\n        uint256 _tokenAmountIn,\r\n        address _lpToken\r\n    )\r\n        external\r\n        view\r\n        returns (\r\n            uint256 swapAmountIn,\r\n            uint256 swapAmountOut,\r\n            address swapTokenOut\r\n        )\r\n    {\r\n        address token0 = IShadowPair(_lpToken).token0();\r\n        address token1 = IShadowPair(_lpToken).token1();\r\n\r\n        require(_tokenToZap == token0 || _tokenToZap == token1, \"Zap: Wrong tokens\");\r\n\r\n        // Convert to uint256 (from uint112)\r\n        (uint256 reserveA, uint256 reserveB, ) = IShadowPair(_lpToken).getReserves();\r\n\r\n        if (token0 == _tokenToZap) {\r\n            swapTokenOut = token1;\r\n            swapAmountIn = _calculateAmountToSwap(_tokenAmountIn, reserveA, reserveB);\r\n            swapAmountOut = ShadowRouter.getAmountOut(swapAmountIn, reserveA, reserveB);\r\n        } else {\r\n            swapTokenOut = token0;\r\n            swapAmountIn = _calculateAmountToSwap(_tokenAmountIn, reserveB, reserveA);\r\n            swapAmountOut = ShadowRouter.getAmountOut(swapAmountIn, reserveB, reserveA);\r\n        }\r\n\r\n        return (swapAmountIn, swapAmountOut, swapTokenOut);\r\n    }\r\n\r\n    /*\r\n     * @notice View the details for a rebalancing zap\r\n     * @dev Use WCORE for _token0ToZap (if CORE is the input)\r\n     * @param _token0ToZap: address of the token0 to zap\r\n     * @param _token1ToZap: address of the token0 to zap\r\n     * @param _token0AmountIn: amount for token0 to zap\r\n     * @param _token1AmountIn: amount for token1 to zap\r\n     * @param _lpToken: address of the LP token\r\n     * @return swapAmountIn: amount that is expected to get swapped in intermediary swap\r\n     * @return swapAmountOut: amount that is expected to get received in intermediary swap\r\n     * @return isToken0Sold: whether the token0 is sold (false --> token1 is sold in the intermediary swap)\r\n     */\r\n    function estimateZapInRebalancingSwap(\r\n        address _token0ToZap,\r\n        address _token1ToZap,\r\n        uint256 _token0AmountIn,\r\n        uint256 _token1AmountIn,\r\n        address _lpToken\r\n    )\r\n        external\r\n        view\r\n        returns (\r\n            uint256 swapAmountIn,\r\n            uint256 swapAmountOut,\r\n            bool sellToken0\r\n        )\r\n    {\r\n        require(\r\n            _token0ToZap == IShadowPair(_lpToken).token0() || _token0ToZap == IShadowPair(_lpToken).token1(),\r\n            \"Zap: Wrong token0\"\r\n        );\r\n        require(\r\n            _token1ToZap == IShadowPair(_lpToken).token0() || _token1ToZap == IShadowPair(_lpToken).token1(),\r\n            \"Zap: Wrong token1\"\r\n        );\r\n\r\n        require(_token0ToZap != _token1ToZap, \"Zap: Same tokens\");\r\n\r\n        // Convert to uint256 (from uint112)\r\n        (uint256 reserveA, uint256 reserveB, ) = IShadowPair(_lpToken).getReserves();\r\n\r\n        if (_token0ToZap == IShadowPair(_lpToken).token0()) {\r\n            sellToken0 = (_token0AmountIn * reserveB > _token1AmountIn * reserveA) ? true : false;\r\n\r\n            // Calculate the amount that is expected to be swapped\r\n            swapAmountIn = _calculateAmountToSwapForRebalancing(\r\n                _token0AmountIn,\r\n                _token1AmountIn,\r\n                reserveA,\r\n                reserveB,\r\n                sellToken0\r\n            );\r\n\r\n            // Calculate the amount expected to be received in the intermediary swap\r\n            if (sellToken0) {\r\n                swapAmountOut = ShadowRouter.getAmountOut(swapAmountIn, reserveA, reserveB);\r\n            } else {\r\n                swapAmountOut = ShadowRouter.getAmountOut(swapAmountIn, reserveB, reserveA);\r\n            }\r\n        } else {\r\n            sellToken0 = (_token0AmountIn * reserveA > _token1AmountIn * reserveB) ? true : false;\r\n            // Calculate the amount that is expected to be swapped\r\n            swapAmountIn = _calculateAmountToSwapForRebalancing(\r\n                _token0AmountIn,\r\n                _token1AmountIn,\r\n                reserveB,\r\n                reserveA,\r\n                sellToken0\r\n            );\r\n\r\n            // Calculate the amount expected to be received in the intermediary swap\r\n            if (sellToken0) {\r\n                swapAmountOut = ShadowRouter.getAmountOut(swapAmountIn, reserveB, reserveA);\r\n            } else {\r\n                swapAmountOut = ShadowRouter.getAmountOut(swapAmountIn, reserveA, reserveB);\r\n            }\r\n        }\r\n\r\n        return (swapAmountIn, swapAmountOut, sellToken0);\r\n    }\r\n\r\n    /*\r\n     * @notice View the details for single zap\r\n     * @dev Use WCORE for _tokenToReceive (if CORE is the asset to be received)\r\n     * @param _lpToken: address of the LP token to zap out\r\n     * @param _lpTokenAmount: amount of LP token to zap out\r\n     * @param _tokenToReceive: token address to receive\r\n     * @return swapAmountIn: amount that is expected to get swapped for intermediary swap\r\n     * @return swapAmountOut: amount that is expected to get received for intermediary swap\r\n     * @return swapTokenOut: address of the token that is sold in the intermediary swap\r\n     */\r\n    function estimateZapOutSwap(\r\n        address _lpToken,\r\n        uint256 _lpTokenAmount,\r\n        address _tokenToReceive\r\n    )\r\n        external\r\n        view\r\n        returns (\r\n            uint256 swapAmountIn,\r\n            uint256 swapAmountOut,\r\n            address swapTokenOut\r\n        )\r\n    {\r\n        address token0 = IShadowPair(_lpToken).token0();\r\n        address token1 = IShadowPair(_lpToken).token1();\r\n\r\n        require(_tokenToReceive == token0 || _tokenToReceive == token1, \"Zap: Token not in LP\");\r\n\r\n        // Convert to uint256 (from uint112)\r\n        (uint256 reserveA, uint256 reserveB, ) = IShadowPair(_lpToken).getReserves();\r\n\r\n        if (token1 == _tokenToReceive) {\r\n            // sell token0\r\n            uint256 tokenAmountIn = (_lpTokenAmount * reserveA) / IShadowPair(_lpToken).totalSupply();\r\n\r\n            swapAmountIn = tokenAmountIn;\r\n            swapAmountOut = ShadowRouter.getAmountOut(swapAmountIn, reserveA, reserveB);\r\n\r\n            swapTokenOut = token0;\r\n        } else {\r\n            // sell token1\r\n            uint256 tokenAmountIn = (_lpTokenAmount * reserveB) / IShadowPair(_lpToken).totalSupply();\r\n\r\n            swapAmountIn = tokenAmountIn;\r\n            swapAmountOut = ShadowRouter.getAmountOut(swapAmountIn, reserveB, reserveA);\r\n\r\n            swapTokenOut = token1;\r\n        }\r\n\r\n        return (swapAmountIn, swapAmountOut, swapTokenOut);\r\n    }\r\n\r\n    /*\r\n     * @notice Zap a token in (e.g. token/other token)\r\n     * @param _tokenToZap: token to zap\r\n     * @param _tokenAmountIn: amount of token to swap\r\n     * @param _lpToken: LP token address\r\n     * @param _tokenAmountOutMin: minimum token to receive in the intermediary swap\r\n     */\r\n    function _zapIn(\r\n        address _tokenToZap,\r\n        uint256 _tokenAmountIn,\r\n        address _lpToken,\r\n        uint256 _tokenAmountOutMin\r\n    ) internal returns (uint256 lpTokenReceived) {\r\n        require(_tokenAmountIn >= MINIMUM_AMOUNT, \"Zap: Amount too low\");\r\n\r\n        address token0 = IShadowPair(_lpToken).token0();\r\n        address token1 = IShadowPair(_lpToken).token1();\r\n\r\n        require(_tokenToZap == token0 || _tokenToZap == token1, \"Zap: Wrong tokens\");\r\n\r\n        // Retrieve the path\r\n        address[] memory path = new address[](2);\r\n        path[0] = _tokenToZap;\r\n\r\n        // Initiates an estimation to swap\r\n        uint256 swapAmountIn;\r\n\r\n        {\r\n            // Convert to uint256 (from uint112)\r\n            (uint256 reserveA, uint256 reserveB, ) = IShadowPair(_lpToken).getReserves();\r\n\r\n            require((reserveA >= MINIMUM_AMOUNT) && (reserveB >= MINIMUM_AMOUNT), \"Zap: Reserves too low\");\r\n\r\n            if (token0 == _tokenToZap) {\r\n                swapAmountIn = _calculateAmountToSwap(_tokenAmountIn, reserveA, reserveB);\r\n                path[1] = token1;\r\n                require(reserveA / swapAmountIn >= maxZapReverseRatio, \"Zap: Quantity higher than limit\");\r\n            } else {\r\n                swapAmountIn = _calculateAmountToSwap(_tokenAmountIn, reserveB, reserveA);\r\n                path[1] = token0;\r\n                require(reserveB / swapAmountIn >= maxZapReverseRatio, \"Zap: Quantity higher than limit\");\r\n            }\r\n        }\r\n\r\n        // Approve token to zap if necessary\r\n        _approveTokenIfNeeded(_tokenToZap, swapAmountIn);\r\n\r\n        uint256[] memory swapedAmounts = ShadowRouter.swapExactTokensForTokens(\r\n            swapAmountIn,\r\n            _tokenAmountOutMin,\r\n            path,\r\n            address(this),\r\n            block.timestamp\r\n        );\r\n\r\n        // Approve other token if necessary\r\n        if (token0 == _tokenToZap) {\r\n            _approveTokenIfNeeded(token1, swapAmountIn);\r\n        } else {\r\n            _approveTokenIfNeeded(token0, swapAmountIn);\r\n        }\r\n\r\n        // Add liquidity and retrieve the amount of LP received by the sender\r\n        (, , lpTokenReceived) = ShadowRouter.addLiquidity(\r\n            path[0],\r\n            path[1],\r\n            _tokenAmountIn - swapedAmounts[0],\r\n            swapedAmounts[1],\r\n            1,\r\n            1,\r\n            msg.sender,\r\n            block.timestamp\r\n        );\r\n\r\n        return lpTokenReceived;\r\n    }\r\n\r\n    /*\r\n     * @notice Zap two tokens in, rebalance them to 50-50, before adding them to LP\r\n     * @param _token0ToZap: address of token0 to zap\r\n     * @param _token1ToZap: address of token1 to zap\r\n     * @param _token0AmountIn: amount of token0 to zap\r\n     * @param _token1AmountIn: amount of token1 to zap\r\n     * @param _lpToken: LP token address\r\n     * @param _tokenAmountInMax: maximum token amount to sell (in token to sell in the intermediary swap)\r\n     * @param _tokenAmountOutMin: minimum token to receive in the intermediary swap\r\n     * @param _isToken0Sold: whether token0 is expected to be sold (if false, sell token1)\r\n     */\r\n    function _zapInRebalancing(\r\n        address _token0ToZap,\r\n        address _token1ToZap,\r\n        uint256 _token0AmountIn,\r\n        uint256 _token1AmountIn,\r\n        address _lpToken,\r\n        uint256 _tokenAmountInMax,\r\n        uint256 _tokenAmountOutMin,\r\n        bool _isToken0Sold\r\n    ) internal returns (uint256 lpTokenReceived) {\r\n        require(\r\n            _token0ToZap == IShadowPair(_lpToken).token0() || _token0ToZap == IShadowPair(_lpToken).token1(),\r\n            \"Zap: Wrong token0\"\r\n        );\r\n        require(\r\n            _token1ToZap == IShadowPair(_lpToken).token0() || _token1ToZap == IShadowPair(_lpToken).token1(),\r\n            \"Zap: Wrong token1\"\r\n        );\r\n\r\n        require(_token0ToZap != _token1ToZap, \"Zap: Same tokens\");\r\n\r\n        // Initiates an estimation to swap\r\n        uint256 swapAmountIn;\r\n\r\n        {\r\n            // Convert to uint256 (from uint112)\r\n            (uint256 reserveA, uint256 reserveB, ) = IShadowPair(_lpToken).getReserves();\r\n\r\n            require((reserveA >= MINIMUM_AMOUNT) && (reserveB >= MINIMUM_AMOUNT), \"Zap: Reserves too low\");\r\n\r\n            if (_token0ToZap == IShadowPair(_lpToken).token0()) {\r\n                swapAmountIn = _calculateAmountToSwapForRebalancing(\r\n                    _token0AmountIn,\r\n                    _token1AmountIn,\r\n                    reserveA,\r\n                    reserveB,\r\n                    _isToken0Sold\r\n                );\r\n                require(reserveA / swapAmountIn >= maxZapReverseRatio, \"Zap: Quantity higher than limit\");\r\n            } else {\r\n                swapAmountIn = _calculateAmountToSwapForRebalancing(\r\n                    _token0AmountIn,\r\n                    _token1AmountIn,\r\n                    reserveB,\r\n                    reserveA,\r\n                    _isToken0Sold\r\n                );\r\n\r\n                require(reserveB / swapAmountIn >= maxZapReverseRatio, \"Zap: Quantity higher than limit\");\r\n            }\r\n        }\r\n\r\n        require(swapAmountIn <= _tokenAmountInMax, \"Zap: Amount to swap too high\");\r\n\r\n        address[] memory path = new address[](2);\r\n\r\n        // Define path for swapping and check whether to approve token to sell in intermediary swap\r\n        if (_isToken0Sold) {\r\n            path[0] = _token0ToZap;\r\n            path[1] = _token1ToZap;\r\n            _approveTokenIfNeeded(_token0ToZap, swapAmountIn);\r\n        } else {\r\n            path[0] = _token1ToZap;\r\n            path[1] = _token0ToZap;\r\n            _approveTokenIfNeeded(_token1ToZap, swapAmountIn);\r\n        }\r\n\r\n        // Execute the swap and retrieve quantity received\r\n        uint256[] memory swapedAmounts = ShadowRouter.swapExactTokensForTokens(\r\n            swapAmountIn,\r\n            _tokenAmountOutMin,\r\n            path,\r\n            address(this),\r\n            block.timestamp\r\n        );\r\n\r\n        // Check whether to approve other token and add liquidity to LP\r\n        if (_isToken0Sold) {\r\n            _approveTokenIfNeeded(_token1ToZap, swapAmountIn);\r\n\r\n            (, , lpTokenReceived) = ShadowRouter.addLiquidity(\r\n                path[0],\r\n                path[1],\r\n                (_token0AmountIn - swapedAmounts[0]),\r\n                (_token1AmountIn + swapedAmounts[1]),\r\n                1,\r\n                1,\r\n                msg.sender,\r\n                block.timestamp\r\n            );\r\n        } else {\r\n            _approveTokenIfNeeded(_token0ToZap, swapAmountIn);\r\n            (, , lpTokenReceived) = ShadowRouter.addLiquidity(\r\n                path[0],\r\n                path[1],\r\n                (_token1AmountIn - swapedAmounts[0]),\r\n                (_token0AmountIn + swapedAmounts[1]),\r\n                1,\r\n                1,\r\n                msg.sender,\r\n                block.timestamp\r\n            );\r\n        }\r\n\r\n        return lpTokenReceived;\r\n    }\r\n\r\n    /*\r\n     * @notice Zap a LP token out to a token (e.g. token/other token)\r\n     * @param _lpToken: LP token address\r\n     * @param _tokenToReceive: token address\r\n     * @param _tokenAmountOutMin: minimum token to receive in the intermediary swap\r\n     */\r\n    function _zapOut(\r\n        address _lpToken,\r\n        address _tokenToReceive,\r\n        uint256 _tokenAmountOutMin,\r\n        uint256 _totalTokenAmountOutMin\r\n    ) internal returns (uint256) {\r\n        address token0 = IShadowPair(_lpToken).token0();\r\n        address token1 = IShadowPair(_lpToken).token1();\r\n\r\n        require(_tokenToReceive == token0 || _tokenToReceive == token1, \"Zap: Token not in LP\");\r\n\r\n        // Burn all LP tokens to receive the two tokens to this address\r\n        (uint256 amount0, uint256 amount1) = IShadowPair(_lpToken).burn(address(this));\r\n\r\n        require(amount0 >= MINIMUM_AMOUNT, \"ShadowRouter: INSUFFICIENT_A_AMOUNT\");\r\n        require(amount1 >= MINIMUM_AMOUNT, \"ShadowRouter: INSUFFICIENT_B_AMOUNT\");\r\n\r\n        address[] memory path = new address[](2);\r\n        path[1] = _tokenToReceive;\r\n\r\n        uint256 swapAmountIn;\r\n\r\n        if (token0 == _tokenToReceive) {\r\n            path[0] = token1;\r\n            swapAmountIn = IERC20(token1).balanceOf(address(this));\r\n\r\n            // Approve token to sell if necessary\r\n            _approveTokenIfNeeded(token1, swapAmountIn);\r\n        } else {\r\n            path[0] = token0;\r\n            swapAmountIn = IERC20(token0).balanceOf(address(this));\r\n\r\n            // Approve token to sell if necessary\r\n            _approveTokenIfNeeded(token0, swapAmountIn);\r\n        }\r\n\r\n        // Swap tokens\r\n        ShadowRouter.swapExactTokensForTokens(swapAmountIn, _tokenAmountOutMin, path, address(this), block.timestamp);\r\n\r\n        // Return full balance for the token to receive by the sender\r\n        require(_totalTokenAmountOutMin < IERC20(_tokenToReceive).balanceOf(address(this)), \"amount is not enough\");\r\n        return IERC20(_tokenToReceive).balanceOf(address(this));\r\n    }\r\n\r\n    /*\r\n     * @notice Allows to zap a token in (e.g. token/other token)\r\n     * @param _token: token address\r\n     */\r\n    function _approveTokenIfNeeded(address _token, uint256 _swapAmountIn) private {\r\n        if (IERC20(_token).allowance(address(this), ShadowRouterAddress) < _swapAmountIn) {\r\n            // Reset to 0\r\n            IERC20(_token).safeApprove(ShadowRouterAddress, 0);\r\n            // Re-approve\r\n            IERC20(_token).safeApprove(ShadowRouterAddress, MAX_INT);\r\n        }\r\n    }\r\n\r\n    /*\r\n     * @notice Calculate the swap amount to get the price at 50/50 split\r\n     * @param _token0AmountIn: amount of token 0\r\n     * @param _reserve0: amount in reserve for token0\r\n     * @param _reserve1: amount in reserve for token1\r\n     * @return amountToSwap: swapped amount (in token0)\r\n     */\r\n    function _calculateAmountToSwap(\r\n        uint256 _token0AmountIn,\r\n        uint256 _reserve0,\r\n        uint256 _reserve1\r\n    ) private view returns (uint256 amountToSwap) {\r\n        uint256 halfToken0Amount = _token0AmountIn / 2;\r\n        uint256 nominator = ShadowRouter.getAmountOut(halfToken0Amount, _reserve0, _reserve1);\r\n        uint256 denominator = ShadowRouter.quote(\r\n            halfToken0Amount,\r\n            _reserve0 + halfToken0Amount,\r\n            _reserve1 - nominator\r\n        );\r\n\r\n        // Adjustment for price impact\r\n        amountToSwap =\r\n            _token0AmountIn -\r\n            Babylonian.sqrt((halfToken0Amount * halfToken0Amount * nominator) / denominator);\r\n\r\n        return amountToSwap;\r\n    }\r\n\r\n    /*\r\n     * @notice Calculate the amount to swap to get the tokens at a 50/50 split\r\n     * @param _token0AmountIn: amount of token 0\r\n     * @param _token1AmountIn: amount of token 1\r\n     * @param _reserve0: amount in reserve for token0\r\n     * @param _reserve1: amount in reserve for token1\r\n     * @param _isToken0Sold: whether token0 is expected to be sold (if false, sell token1)\r\n     * @return amountToSwap: swapped amount in token0 (if _isToken0Sold is true) or token1 (if _isToken0Sold is false)\r\n     */\r\n    function _calculateAmountToSwapForRebalancing(\r\n        uint256 _token0AmountIn,\r\n        uint256 _token1AmountIn,\r\n        uint256 _reserve0,\r\n        uint256 _reserve1,\r\n        bool _isToken0Sold\r\n    ) private view returns (uint256 amountToSwap) {\r\n        bool sellToken0 = (_token0AmountIn * _reserve1 > _token1AmountIn * _reserve0) ? true : false;\r\n\r\n        require(sellToken0 == _isToken0Sold, \"Zap: Wrong trade direction\");\r\n\r\n        if (sellToken0) {\r\n            uint256 token0AmountToSell = (_token0AmountIn - (_token1AmountIn * _reserve0) / _reserve1) / 2;\r\n            uint256 nominator = ShadowRouter.getAmountOut(token0AmountToSell, _reserve0, _reserve1);\r\n            uint256 denominator = ShadowRouter.quote(\r\n                token0AmountToSell,\r\n                _reserve0 + token0AmountToSell,\r\n                _reserve1 - nominator\r\n            );\r\n\r\n            // Calculate the amount to sell (in token0)\r\n            token0AmountToSell =\r\n                (_token0AmountIn - (_token1AmountIn * (_reserve0 + token0AmountToSell)) / (_reserve1 - nominator)) /\r\n                2;\r\n\r\n            // Adjustment for price impact\r\n            amountToSwap =\r\n                2 *\r\n                token0AmountToSell -\r\n                Babylonian.sqrt((token0AmountToSell * token0AmountToSell * nominator) / denominator);\r\n        } else {\r\n            uint256 token1AmountToSell = (_token1AmountIn - (_token0AmountIn * _reserve1) / _reserve0) / 2;\r\n            uint256 nominator = ShadowRouter.getAmountOut(token1AmountToSell, _reserve1, _reserve0);\r\n\r\n            uint256 denominator = ShadowRouter.quote(\r\n                token1AmountToSell,\r\n                _reserve1 + token1AmountToSell,\r\n                _reserve0 - nominator\r\n            );\r\n\r\n            // Calculate the amount to sell (in token1)\r\n            token1AmountToSell =\r\n                (_token1AmountIn - ((_token0AmountIn * (_reserve1 + token1AmountToSell)) / (_reserve0 - nominator))) /\r\n                2;\r\n\r\n            // Adjustment for price impact\r\n            amountToSwap =\r\n                2 *\r\n                token1AmountToSell -\r\n                Babylonian.sqrt((token1AmountToSell * token1AmountToSell * nominator) / denominator);\r\n        }\r\n\r\n        return amountToSwap;\r\n    }\r\n}",
  "sourcePath": "D:\\Other_Folder\\ANGGA\\NFT\\CLIENT\\MAS WIDI NEW\\NewVenosSmartContract\\contracts\\ShadowZapV1.sol",
  "compiler": {
    "name": "solc",
    "version": "0.8.4+commit.c7e474f2.Emscripten.clang"
  },
  "schemaVersion": "3.4.16",
  "updatedAt": "2023-10-12T10:22:08.157Z",
  "networkType": "ethereum",
  "devdoc": {
    "kind": "dev",
    "methods": {
      "owner()": {
        "details": "Returns the address of the current owner."
      },
      "recoverWrongTokens(address,uint256)": {
        "details": "This function is only callable by owner.",
        "params": {
          "_tokenAddress": ": the address of the token to withdraw (18 decimals)",
          "_tokenAmount": ": the number of token amount to withdraw"
        }
      },
      "renounceOwnership()": {
        "details": "Leaves the contract without owner. It will not be possible to call `onlyOwner` functions anymore. Can only be called by the current owner. NOTE: Renouncing ownership will leave the contract without an owner, thereby removing any functionality that is only available to the owner."
      },
      "transferOwnership(address)": {
        "details": "Transfers ownership of the contract to a new account (`newOwner`). Can only be called by the current owner."
      },
      "updateMaxZapInverseRatio(uint256)": {
        "details": "This function is only callable by owner.",
        "params": {
          "_maxZapInverseRatio": ": new inverse ratio"
        }
      }
    },
    "version": 1
  },
  "userdoc": {
    "kind": "user",
    "methods": {
      "recoverWrongTokens(address,uint256)": {
        "notice": "It allows the owner to recover wrong tokens sent to the contract"
      },
      "updateMaxZapInverseRatio(uint256)": {
        "notice": "It allows the owner to change the risk parameter for quantities"
      }
    },
    "version": 1
  }
}