{
  "contractName": "CakeFlexiblePool",
  "abi": [
    {
      "inputs": [
        {
          "internalType": "contract IERC20",
          "name": "_token",
          "type": "address"
        },
        {
          "internalType": "contract ICakePool",
          "name": "_cakePool",
          "type": "address"
        },
        {
          "internalType": "address",
          "name": "_admin",
          "type": "address"
        },
        {
          "internalType": "address",
          "name": "_treasury",
          "type": "address"
        }
      ],
      "stateMutability": "nonpayable",
      "type": "constructor"
    },
    {
      "anonymous": false,
      "inputs": [
        {
          "indexed": true,
          "internalType": "address",
          "name": "sender",
          "type": "address"
        },
        {
          "indexed": false,
          "internalType": "uint256",
          "name": "amount",
          "type": "uint256"
        },
        {
          "indexed": false,
          "internalType": "uint256",
          "name": "shares",
          "type": "uint256"
        }
      ],
      "name": "ChargePerformanceFee",
      "type": "event"
    },
    {
      "anonymous": false,
      "inputs": [
        {
          "indexed": true,
          "internalType": "address",
          "name": "sender",
          "type": "address"
        },
        {
          "indexed": false,
          "internalType": "uint256",
          "name": "amount",
          "type": "uint256"
        }
      ],
      "name": "ChargeWithdrawFee",
      "type": "event"
    },
    {
      "anonymous": false,
      "inputs": [
        {
          "indexed": true,
          "internalType": "address",
          "name": "sender",
          "type": "address"
        },
        {
          "indexed": false,
          "internalType": "uint256",
          "name": "amount",
          "type": "uint256"
        },
        {
          "indexed": false,
          "internalType": "uint256",
          "name": "shares",
          "type": "uint256"
        },
        {
          "indexed": false,
          "internalType": "uint256",
          "name": "lastDepositedTime",
          "type": "uint256"
        }
      ],
      "name": "DepositCake",
      "type": "event"
    },
    {
      "anonymous": false,
      "inputs": [
        {
          "indexed": false,
          "internalType": "address",
          "name": "admin",
          "type": "address"
        }
      ],
      "name": "NewAdmin",
      "type": "event"
    },
    {
      "anonymous": false,
      "inputs": [
        {
          "indexed": false,
          "internalType": "uint256",
          "name": "performanceFee",
          "type": "uint256"
        }
      ],
      "name": "NewPerformanceFee",
      "type": "event"
    },
    {
      "anonymous": false,
      "inputs": [
        {
          "indexed": false,
          "internalType": "address",
          "name": "treasury",
          "type": "address"
        }
      ],
      "name": "NewTreasury",
      "type": "event"
    },
    {
      "anonymous": false,
      "inputs": [
        {
          "indexed": false,
          "internalType": "uint256",
          "name": "withdrawAmountBooster",
          "type": "uint256"
        }
      ],
      "name": "NewWithdrawAmountBooster",
      "type": "event"
    },
    {
      "anonymous": false,
      "inputs": [
        {
          "indexed": false,
          "internalType": "uint256",
          "name": "withdrawFee",
          "type": "uint256"
        }
      ],
      "name": "NewWithdrawFee",
      "type": "event"
    },
    {
      "anonymous": false,
      "inputs": [
        {
          "indexed": false,
          "internalType": "uint256",
          "name": "withdrawFeePeriod",
          "type": "uint256"
        }
      ],
      "name": "NewWithdrawFeePeriod",
      "type": "event"
    },
    {
      "anonymous": false,
      "inputs": [
        {
          "indexed": true,
          "internalType": "address",
          "name": "previousOwner",
          "type": "address"
        },
        {
          "indexed": true,
          "internalType": "address",
          "name": "newOwner",
          "type": "address"
        }
      ],
      "name": "OwnershipTransferred",
      "type": "event"
    },
    {
      "anonymous": false,
      "inputs": [],
      "name": "Pause",
      "type": "event"
    },
    {
      "anonymous": false,
      "inputs": [
        {
          "indexed": false,
          "internalType": "address",
          "name": "account",
          "type": "address"
        }
      ],
      "name": "Paused",
      "type": "event"
    },
    {
      "anonymous": false,
      "inputs": [],
      "name": "Unpause",
      "type": "event"
    },
    {
      "anonymous": false,
      "inputs": [
        {
          "indexed": false,
          "internalType": "address",
          "name": "account",
          "type": "address"
        }
      ],
      "name": "Unpaused",
      "type": "event"
    },
    {
      "anonymous": false,
      "inputs": [
        {
          "indexed": true,
          "internalType": "address",
          "name": "sender",
          "type": "address"
        },
        {
          "indexed": false,
          "internalType": "uint256",
          "name": "amount",
          "type": "uint256"
        },
        {
          "indexed": false,
          "internalType": "uint256",
          "name": "shares",
          "type": "uint256"
        }
      ],
      "name": "WithdrawShares",
      "type": "event"
    },
    {
      "inputs": [],
      "name": "MAX_PERFORMANCE_FEE",
      "outputs": [
        {
          "internalType": "uint256",
          "name": "",
          "type": "uint256"
        }
      ],
      "stateMutability": "view",
      "type": "function",
      "constant": true
    },
    {
      "inputs": [],
      "name": "MAX_WITHDRAW_AMOUNT_BOOSTER",
      "outputs": [
        {
          "internalType": "uint256",
          "name": "",
          "type": "uint256"
        }
      ],
      "stateMutability": "view",
      "type": "function",
      "constant": true
    },
    {
      "inputs": [],
      "name": "MAX_WITHDRAW_FEE",
      "outputs": [
        {
          "internalType": "uint256",
          "name": "",
          "type": "uint256"
        }
      ],
      "stateMutability": "view",
      "type": "function",
      "constant": true
    },
    {
      "inputs": [],
      "name": "MAX_WITHDRAW_FEE_PERIOD",
      "outputs": [
        {
          "internalType": "uint256",
          "name": "",
          "type": "uint256"
        }
      ],
      "stateMutability": "view",
      "type": "function",
      "constant": true
    },
    {
      "inputs": [],
      "name": "MIN_DEPOSIT_AMOUNT",
      "outputs": [
        {
          "internalType": "uint256",
          "name": "",
          "type": "uint256"
        }
      ],
      "stateMutability": "view",
      "type": "function",
      "constant": true
    },
    {
      "inputs": [],
      "name": "MIN_WITHDRAW_AMOUNT",
      "outputs": [
        {
          "internalType": "uint256",
          "name": "",
          "type": "uint256"
        }
      ],
      "stateMutability": "view",
      "type": "function",
      "constant": true
    },
    {
      "inputs": [],
      "name": "MIN_WITHDRAW_AMOUNT_BOOSTER",
      "outputs": [
        {
          "internalType": "uint256",
          "name": "",
          "type": "uint256"
        }
      ],
      "stateMutability": "view",
      "type": "function",
      "constant": true
    },
    {
      "inputs": [],
      "name": "admin",
      "outputs": [
        {
          "internalType": "address",
          "name": "",
          "type": "address"
        }
      ],
      "stateMutability": "view",
      "type": "function",
      "constant": true
    },
    {
      "inputs": [],
      "name": "cakePool",
      "outputs": [
        {
          "internalType": "contract ICakePool",
          "name": "",
          "type": "address"
        }
      ],
      "stateMutability": "view",
      "type": "function",
      "constant": true
    },
    {
      "inputs": [],
      "name": "owner",
      "outputs": [
        {
          "internalType": "address",
          "name": "",
          "type": "address"
        }
      ],
      "stateMutability": "view",
      "type": "function",
      "constant": true
    },
    {
      "inputs": [],
      "name": "paused",
      "outputs": [
        {
          "internalType": "bool",
          "name": "",
          "type": "bool"
        }
      ],
      "stateMutability": "view",
      "type": "function",
      "constant": true
    },
    {
      "inputs": [],
      "name": "performanceFee",
      "outputs": [
        {
          "internalType": "uint256",
          "name": "",
          "type": "uint256"
        }
      ],
      "stateMutability": "view",
      "type": "function",
      "constant": true
    },
    {
      "inputs": [],
      "name": "renounceOwnership",
      "outputs": [],
      "stateMutability": "nonpayable",
      "type": "function"
    },
    {
      "inputs": [],
      "name": "staking",
      "outputs": [
        {
          "internalType": "bool",
          "name": "",
          "type": "bool"
        }
      ],
      "stateMutability": "view",
      "type": "function",
      "constant": true
    },
    {
      "inputs": [],
      "name": "token",
      "outputs": [
        {
          "internalType": "contract IERC20",
          "name": "",
          "type": "address"
        }
      ],
      "stateMutability": "view",
      "type": "function",
      "constant": true
    },
    {
      "inputs": [],
      "name": "totalShares",
      "outputs": [
        {
          "internalType": "uint256",
          "name": "",
          "type": "uint256"
        }
      ],
      "stateMutability": "view",
      "type": "function",
      "constant": true
    },
    {
      "inputs": [
        {
          "internalType": "address",
          "name": "newOwner",
          "type": "address"
        }
      ],
      "name": "transferOwnership",
      "outputs": [],
      "stateMutability": "nonpayable",
      "type": "function"
    },
    {
      "inputs": [],
      "name": "treasury",
      "outputs": [
        {
          "internalType": "address",
          "name": "",
          "type": "address"
        }
      ],
      "stateMutability": "view",
      "type": "function",
      "constant": true
    },
    {
      "inputs": [
        {
          "internalType": "address",
          "name": "",
          "type": "address"
        }
      ],
      "name": "userInfo",
      "outputs": [
        {
          "internalType": "uint256",
          "name": "shares",
          "type": "uint256"
        },
        {
          "internalType": "uint256",
          "name": "lastDepositedTime",
          "type": "uint256"
        },
        {
          "internalType": "uint256",
          "name": "cakeAtLastUserAction",
          "type": "uint256"
        },
        {
          "internalType": "uint256",
          "name": "lastUserActionTime",
          "type": "uint256"
        }
      ],
      "stateMutability": "view",
      "type": "function",
      "constant": true
    },
    {
      "inputs": [],
      "name": "withdrawAmountBooster",
      "outputs": [
        {
          "internalType": "uint256",
          "name": "",
          "type": "uint256"
        }
      ],
      "stateMutability": "view",
      "type": "function",
      "constant": true
    },
    {
      "inputs": [],
      "name": "withdrawFee",
      "outputs": [
        {
          "internalType": "uint256",
          "name": "",
          "type": "uint256"
        }
      ],
      "stateMutability": "view",
      "type": "function",
      "constant": true
    },
    {
      "inputs": [],
      "name": "withdrawFeePeriod",
      "outputs": [
        {
          "internalType": "uint256",
          "name": "",
          "type": "uint256"
        }
      ],
      "stateMutability": "view",
      "type": "function",
      "constant": true
    },
    {
      "inputs": [
        {
          "internalType": "uint256",
          "name": "_amount",
          "type": "uint256"
        }
      ],
      "name": "deposit",
      "outputs": [],
      "stateMutability": "nonpayable",
      "type": "function"
    },
    {
      "inputs": [
        {
          "internalType": "uint256",
          "name": "_shares",
          "type": "uint256"
        }
      ],
      "name": "withdraw",
      "outputs": [],
      "stateMutability": "nonpayable",
      "type": "function"
    },
    {
      "inputs": [],
      "name": "withdrawAll",
      "outputs": [],
      "stateMutability": "nonpayable",
      "type": "function"
    },
    {
      "inputs": [
        {
          "internalType": "address",
          "name": "_admin",
          "type": "address"
        }
      ],
      "name": "setAdmin",
      "outputs": [],
      "stateMutability": "nonpayable",
      "type": "function"
    },
    {
      "inputs": [
        {
          "internalType": "address",
          "name": "_treasury",
          "type": "address"
        }
      ],
      "name": "setTreasury",
      "outputs": [],
      "stateMutability": "nonpayable",
      "type": "function"
    },
    {
      "inputs": [
        {
          "internalType": "uint256",
          "name": "_performanceFee",
          "type": "uint256"
        }
      ],
      "name": "setPerformanceFee",
      "outputs": [],
      "stateMutability": "nonpayable",
      "type": "function"
    },
    {
      "inputs": [
        {
          "internalType": "uint256",
          "name": "_withdrawFee",
          "type": "uint256"
        }
      ],
      "name": "setWithdrawFee",
      "outputs": [],
      "stateMutability": "nonpayable",
      "type": "function"
    },
    {
      "inputs": [
        {
          "internalType": "uint256",
          "name": "_withdrawFeePeriod",
          "type": "uint256"
        }
      ],
      "name": "setWithdrawFeePeriod",
      "outputs": [],
      "stateMutability": "nonpayable",
      "type": "function"
    },
    {
      "inputs": [
        {
          "internalType": "uint256",
          "name": "_withdrawAmountBooster",
          "type": "uint256"
        }
      ],
      "name": "setWithdrawAmountBooster",
      "outputs": [],
      "stateMutability": "nonpayable",
      "type": "function"
    },
    {
      "inputs": [],
      "name": "emergencyWithdraw",
      "outputs": [],
      "stateMutability": "nonpayable",
      "type": "function"
    },
    {
      "inputs": [
        {
          "internalType": "address",
          "name": "_token",
          "type": "address"
        }
      ],
      "name": "inCaseTokensGetStuck",
      "outputs": [],
      "stateMutability": "nonpayable",
      "type": "function"
    },
    {
      "inputs": [],
      "name": "pause",
      "outputs": [],
      "stateMutability": "nonpayable",
      "type": "function"
    },
    {
      "inputs": [],
      "name": "unpause",
      "outputs": [],
      "stateMutability": "nonpayable",
      "type": "function"
    },
    {
      "inputs": [],
      "name": "getPricePerFullShare",
      "outputs": [
        {
          "internalType": "uint256",
          "name": "",
          "type": "uint256"
        }
      ],
      "stateMutability": "view",
      "type": "function",
      "constant": true
    },
    {
      "inputs": [],
      "name": "available",
      "outputs": [
        {
          "internalType": "uint256",
          "name": "",
          "type": "uint256"
        }
      ],
      "stateMutability": "view",
      "type": "function",
      "constant": true
    },
    {
      "inputs": [],
      "name": "balanceOf",
      "outputs": [
        {
          "internalType": "uint256",
          "name": "",
          "type": "uint256"
        }
      ],
      "stateMutability": "view",
      "type": "function",
      "constant": true
    }
  ],
  "bytecode": "0x60c06040526004805460ff60a01b1916600160a01b17905561271160055560c8600655600a6007556203f4806008553480156200003b57600080fd5b506040516200344b3803806200344b8339810160408190526200005e9162000508565b6200006933620000d9565b6000805460ff60a01b191690556001600160a01b03848116608081905284821660a052600380546001600160a01b0319908116868516179091556004805490911692841692909217909155620000cf908460001962000129602090811b6200217417901c565b5050505062000634565b600080546001600160a01b038381166001600160a01b0319831681178455604051919092169283917f8be0079c531659141344cd1fd0a4f28419497f9722a3daafe3b4186f6b6457e09190a35050565b801580620001a75750604051636eb1769f60e11b81523060048201526001600160a01b03838116602483015284169063dd62ed3e90604401602060405180830381865afa1580156200017f573d6000803e3d6000fd5b505050506040513d601f19601f82011682018060405250810190620001a5919062000570565b155b6200021f5760405162461bcd60e51b815260206004820152603660248201527f5361666545524332303a20617070726f76652066726f6d206e6f6e2d7a65726f60448201527f20746f206e6f6e2d7a65726f20616c6c6f77616e63650000000000000000000060648201526084015b60405180910390fd5b604080516001600160a01b038416602482015260448082018490528251808303909101815260649091019091526020810180516001600160e01b0390811663095ea7b360e01b17909152620002779185916200027c16565b505050565b6000620002d8826040518060400160405280602081526020017f5361666545524332303a206c6f772d6c6576656c2063616c6c206661696c6564815250856001600160a01b03166200035a60201b62002379179092919060201c565b805190915015620002775780806020019051810190620002f991906200058a565b620002775760405162461bcd60e51b815260206004820152602a60248201527f5361666545524332303a204552433230206f7065726174696f6e20646964206e6044820152691bdd081cdd58d8d9595960b21b606482015260840162000216565b60606200036b848460008562000375565b90505b9392505050565b606082471015620003d85760405162461bcd60e51b815260206004820152602660248201527f416464726573733a20696e73756666696369656e742062616c616e636520666f6044820152651c8818d85b1b60d21b606482015260840162000216565b6001600160a01b0385163b620004315760405162461bcd60e51b815260206004820152601d60248201527f416464726573733a2063616c6c20746f206e6f6e2d636f6e7472616374000000604482015260640162000216565b600080866001600160a01b031685876040516200044f9190620005e1565b60006040518083038185875af1925050503d80600081146200048e576040519150601f19603f3d011682016040523d82523d6000602084013e62000493565b606091505b509092509050620004a6828286620004b1565b979650505050505050565b60608315620004c25750816200036e565b825115620004d35782518084602001fd5b8160405162461bcd60e51b8152600401620002169190620005ff565b6001600160a01b03811681146200050557600080fd5b50565b600080600080608085870312156200051f57600080fd5b84516200052c81620004ef565b60208601519094506200053f81620004ef565b60408601519093506200055281620004ef565b60608601519092506200056581620004ef565b939692955090935050565b6000602082840312156200058357600080fd5b5051919050565b6000602082840312156200059d57600080fd5b815180151581146200036e57600080fd5b60005b83811015620005cb578181015183820152602001620005b1565b83811115620005db576000848401525b50505050565b60008251620005f5818460208701620005ae565b9190910192915050565b602081526000825180602084015262000620816040850160208701620005ae565b601f01601f19169190910160400192915050565b60805160a051612d8f620006bc60003960008181610502015281816109850152818161102c015281816110a6015281816118fd01528181611d52015261277901526000818161056f01528181610a8f01528181610b7001528181610d0b01528181611180015281816119ad01528181611a3c01528181611a880152611e340152612d8f6000f3fe608060405234801561001057600080fd5b50600436106102925760003560e01c8063853828b611610160578063d4b0de2f116100d8578063ed64a9671161008c578063f2fde38b11610071578063f2fde38b14610537578063f851a4401461054a578063fc0c546a1461056a57600080fd5b8063ed64a967146104fd578063f0f442601461052457600080fd5b8063def68a9c116100bd578063def68a9c146104d8578063df10b4e6146104eb578063e941fa78146104f457600080fd5b8063d4b0de2f146104c7578063db2e21bc146104d057600080fd5b80638dd313661161012f578063b6ac642a11610114578063b6ac642a14610498578063b6b55f25146104ab578063bdca9165146104be57600080fd5b80638dd3136614610485578063b68578441461030957600080fd5b8063853828b61461044d57806387788782146104555780638a180eea1461045e5780638da5cb5b1461046757600080fd5b80634cf088d91161020e578063715018a6116101c257806377c7b8fc116101a757806377c7b8fc1461043457806382dba6421461043c5780638456cb591461044557600080fd5b8063715018a614610424578063722713f71461042c57600080fd5b806361d027b3116101f357806361d027b3146103b9578063704b6c02146103fe57806370897b231461041157600080fd5b80634cf088d9146103615780635c975abb1461039657600080fd5b80632cfc5f01116102655780633a98ef391161024a5780633a98ef39146103485780633f4ba83a1461035157806348a0d7541461035957600080fd5b80632cfc5f011461032b5780632e1a7d4d1461033557600080fd5b806314c9253e146102975780631959a002146102b35780631ea30fef146103095780631efac1b814610316575b600080fd5b6102a060055481565b6040519081526020015b60405180910390f35b6102e96102c1366004612ae2565b6001602081905260009182526040909120805491810154600282015460039092015490919084565b6040805194855260208501939093529183015260608201526080016102aa565b6102a06509184e72a00081565b610329610324366004612b18565b610591565b005b6102a062093a8081565b610329610343366004612b18565b6106e6565b6102a060025481565b610329610c1e565b6102a0610cda565b6004546103869074010000000000000000000000000000000000000000900460ff1681565b60405190151581526020016102aa565b60005474010000000000000000000000000000000000000000900460ff16610386565b6004546103d99073ffffffffffffffffffffffffffffffffffffffff1681565b60405173ffffffffffffffffffffffffffffffffffffffff90911681526020016102aa565b61032961040c366004612ae2565b610d90565b61032961041f366004612b18565b610e88565b610329610fd0565b6102a0610fe4565b6102a0611211565b6102a061271081565b610329611251565b61032961130d565b6102a060065481565b6102a061271a81565b60005473ffffffffffffffffffffffffffffffffffffffff166103d9565b610329610493366004612b18565b611326565b6103296104a6366004612b18565b61154c565b6103296104b9366004612b18565b611694565b6102a06107d081565b6102a06101f481565b610329611be5565b6103296104e6366004612ae2565b611db1565b6102a060085481565b6102a060075481565b6103d97f000000000000000000000000000000000000000000000000000000000000000081565b610329610532366004612ae2565b611fc5565b610329610545366004612ae2565b6120bd565b6003546103d99073ffffffffffffffffffffffffffffffffffffffff1681565b6103d97f000000000000000000000000000000000000000000000000000000000000000081565b60035473ffffffffffffffffffffffffffffffffffffffff163314610617576040517f08c379a000000000000000000000000000000000000000000000000000000000815260206004820152600b60248201527f61646d696e3a207775743f00000000000000000000000000000000000000000060448201526064015b60405180910390fd5b62093a808111156106aa576040517f08c379a000000000000000000000000000000000000000000000000000000000815260206004820152603d60248201527f7769746864726177466565506572696f642063616e6e6f74206265206d6f726560448201527f207468616e204d41585f57495448445241575f4645455f504552494f44000000606482015260840161060e565b60088190556040518181527fb89ddaddb7435be26824cb48d2d0186c9525a2e1ec057abcb502704cdc0686cc906020015b60405180910390a150565b3360009081526001602052604090208161075c576040517f08c379a000000000000000000000000000000000000000000000000000000000815260206004820152601360248201527f4e6f7468696e6720746f20776974686472617700000000000000000000000000604482015260640161060e565b80548211156107c7576040517f08c379a000000000000000000000000000000000000000000000000000000000815260206004820152601f60248201527f576974686472617720616d6f756e7420657863656564732062616c616e636500604482015260640161060e565b60006002546107d4610fe4565b83546107e09190612b60565b6107ea9190612b9d565b905060008260020154826107fe9190612bd8565b9050600080821561087a576127106006548461081a9190612b60565b6108249190612b9d565b915061082e610fe4565b60025461083b9084612b60565b6108459190612b9d565b90508085600001600082825461085b9190612bd8565b9250508190555080600260008282546108749190612bd8565b90915550505b845486111561088857845495505b600060025483610896610fe4565b6108a09190612bd8565b6108aa9089612b60565b6108b49190612b9d565b9050868660000160008282546108ca9190612bd8565b9250508190555086600260008282546108e39190612bd8565b90915550600090506108f58483612bef565b60045490915074010000000000000000000000000000000000000000900460ff16156109f7576509184e72a000811061092e5780610936565b6509184e72a0005b9050612710600554826109499190612b60565b6109539190612b9d565b6040517f5521e9bf000000000000000000000000000000000000000000000000000000008152600481018290529091507f000000000000000000000000000000000000000000000000000000000000000073ffffffffffffffffffffffffffffffffffffffff1690635521e9bf90602401600060405180830381600087803b1580156109de57600080fd5b505af11580156109f2573d6000803e3d6000fd5b505050505b60006008548860010154610a0b9190612bef565b421015610a3c5761271060075484610a239190612b60565b610a2d9190612b9d565b9050610a398184612bd8565b92505b6000610a488287612bef565b90508015610b365780610a59610cda565b1015610a6c57610a67610cda565b610a6e565b805b600454909150610ab89073ffffffffffffffffffffffffffffffffffffffff7f00000000000000000000000000000000000000000000000000000000000000008116911683612392565b8515610afa57604080518781526020810187905233917fba099d38a7da8262f6dc89809a028ddb51ce1f8fe4d9c7554ef909078f6e10c9910160405180910390a25b8115610b365760405182815233907ff4451cbaeb1fedd1db1eed585be4980b066afa1fa1c2a59f361ca67191e9695a9060200160405180910390a25b83610b3f610cda565b1015610b5257610b4d610cda565b610b54565b835b9350610b9773ffffffffffffffffffffffffffffffffffffffff7f0000000000000000000000000000000000000000000000000000000000000000163386612392565b885415610bc957600254610ba9610fe4565b8a54610bb59190612b60565b610bbf9190612b9d565b60028a0155610bd1565b600060028a01555b4260038a015560408051858152602081018c905233917fb605f60b5ff13848ba5a9234329676801d97e41362092b50014cad41fb2b7bfc910160405180910390a250505050505050505050565b60035473ffffffffffffffffffffffffffffffffffffffff163314610c9f576040517f08c379a000000000000000000000000000000000000000000000000000000000815260206004820152600b60248201527f61646d696e3a207775743f000000000000000000000000000000000000000000604482015260640161060e565b610ca76123e8565b610caf61246c565b6040517f7805862f689e2f13df9f062ff482ad3ad112aca9e0847911ed832e158c525b3390600090a1565b6040517f70a082310000000000000000000000000000000000000000000000000000000081523060048201526000907f000000000000000000000000000000000000000000000000000000000000000073ffffffffffffffffffffffffffffffffffffffff16906370a0823190602401602060405180830381865afa158015610d67573d6000803e3d6000fd5b505050506040513d601f19601f82011682018060405250810190610d8b9190612c07565b905090565b610d986124e9565b73ffffffffffffffffffffffffffffffffffffffff8116610e15576040517f08c379a000000000000000000000000000000000000000000000000000000000815260206004820152601660248201527f43616e6e6f74206265207a65726f206164647265737300000000000000000000604482015260640161060e565b600380547fffffffffffffffffffffffff00000000000000000000000000000000000000001673ffffffffffffffffffffffffffffffffffffffff83169081179091556040519081527f71614071b88dee5e0b2ae578a9dd7b2ebbe9ae832ba419dc0242cd065a290b6c906020016106db565b60035473ffffffffffffffffffffffffffffffffffffffff163314610f09576040517f08c379a000000000000000000000000000000000000000000000000000000000815260206004820152600b60248201527f61646d696e3a207775743f000000000000000000000000000000000000000000604482015260640161060e565b6107d0811115610f9b576040517f08c379a000000000000000000000000000000000000000000000000000000000815260206004820152603660248201527f706572666f726d616e63654665652063616e6e6f74206265206d6f726520746860448201527f616e204d41585f504552464f524d414e43455f46454500000000000000000000606482015260840161060e565b60068190556040518181527fefeafcf03e479a9566d7ef321b4816de0ba19cfa3cd0fae2f8c5f4a0afb342c4906020016106db565b610fd86124e9565b610fe2600061256a565b565b6040517f1959a002000000000000000000000000000000000000000000000000000000008152306004820152600090819073ffffffffffffffffffffffffffffffffffffffff7f00000000000000000000000000000000000000000000000000000000000000001690631959a0029060240161012060405180830381865afa158015611074573d6000803e3d6000fd5b505050506040513d601f19601f820116820180604052508101906110989190612c35565b5050505050505050905060007f000000000000000000000000000000000000000000000000000000000000000073ffffffffffffffffffffffffffffffffffffffff166377c7b8fc6040518163ffffffff1660e01b8152600401602060405180830381865afa15801561110f573d6000803e3d6000fd5b505050506040513d601f19601f820116820180604052508101906111339190612c07565b9050670de0b6b3a76400006111488284612b60565b6111529190612b9d565b6040517f70a082310000000000000000000000000000000000000000000000000000000081523060048201527f000000000000000000000000000000000000000000000000000000000000000073ffffffffffffffffffffffffffffffffffffffff16906370a0823190602401602060405180830381865afa1580156111dc573d6000803e3d6000fd5b505050506040513d601f19601f820116820180604052508101906112009190612c07565b61120a9190612bef565b9250505090565b600060025460001461124457600254611228610fe4565b61123a90670de0b6b3a7640000612b60565b610d8b9190612b9d565b50670de0b6b3a764000090565b60035473ffffffffffffffffffffffffffffffffffffffff1633146112d2576040517f08c379a000000000000000000000000000000000000000000000000000000000815260206004820152600b60248201527f61646d696e3a207775743f000000000000000000000000000000000000000000604482015260640161060e565b6112da6125df565b6112e2612664565b6040517f6985a02210a168e66602d3235cb6db0e70f92b3ba4d376a33c0f3d9434bff62590600090a1565b33600090815260016020526040902054610fe2906106e6565b60035473ffffffffffffffffffffffffffffffffffffffff1633146113a7576040517f08c379a000000000000000000000000000000000000000000000000000000000815260206004820152600b60248201527f61646d696e3a207775743f000000000000000000000000000000000000000000604482015260640161060e565b61271081101561145f576040517f08c379a000000000000000000000000000000000000000000000000000000000815260206004820152604560248201527f7769746864726177416d6f756e74426f6f737465722063616e6e6f742062652060448201527f6c657373207468616e204d494e5f57495448445241575f414d4f554e545f424f60648201527f4f53544552000000000000000000000000000000000000000000000000000000608482015260a40161060e565b61271a811115611517576040517f08c379a000000000000000000000000000000000000000000000000000000000815260206004820152604560248201527f7769746864726177416d6f756e74426f6f737465722063616e6e6f742062652060448201527f6d6f7265207468616e204d41585f57495448445241575f414d4f554e545f424f60648201527f4f53544552000000000000000000000000000000000000000000000000000000608482015260a40161060e565b60058190556040518181527f6029d76ffeb0d7684607fa1164412e907a5fcb0849976856b2f98f0ae49fb457906020016106db565b60035473ffffffffffffffffffffffffffffffffffffffff1633146115cd576040517f08c379a000000000000000000000000000000000000000000000000000000000815260206004820152600b60248201527f61646d696e3a207775743f000000000000000000000000000000000000000000604482015260640161060e565b6101f481111561165f576040517f08c379a000000000000000000000000000000000000000000000000000000000815260206004820152603060248201527f77697468647261774665652063616e6e6f74206265206d6f7265207468616e2060448201527f4d41585f57495448445241575f46454500000000000000000000000000000000606482015260840161060e565b60078190556040518181527fd5fe46099fa396290a7f57e36c3c3c8774e2562c18ed5d1dcc0fa75071e03f1d906020016106db565b61169c6125df565b60045474010000000000000000000000000000000000000000900460ff16611720576040517f08c379a000000000000000000000000000000000000000000000000000000000815260206004820152601460248201527f4e6f7420616c6c6f77656420746f207374616b65000000000000000000000000604482015260640161060e565b6509184e72a00081116117b5576040517f08c379a000000000000000000000000000000000000000000000000000000000815260206004820152603660248201527f4465706f73697420616d6f756e74206d7573742062652067726561746572207460448201527f68616e204d494e5f4445504f5349545f414d4f554e5400000000000000000000606482015260840161060e565b33600090815260016020526040812080549091908190819015611a165760006002546117df610fe4565b86546117eb9190612b60565b6117f59190612b9d565b905060008560020154826118099190612bd8565b90506127106006548261181c9190612b60565b6118269190612b9d565b93508315611a1357611836610fe4565b6002546118439086612b60565b61184d9190612b9d565b9250828660000160008282546118639190612bd8565b92505081905550826002600082825461187c9190612bd8565b90915550508387106118915760019450611a13565b60006509184e72a00085106118a657846118ae565b6509184e72a0005b9050612710600554826118c19190612b60565b6118cb9190612b9d565b6040517f5521e9bf000000000000000000000000000000000000000000000000000000008152600481018290529091507f000000000000000000000000000000000000000000000000000000000000000073ffffffffffffffffffffffffffffffffffffffff1690635521e9bf90602401600060405180830381600087803b15801561195657600080fd5b505af115801561196a573d6000803e3d6000fd5b5050505084611977610cda565b101561198a57611985610cda565b61198c565b845b6004549095506119d69073ffffffffffffffffffffffffffffffffffffffff7f00000000000000000000000000000000000000000000000000000000000000008116911687612392565b604080518681526020810186905233917fba099d38a7da8262f6dc89809a028ddb51ce1f8fe4d9c7554ef909078f6e10c9910160405180910390a2505b50505b6000611a20610fe4565b9050611a6473ffffffffffffffffffffffffffffffffffffffff7f0000000000000000000000000000000000000000000000000000000000000000163330896126d3565b8315611af957600454611ab19073ffffffffffffffffffffffffffffffffffffffff7f00000000000000000000000000000000000000000000000000000000000000008116911685612392565b604080518481526020810184905233917fba099d38a7da8262f6dc89809a028ddb51ce1f8fe4d9c7554ef909078f6e10c9910160405180910390a2611af68382612bd8565b90505b6000600254600014611b25578160025488611b149190612b60565b611b1e9190612b9d565b9050611b28565b50855b80866000016000828254611b3c9190612bef565b909155505042600187015560028054829190600090611b5c908490612bef565b90915550611b6a9050612731565b600254611b75610fe4565b8754611b819190612b60565b611b8b9190612b9d565b6002870155426003870181905560408051898152602081018490529081019190915233907f269e310e936abd6c2408df165913683c9c53eef830fe562f699fd50c3b860c069060600160405180910390a250505050505050565b60035473ffffffffffffffffffffffffffffffffffffffff163314611c66576040517f08c379a000000000000000000000000000000000000000000000000000000000815260206004820152600b60248201527f61646d696e3a207775743f000000000000000000000000000000000000000000604482015260640161060e565b60045474010000000000000000000000000000000000000000900460ff16611cea576040517f08c379a000000000000000000000000000000000000000000000000000000000815260206004820152600f60248201527f4e6f207374616b696e672063616b650000000000000000000000000000000000604482015260640161060e565b600480547fffffffffffffffffffffff00ffffffffffffffffffffffffffffffffffffffff168155604080517f853828b6000000000000000000000000000000000000000000000000000000008152905173ffffffffffffffffffffffffffffffffffffffff7f0000000000000000000000000000000000000000000000000000000000000000169263853828b69280820192600092909182900301818387803b158015611d9757600080fd5b505af1158015611dab573d6000803e3d6000fd5b50505050565b60035473ffffffffffffffffffffffffffffffffffffffff163314611e32576040517f08c379a000000000000000000000000000000000000000000000000000000000815260206004820152600b60248201527f61646d696e3a207775743f000000000000000000000000000000000000000000604482015260640161060e565b7f000000000000000000000000000000000000000000000000000000000000000073ffffffffffffffffffffffffffffffffffffffff168173ffffffffffffffffffffffffffffffffffffffff1603611f0d576040517f08c379a000000000000000000000000000000000000000000000000000000000815260206004820152602560248201527f546f6b656e2063616e6e6f742062652073616d65206173206465706f7369742060448201527f746f6b656e000000000000000000000000000000000000000000000000000000606482015260840161060e565b6040517f70a0823100000000000000000000000000000000000000000000000000000000815230600482015260009073ffffffffffffffffffffffffffffffffffffffff8316906370a0823190602401602060405180830381865afa158015611f7a573d6000803e3d6000fd5b505050506040513d601f19601f82011682018060405250810190611f9e9190612c07565b9050611fc173ffffffffffffffffffffffffffffffffffffffff83163383612392565b5050565b611fcd6124e9565b73ffffffffffffffffffffffffffffffffffffffff811661204a576040517f08c379a000000000000000000000000000000000000000000000000000000000815260206004820152601660248201527f43616e6e6f74206265207a65726f206164647265737300000000000000000000604482015260640161060e565b600480547fffffffffffffffffffffffff00000000000000000000000000000000000000001673ffffffffffffffffffffffffffffffffffffffff83169081179091556040519081527fafa147634b29e2c7bd53ce194256b9f41cfb9ba3036f2b822fdd1d965beea086906020016106db565b6120c56124e9565b73ffffffffffffffffffffffffffffffffffffffff8116612168576040517f08c379a000000000000000000000000000000000000000000000000000000000815260206004820152602660248201527f4f776e61626c653a206e6577206f776e657220697320746865207a65726f206160448201527f6464726573730000000000000000000000000000000000000000000000000000606482015260840161060e565b6121718161256a565b50565b80158061221457506040517fdd62ed3e00000000000000000000000000000000000000000000000000000000815230600482015273ffffffffffffffffffffffffffffffffffffffff838116602483015284169063dd62ed3e90604401602060405180830381865afa1580156121ee573d6000803e3d6000fd5b505050506040513d601f19601f820116820180604052508101906122129190612c07565b155b6122a0576040517f08c379a000000000000000000000000000000000000000000000000000000000815260206004820152603660248201527f5361666545524332303a20617070726f76652066726f6d206e6f6e2d7a65726f60448201527f20746f206e6f6e2d7a65726f20616c6c6f77616e636500000000000000000000606482015260840161060e565b60405173ffffffffffffffffffffffffffffffffffffffff83166024820152604481018290526123749084907f095ea7b300000000000000000000000000000000000000000000000000000000906064015b604080517fffffffffffffffffffffffffffffffffffffffffffffffffffffffffffffffe08184030181529190526020810180517bffffffffffffffffffffffffffffffffffffffffffffffffffffffff167fffffffff00000000000000000000000000000000000000000000000000000000909316929092179091526127ed565b505050565b606061238884846000856128f9565b90505b9392505050565b60405173ffffffffffffffffffffffffffffffffffffffff83166024820152604481018290526123749084907fa9059cbb00000000000000000000000000000000000000000000000000000000906064016122f2565b60005474010000000000000000000000000000000000000000900460ff16610fe2576040517f08c379a000000000000000000000000000000000000000000000000000000000815260206004820152601460248201527f5061757361626c653a206e6f7420706175736564000000000000000000000000604482015260640161060e565b6124746123e8565b600080547fffffffffffffffffffffff00ffffffffffffffffffffffffffffffffffffffff1690557f5db9ee0a495bf2e6ff9c91a7834c1ba4fdd244a5e8aa4e537bd38aeae4b073aa335b60405173ffffffffffffffffffffffffffffffffffffffff909116815260200160405180910390a1565b60005473ffffffffffffffffffffffffffffffffffffffff163314610fe2576040517f08c379a000000000000000000000000000000000000000000000000000000000815260206004820181905260248201527f4f776e61626c653a2063616c6c6572206973206e6f7420746865206f776e6572604482015260640161060e565b6000805473ffffffffffffffffffffffffffffffffffffffff8381167fffffffffffffffffffffffff0000000000000000000000000000000000000000831681178455604051919092169283917f8be0079c531659141344cd1fd0a4f28419497f9722a3daafe3b4186f6b6457e09190a35050565b60005474010000000000000000000000000000000000000000900460ff1615610fe2576040517f08c379a000000000000000000000000000000000000000000000000000000000815260206004820152601060248201527f5061757361626c653a2070617573656400000000000000000000000000000000604482015260640161060e565b61266c6125df565b600080547fffffffffffffffffffffff00ffffffffffffffffffffffffffffffffffffffff16740100000000000000000000000000000000000000001790557f62e78cea01bee320cd4e420270b5ea74000d11b0c9f74754ebdbfc544b05a2586124bf3390565b60405173ffffffffffffffffffffffffffffffffffffffff80851660248301528316604482015260648101829052611dab9085907f23b872dd00000000000000000000000000000000000000000000000000000000906084016122f2565b600061273b610cda565b90508015612171576040517fe2bbb15800000000000000000000000000000000000000000000000000000000815260048101829052600060248201527f000000000000000000000000000000000000000000000000000000000000000073ffffffffffffffffffffffffffffffffffffffff169063e2bbb15890604401600060405180830381600087803b1580156127d257600080fd5b505af11580156127e6573d6000803e3d6000fd5b5050505050565b600061284f826040518060400160405280602081526020017f5361666545524332303a206c6f772d6c6576656c2063616c6c206661696c65648152508573ffffffffffffffffffffffffffffffffffffffff166123799092919063ffffffff16565b805190915015612374578080602001905181019061286d9190612ca5565b612374576040517f08c379a000000000000000000000000000000000000000000000000000000000815260206004820152602a60248201527f5361666545524332303a204552433230206f7065726174696f6e20646964206e60448201527f6f74207375636365656400000000000000000000000000000000000000000000606482015260840161060e565b60608247101561298b576040517f08c379a000000000000000000000000000000000000000000000000000000000815260206004820152602660248201527f416464726573733a20696e73756666696369656e742062616c616e636520666f60448201527f722063616c6c0000000000000000000000000000000000000000000000000000606482015260840161060e565b73ffffffffffffffffffffffffffffffffffffffff85163b612a09576040517f08c379a000000000000000000000000000000000000000000000000000000000815260206004820152601d60248201527f416464726573733a2063616c6c20746f206e6f6e2d636f6e7472616374000000604482015260640161060e565b6000808673ffffffffffffffffffffffffffffffffffffffff168587604051612a329190612cec565b60006040518083038185875af1925050503d8060008114612a6f576040519150601f19603f3d011682016040523d82523d6000602084013e612a74565b606091505b5091509150612a84828286612a8f565b979650505050505050565b60608315612a9e57508161238b565b825115612aae5782518084602001fd5b816040517f08c379a000000000000000000000000000000000000000000000000000000000815260040161060e9190612d08565b600060208284031215612af457600080fd5b813573ffffffffffffffffffffffffffffffffffffffff8116811461238b57600080fd5b600060208284031215612b2a57600080fd5b5035919050565b7f4e487b7100000000000000000000000000000000000000000000000000000000600052601160045260246000fd5b6000817fffffffffffffffffffffffffffffffffffffffffffffffffffffffffffffffff0483118215151615612b9857612b98612b31565b500290565b600082612bd3577f4e487b7100000000000000000000000000000000000000000000000000000000600052601260045260246000fd5b500490565b600082821015612bea57612bea612b31565b500390565b60008219821115612c0257612c02612b31565b500190565b600060208284031215612c1957600080fd5b5051919050565b80518015158114612c3057600080fd5b919050565b60008060008060008060008060006101208a8c031215612c5457600080fd5b8951985060208a0151975060408a0151965060608a0151955060808a0151945060a08a0151935060c08a01519250612c8e60e08b01612c20565b91506101008a015190509295985092959850929598565b600060208284031215612cb757600080fd5b61238b82612c20565b60005b83811015612cdb578181015183820152602001612cc3565b83811115611dab5750506000910152565b60008251612cfe818460208701612cc0565b9190910192915050565b6020815260008251806020840152612d27816040850160208701612cc0565b601f017fffffffffffffffffffffffffffffffffffffffffffffffffffffffffffffffe016919091016040019291505056fea26469706673582212208554ebb424f8f8a2b019fb506b26a26ea986a3eee382654a28895bd4d5c3de0264736f6c634300080d0033",
  "immutableReferences": {
    "958": [
      {
        "length": 32,
        "start": 1391
      },
      {
        "length": 32,
        "start": 2703
      },
      {
        "length": 32,
        "start": 2928
      },
      {
        "length": 32,
        "start": 3339
      },
      {
        "length": 32,
        "start": 4480
      },
      {
        "length": 32,
        "start": 6573
      },
      {
        "length": 32,
        "start": 6716
      },
      {
        "length": 32,
        "start": 6792
      },
      {
        "length": 32,
        "start": 7732
      }
    ],
    "961": [
      {
        "length": 32,
        "start": 1282
      },
      {
        "length": 32,
        "start": 2437
      },
      {
        "length": 32,
        "start": 4140
      },
      {
        "length": 32,
        "start": 4262
      },
      {
        "length": 32,
        "start": 6397
      },
      {
        "length": 32,
        "start": 7506
      },
      {
        "length": 32,
        "start": 10105
      }
    ]
  },
  "source": "// SPDX-License-Identifier: MIT\r\npragma solidity ^0.8.0;\r\n\r\nimport \"@openzeppelin/contracts/access/Ownable.sol\";\r\nimport \"@openzeppelin/contracts/token/ERC20/utils/SafeERC20.sol\";\r\nimport \"@openzeppelin/contracts/security/Pausable.sol\";\r\nimport \"./interfaces/ICakePool.sol\";\r\n\r\ncontract CakeFlexiblePool is Ownable, Pausable {\r\n  using SafeERC20 for IERC20;\r\n\r\n  struct UserInfo {\r\n    uint256 shares; // number of shares for a user\r\n    uint256 lastDepositedTime; // keeps track of deposited time for potential penalty\r\n    uint256 cakeAtLastUserAction; // keeps track of cake deposited at the last user action\r\n    uint256 lastUserActionTime; // keeps track of the last user action time\r\n  }\r\n\r\n  IERC20 public immutable token; // Cake token\r\n  ICakePool public immutable cakePool; //Cake pool\r\n\r\n  mapping(address => UserInfo) public userInfo;\r\n\r\n  uint256 public totalShares;\r\n  address public admin;\r\n  address public treasury;\r\n  bool public staking = true;\r\n\r\n  uint256 public constant MAX_PERFORMANCE_FEE = 2000; // 20%\r\n  uint256 public constant MAX_WITHDRAW_FEE = 500; // 5%\r\n  uint256 public constant MAX_WITHDRAW_FEE_PERIOD = 1 weeks; // 1 week\r\n  uint256 public constant MAX_WITHDRAW_AMOUNT_BOOSTER = 10010; // 1.001\r\n  uint256 public constant MIN_DEPOSIT_AMOUNT = 0.00001 ether;\r\n  uint256 public constant MIN_WITHDRAW_AMOUNT = 0.00001 ether;\r\n  uint256 public constant MIN_WITHDRAW_AMOUNT_BOOSTER = 10000; // 1\r\n\r\n  //When call cakepool.withdrawByAmount function,there will be a loss of precision, so need to withdraw more.\r\n  uint256 public withdrawAmountBooster = 10001; // 1.0001\r\n  uint256 public performanceFee = 200; // 2%\r\n  uint256 public withdrawFee = 10; // 0.1%\r\n  uint256 public withdrawFeePeriod = 72 hours; // 3 days\r\n\r\n  event DepositCake(\r\n    address indexed sender,\r\n    uint256 amount,\r\n    uint256 shares,\r\n    uint256 lastDepositedTime\r\n  );\r\n  event WithdrawShares(address indexed sender, uint256 amount, uint256 shares);\r\n  event ChargePerformanceFee(\r\n    address indexed sender,\r\n    uint256 amount,\r\n    uint256 shares\r\n  );\r\n  event ChargeWithdrawFee(address indexed sender, uint256 amount);\r\n  event Pause();\r\n  event Unpause();\r\n  event NewAdmin(address admin);\r\n  event NewTreasury(address treasury);\r\n  event NewPerformanceFee(uint256 performanceFee);\r\n  event NewWithdrawFee(uint256 withdrawFee);\r\n  event NewWithdrawFeePeriod(uint256 withdrawFeePeriod);\r\n  event NewWithdrawAmountBooster(uint256 withdrawAmountBooster);\r\n\r\n  /**\r\n   * @notice Constructor\r\n   * @param _token: Cake token contract\r\n   * @param _cakePool: CakePool contract\r\n   * @param _admin: address of the admin\r\n   * @param _treasury: address of the treasury (collects fees)\r\n   */\r\n  constructor(\r\n    IERC20 _token,\r\n    ICakePool _cakePool,\r\n    address _admin,\r\n    address _treasury\r\n  ) {\r\n    token = _token;\r\n    cakePool = _cakePool;\r\n    admin = _admin;\r\n    treasury = _treasury;\r\n\r\n    // Infinite approve\r\n    IERC20(_token).safeApprove(address(_cakePool), type(uint256).max);\r\n  }\r\n\r\n  /**\r\n   * @notice Checks if the msg.sender is the admin address\r\n   */\r\n  modifier onlyAdmin() {\r\n    require(msg.sender == admin, \"admin: wut?\");\r\n    _;\r\n  }\r\n\r\n  /**\r\n   * @notice Deposits funds into the Cake Flexible Pool.\r\n   * @dev Only possible when contract not paused.\r\n   * @param _amount: number of tokens to deposit (in CAKE)\r\n   */\r\n  function deposit(uint256 _amount) external whenNotPaused {\r\n    require(staking, \"Not allowed to stake\");\r\n    require(\r\n      _amount > MIN_DEPOSIT_AMOUNT,\r\n      \"Deposit amount must be greater than MIN_DEPOSIT_AMOUNT\"\r\n    );\r\n    UserInfo storage user = userInfo[msg.sender];\r\n    //charge performanceFee\r\n    bool chargeFeeFromDeposite;\r\n    uint256 currentPerformanceFee;\r\n    uint256 performanceFeeShares;\r\n    if (user.shares > 0) {\r\n      uint256 totalAmount = (user.shares * balanceOf()) / totalShares;\r\n      uint256 earnAmount = totalAmount - user.cakeAtLastUserAction;\r\n      currentPerformanceFee = (earnAmount * performanceFee) / 10000;\r\n      if (currentPerformanceFee > 0) {\r\n        performanceFeeShares =\r\n          (currentPerformanceFee * totalShares) /\r\n          balanceOf();\r\n        user.shares -= performanceFeeShares;\r\n        totalShares -= performanceFeeShares;\r\n        if (_amount >= currentPerformanceFee) {\r\n          chargeFeeFromDeposite = true;\r\n        } else {\r\n          // withdrawByAmount have a MIN_WITHDRAW_AMOUNT limit ,so need to withdraw more than MIN_WITHDRAW_AMOUNT.\r\n          uint256 withdrawAmount = currentPerformanceFee < MIN_WITHDRAW_AMOUNT\r\n            ? MIN_WITHDRAW_AMOUNT\r\n            : currentPerformanceFee;\r\n          //There will be a loss of precision when call withdrawByAmount, so need to withdraw more.\r\n          withdrawAmount = (withdrawAmount * withdrawAmountBooster) / 10000;\r\n          cakePool.withdrawByAmount(withdrawAmount);\r\n\r\n          currentPerformanceFee = available() >= currentPerformanceFee\r\n            ? currentPerformanceFee\r\n            : available();\r\n          token.safeTransfer(treasury, currentPerformanceFee);\r\n          emit ChargePerformanceFee(\r\n            msg.sender,\r\n            currentPerformanceFee,\r\n            performanceFeeShares\r\n          );\r\n        }\r\n      }\r\n    }\r\n    uint256 pool = balanceOf();\r\n    token.safeTransferFrom(msg.sender, address(this), _amount);\r\n    if (chargeFeeFromDeposite) {\r\n      token.safeTransfer(treasury, currentPerformanceFee);\r\n      emit ChargePerformanceFee(\r\n        msg.sender,\r\n        currentPerformanceFee,\r\n        performanceFeeShares\r\n      );\r\n      pool -= currentPerformanceFee;\r\n    }\r\n    uint256 currentShares;\r\n    if (totalShares != 0) {\r\n      currentShares = (_amount * totalShares) / pool;\r\n    } else {\r\n      currentShares = _amount;\r\n    }\r\n\r\n    user.shares += currentShares;\r\n    user.lastDepositedTime = block.timestamp;\r\n\r\n    totalShares += currentShares;\r\n\r\n    _earn();\r\n\r\n    user.cakeAtLastUserAction = (user.shares * balanceOf()) / totalShares;\r\n    user.lastUserActionTime = block.timestamp;\r\n\r\n    emit DepositCake(msg.sender, _amount, currentShares, block.timestamp);\r\n  }\r\n\r\n  /**\r\n   * @notice Withdraws funds from the Cake Flexible Pool\r\n   * @param _shares: Number of shares to withdraw\r\n   */\r\n  function withdraw(uint256 _shares) public {\r\n    UserInfo storage user = userInfo[msg.sender];\r\n    require(_shares > 0, \"Nothing to withdraw\");\r\n    require(_shares <= user.shares, \"Withdraw amount exceeds balance\");\r\n    //charge performanceFee\r\n    uint256 totalAmount = (user.shares * balanceOf()) / totalShares;\r\n    uint256 earnAmount = totalAmount - user.cakeAtLastUserAction;\r\n    uint256 currentPerformanceFee;\r\n    uint256 performanceFeeShares;\r\n    if (earnAmount > 0) {\r\n      currentPerformanceFee = (earnAmount * performanceFee) / 10000;\r\n      performanceFeeShares =\r\n        (currentPerformanceFee * totalShares) /\r\n        balanceOf();\r\n      user.shares -= performanceFeeShares;\r\n      totalShares -= performanceFeeShares;\r\n    }\r\n    //Update withdraw shares\r\n    if (_shares > user.shares) {\r\n      _shares = user.shares;\r\n    }\r\n    //The current pool balance should not include currentPerformanceFee.\r\n    uint256 currentAmount = (_shares * (balanceOf() - currentPerformanceFee)) /\r\n      totalShares;\r\n    user.shares -= _shares;\r\n    totalShares -= _shares;\r\n    uint256 withdrawAmount = currentAmount + currentPerformanceFee;\r\n    if (staking) {\r\n      // withdrawByAmount have a MIN_WITHDRAW_AMOUNT limit ,so need to withdraw more than MIN_WITHDRAW_AMOUNT.\r\n      withdrawAmount = withdrawAmount < MIN_WITHDRAW_AMOUNT\r\n        ? MIN_WITHDRAW_AMOUNT\r\n        : withdrawAmount;\r\n      //There will be a loss of precision when call withdrawByAmount, so need to withdraw more.\r\n      withdrawAmount = (withdrawAmount * withdrawAmountBooster) / 10000;\r\n      cakePool.withdrawByAmount(withdrawAmount);\r\n    }\r\n\r\n    uint256 currentWithdrawFee;\r\n    if (block.timestamp < user.lastDepositedTime + withdrawFeePeriod) {\r\n      currentWithdrawFee = (currentAmount * withdrawFee) / 10000;\r\n      currentAmount -= currentWithdrawFee;\r\n    }\r\n    //Combine two fees to reduce gas\r\n    uint256 totalFee = currentPerformanceFee + currentWithdrawFee;\r\n    if (totalFee > 0) {\r\n      totalFee = available() >= totalFee ? totalFee : available();\r\n      token.safeTransfer(treasury, totalFee);\r\n      if (currentPerformanceFee > 0) {\r\n        emit ChargePerformanceFee(\r\n          msg.sender,\r\n          currentPerformanceFee,\r\n          performanceFeeShares\r\n        );\r\n      }\r\n      if (currentWithdrawFee > 0) {\r\n        emit ChargeWithdrawFee(msg.sender, currentWithdrawFee);\r\n      }\r\n    }\r\n\r\n    currentAmount = available() >= currentAmount ? currentAmount : available();\r\n    token.safeTransfer(msg.sender, currentAmount);\r\n\r\n    if (user.shares > 0) {\r\n      user.cakeAtLastUserAction = (user.shares * balanceOf()) / totalShares;\r\n    } else {\r\n      user.cakeAtLastUserAction = 0;\r\n    }\r\n\r\n    user.lastUserActionTime = block.timestamp;\r\n\r\n    emit WithdrawShares(msg.sender, currentAmount, _shares);\r\n  }\r\n\r\n  /**\r\n   * @notice Withdraws all funds for a user\r\n   */\r\n  function withdrawAll() external {\r\n    withdraw(userInfo[msg.sender].shares);\r\n  }\r\n\r\n  /**\r\n   * @notice Sets admin address\r\n   * @dev Only callable by the contract owner.\r\n   */\r\n  function setAdmin(address _admin) external onlyOwner {\r\n    require(_admin != address(0), \"Cannot be zero address\");\r\n    admin = _admin;\r\n    emit NewAdmin(admin);\r\n  }\r\n\r\n  /**\r\n   * @notice Sets treasury address\r\n   * @dev Only callable by the contract owner.\r\n   */\r\n  function setTreasury(address _treasury) external onlyOwner {\r\n    require(_treasury != address(0), \"Cannot be zero address\");\r\n    treasury = _treasury;\r\n    emit NewTreasury(treasury);\r\n  }\r\n\r\n  /**\r\n   * @notice Sets performance fee\r\n   * @dev Only callable by the contract admin.\r\n   */\r\n  function setPerformanceFee(uint256 _performanceFee) external onlyAdmin {\r\n    require(\r\n      _performanceFee <= MAX_PERFORMANCE_FEE,\r\n      \"performanceFee cannot be more than MAX_PERFORMANCE_FEE\"\r\n    );\r\n    performanceFee = _performanceFee;\r\n    emit NewPerformanceFee(performanceFee);\r\n  }\r\n\r\n  /**\r\n   * @notice Sets withdraw fee\r\n   * @dev Only callable by the contract admin.\r\n   */\r\n  function setWithdrawFee(uint256 _withdrawFee) external onlyAdmin {\r\n    require(\r\n      _withdrawFee <= MAX_WITHDRAW_FEE,\r\n      \"withdrawFee cannot be more than MAX_WITHDRAW_FEE\"\r\n    );\r\n    withdrawFee = _withdrawFee;\r\n    emit NewWithdrawFee(withdrawFee);\r\n  }\r\n\r\n  /**\r\n   * @notice Sets withdraw fee period\r\n   * @dev Only callable by the contract admin.\r\n   */\r\n  function setWithdrawFeePeriod(uint256 _withdrawFeePeriod) external onlyAdmin {\r\n    require(\r\n      _withdrawFeePeriod <= MAX_WITHDRAW_FEE_PERIOD,\r\n      \"withdrawFeePeriod cannot be more than MAX_WITHDRAW_FEE_PERIOD\"\r\n    );\r\n    withdrawFeePeriod = _withdrawFeePeriod;\r\n    emit NewWithdrawFeePeriod(withdrawFeePeriod);\r\n  }\r\n\r\n  /**\r\n   * @notice Sets withdraw amount booster\r\n   * @dev Only callable by the contract admin.\r\n   */\r\n  function setWithdrawAmountBooster(\r\n    uint256 _withdrawAmountBooster\r\n  ) external onlyAdmin {\r\n    require(\r\n      _withdrawAmountBooster >= MIN_WITHDRAW_AMOUNT_BOOSTER,\r\n      \"withdrawAmountBooster cannot be less than MIN_WITHDRAW_AMOUNT_BOOSTER\"\r\n    );\r\n    require(\r\n      _withdrawAmountBooster <= MAX_WITHDRAW_AMOUNT_BOOSTER,\r\n      \"withdrawAmountBooster cannot be more than MAX_WITHDRAW_AMOUNT_BOOSTER\"\r\n    );\r\n    withdrawAmountBooster = _withdrawAmountBooster;\r\n    emit NewWithdrawAmountBooster(withdrawAmountBooster);\r\n  }\r\n\r\n  /**\r\n   * @notice Withdraws from Cake Pool without caring about rewards.\r\n   * @dev EMERGENCY ONLY. Only callable by the contract admin.\r\n   */\r\n  function emergencyWithdraw() external onlyAdmin {\r\n    require(staking, \"No staking cake\");\r\n    staking = false;\r\n    cakePool.withdrawAll();\r\n  }\r\n\r\n  /**\r\n   * @notice Withdraw unexpected tokens sent to the Cake Flexible Pool\r\n   */\r\n  function inCaseTokensGetStuck(address _token) external onlyAdmin {\r\n    require(_token != address(token), \"Token cannot be same as deposit token\");\r\n\r\n    uint256 amount = IERC20(_token).balanceOf(address(this));\r\n    IERC20(_token).safeTransfer(msg.sender, amount);\r\n  }\r\n\r\n  /**\r\n   * @notice Triggers stopped state\r\n   * @dev Only possible when contract not paused.\r\n   */\r\n  function pause() external onlyAdmin whenNotPaused {\r\n    _pause();\r\n    emit Pause();\r\n  }\r\n\r\n  /**\r\n   * @notice Returns to normal state\r\n   * @dev Only possible when contract is paused.\r\n   */\r\n  function unpause() external onlyAdmin whenPaused {\r\n    _unpause();\r\n    emit Unpause();\r\n  }\r\n\r\n  /**\r\n   * @notice Calculates the price per share\r\n   */\r\n  function getPricePerFullShare() external view returns (uint256) {\r\n    return totalShares == 0 ? 1e18 : (balanceOf() * 1e18) / totalShares;\r\n  }\r\n\r\n  /**\r\n   * @notice Custom logic for how much the pool to be borrowed\r\n   * @dev The contract puts 100% of the tokens to work.\r\n   */\r\n  function available() public view returns (uint256) {\r\n    return token.balanceOf(address(this));\r\n  }\r\n\r\n  /**\r\n   * @notice Calculates the total underlying tokens\r\n   * @dev It includes tokens held by the contract and held in CakePool\r\n   */\r\n  function balanceOf() public view returns (uint256) {\r\n    (uint256 shares, , , , , , , , ) = cakePool.userInfo(address(this));\r\n    uint256 pricePerFullShare = cakePool.getPricePerFullShare();\r\n\r\n    return token.balanceOf(address(this)) + (shares * pricePerFullShare) / 1e18;\r\n  }\r\n\r\n  /**\r\n   * @notice Deposits tokens into CakePool to earn staking rewards\r\n   */\r\n  function _earn() internal {\r\n    uint256 bal = available();\r\n    if (bal > 0) {\r\n      cakePool.deposit(bal, 0);\r\n    }\r\n  }\r\n}\r\n",
  "sourcePath": "D:\\Other_Folder\\ANGGA\\NFT\\CLIENT\\MAS WIDI NEW\\NewVenosSmartContract\\contracts\\CakeFlexiblePool.sol",
  "compiler": {
    "name": "solc",
    "version": "0.8.13+commit.abaa5c0e.Emscripten.clang"
  },
  "schemaVersion": "3.4.16",
  "updatedAt": "2023-10-12T09:27:34.072Z",
  "networkType": "ethereum",
  "devdoc": {
    "kind": "dev",
    "methods": {
      "available()": {
        "details": "The contract puts 100% of the tokens to work."
      },
      "balanceOf()": {
        "details": "It includes tokens held by the contract and held in CakePool"
      },
      "constructor": {
        "params": {
          "_admin": ": address of the admin",
          "_cakePool": ": CakePool contract",
          "_token": ": Cake token contract",
          "_treasury": ": address of the treasury (collects fees)"
        }
      },
      "deposit(uint256)": {
        "details": "Only possible when contract not paused.",
        "params": {
          "_amount": ": number of tokens to deposit (in CAKE)"
        }
      },
      "emergencyWithdraw()": {
        "details": "EMERGENCY ONLY. Only callable by the contract admin."
      },
      "owner()": {
        "details": "Returns the address of the current owner."
      },
      "pause()": {
        "details": "Only possible when contract not paused."
      },
      "paused()": {
        "details": "Returns true if the contract is paused, and false otherwise."
      },
      "renounceOwnership()": {
        "details": "Leaves the contract without owner. It will not be possible to call `onlyOwner` functions anymore. Can only be called by the current owner. NOTE: Renouncing ownership will leave the contract without an owner, thereby removing any functionality that is only available to the owner."
      },
      "setAdmin(address)": {
        "details": "Only callable by the contract owner."
      },
      "setPerformanceFee(uint256)": {
        "details": "Only callable by the contract admin."
      },
      "setTreasury(address)": {
        "details": "Only callable by the contract owner."
      },
      "setWithdrawAmountBooster(uint256)": {
        "details": "Only callable by the contract admin."
      },
      "setWithdrawFee(uint256)": {
        "details": "Only callable by the contract admin."
      },
      "setWithdrawFeePeriod(uint256)": {
        "details": "Only callable by the contract admin."
      },
      "transferOwnership(address)": {
        "details": "Transfers ownership of the contract to a new account (`newOwner`). Can only be called by the current owner."
      },
      "unpause()": {
        "details": "Only possible when contract is paused."
      },
      "withdraw(uint256)": {
        "params": {
          "_shares": ": Number of shares to withdraw"
        }
      }
    },
    "version": 1
  },
  "userdoc": {
    "kind": "user",
    "methods": {
      "available()": {
        "notice": "Custom logic for how much the pool to be borrowed"
      },
      "balanceOf()": {
        "notice": "Calculates the total underlying tokens"
      },
      "constructor": {
        "notice": "Constructor"
      },
      "deposit(uint256)": {
        "notice": "Deposits funds into the Cake Flexible Pool."
      },
      "emergencyWithdraw()": {
        "notice": "Withdraws from Cake Pool without caring about rewards."
      },
      "getPricePerFullShare()": {
        "notice": "Calculates the price per share"
      },
      "inCaseTokensGetStuck(address)": {
        "notice": "Withdraw unexpected tokens sent to the Cake Flexible Pool"
      },
      "pause()": {
        "notice": "Triggers stopped state"
      },
      "setAdmin(address)": {
        "notice": "Sets admin address"
      },
      "setPerformanceFee(uint256)": {
        "notice": "Sets performance fee"
      },
      "setTreasury(address)": {
        "notice": "Sets treasury address"
      },
      "setWithdrawAmountBooster(uint256)": {
        "notice": "Sets withdraw amount booster"
      },
      "setWithdrawFee(uint256)": {
        "notice": "Sets withdraw fee"
      },
      "setWithdrawFeePeriod(uint256)": {
        "notice": "Sets withdraw fee period"
      },
      "unpause()": {
        "notice": "Returns to normal state"
      },
      "withdraw(uint256)": {
        "notice": "Withdraws funds from the Cake Flexible Pool"
      },
      "withdrawAll()": {
        "notice": "Withdraws all funds for a user"
      }
    },
    "version": 1
  }
}