{
  "contractName": "ShadowPool",
  "abi": [
    {
      "inputs": [
        {
          "internalType": "contract IERC20",
          "name": "_token",
          "type": "address"
        },
        {
          "internalType": "contract IShadowChefV2",
          "name": "_shadowchefV2",
          "type": "address"
        },
        {
          "internalType": "address",
          "name": "_admin",
          "type": "address"
        },
        {
          "internalType": "address",
          "name": "_treasury",
          "type": "address"
        },
        {
          "internalType": "address",
          "name": "_operator",
          "type": "address"
        },
        {
          "internalType": "uint256",
          "name": "_pid",
          "type": "uint256"
        }
      ],
      "stateMutability": "nonpayable",
      "type": "constructor"
    },
    {
      "anonymous": false,
      "inputs": [
        {
          "indexed": true,
          "internalType": "address",
          "name": "sender",
          "type": "address"
        },
        {
          "indexed": false,
          "internalType": "uint256",
          "name": "amount",
          "type": "uint256"
        },
        {
          "indexed": false,
          "internalType": "uint256",
          "name": "shares",
          "type": "uint256"
        },
        {
          "indexed": false,
          "internalType": "uint256",
          "name": "duration",
          "type": "uint256"
        },
        {
          "indexed": false,
          "internalType": "uint256",
          "name": "lastDepositedTime",
          "type": "uint256"
        }
      ],
      "name": "Deposit",
      "type": "event"
    },
    {
      "anonymous": false,
      "inputs": [
        {
          "indexed": true,
          "internalType": "address",
          "name": "user",
          "type": "address"
        },
        {
          "indexed": true,
          "internalType": "bool",
          "name": "free",
          "type": "bool"
        }
      ],
      "name": "FreeFeeUser",
      "type": "event"
    },
    {
      "anonymous": false,
      "inputs": [
        {
          "indexed": true,
          "internalType": "address",
          "name": "sender",
          "type": "address"
        },
        {
          "indexed": false,
          "internalType": "uint256",
          "name": "amount",
          "type": "uint256"
        }
      ],
      "name": "Harvest",
      "type": "event"
    },
    {
      "anonymous": false,
      "inputs": [],
      "name": "Init",
      "type": "event"
    },
    {
      "anonymous": false,
      "inputs": [
        {
          "indexed": true,
          "internalType": "address",
          "name": "sender",
          "type": "address"
        },
        {
          "indexed": false,
          "internalType": "uint256",
          "name": "lockedAmount",
          "type": "uint256"
        },
        {
          "indexed": false,
          "internalType": "uint256",
          "name": "shares",
          "type": "uint256"
        },
        {
          "indexed": false,
          "internalType": "uint256",
          "name": "lockedDuration",
          "type": "uint256"
        },
        {
          "indexed": false,
          "internalType": "uint256",
          "name": "blockTimestamp",
          "type": "uint256"
        }
      ],
      "name": "Lock",
      "type": "event"
    },
    {
      "anonymous": false,
      "inputs": [
        {
          "indexed": false,
          "internalType": "address",
          "name": "admin",
          "type": "address"
        }
      ],
      "name": "NewAdmin",
      "type": "event"
    },
    {
      "anonymous": false,
      "inputs": [
        {
          "indexed": false,
          "internalType": "address",
          "name": "boostContract",
          "type": "address"
        }
      ],
      "name": "NewBoostContract",
      "type": "event"
    },
    {
      "anonymous": false,
      "inputs": [
        {
          "indexed": false,
          "internalType": "uint256",
          "name": "boostWeight",
          "type": "uint256"
        }
      ],
      "name": "NewBoostWeight",
      "type": "event"
    },
    {
      "anonymous": false,
      "inputs": [
        {
          "indexed": false,
          "internalType": "uint256",
          "name": "durationFactor",
          "type": "uint256"
        }
      ],
      "name": "NewDurationFactor",
      "type": "event"
    },
    {
      "anonymous": false,
      "inputs": [
        {
          "indexed": false,
          "internalType": "uint256",
          "name": "durationFactorOverdue",
          "type": "uint256"
        }
      ],
      "name": "NewDurationFactorOverdue",
      "type": "event"
    },
    {
      "anonymous": false,
      "inputs": [
        {
          "indexed": false,
          "internalType": "uint256",
          "name": "maxLockDuration",
          "type": "uint256"
        }
      ],
      "name": "NewMaxLockDuration",
      "type": "event"
    },
    {
      "anonymous": false,
      "inputs": [
        {
          "indexed": false,
          "internalType": "address",
          "name": "operator",
          "type": "address"
        }
      ],
      "name": "NewOperator",
      "type": "event"
    },
    {
      "anonymous": false,
      "inputs": [
        {
          "indexed": false,
          "internalType": "uint256",
          "name": "overdueFee",
          "type": "uint256"
        }
      ],
      "name": "NewOverdueFee",
      "type": "event"
    },
    {
      "anonymous": false,
      "inputs": [
        {
          "indexed": false,
          "internalType": "uint256",
          "name": "performanceFee",
          "type": "uint256"
        }
      ],
      "name": "NewPerformanceFee",
      "type": "event"
    },
    {
      "anonymous": false,
      "inputs": [
        {
          "indexed": false,
          "internalType": "uint256",
          "name": "performanceFeeContract",
          "type": "uint256"
        }
      ],
      "name": "NewPerformanceFeeContract",
      "type": "event"
    },
    {
      "anonymous": false,
      "inputs": [
        {
          "indexed": false,
          "internalType": "address",
          "name": "treasury",
          "type": "address"
        }
      ],
      "name": "NewTreasury",
      "type": "event"
    },
    {
      "anonymous": false,
      "inputs": [
        {
          "indexed": false,
          "internalType": "uint256",
          "name": "unlockFreeDuration",
          "type": "uint256"
        }
      ],
      "name": "NewUnlockFreeDuration",
      "type": "event"
    },
    {
      "anonymous": false,
      "inputs": [
        {
          "indexed": false,
          "internalType": "address",
          "name": "VShdw",
          "type": "address"
        }
      ],
      "name": "NewVShdwContract",
      "type": "event"
    },
    {
      "anonymous": false,
      "inputs": [
        {
          "indexed": false,
          "internalType": "uint256",
          "name": "withdrawFee",
          "type": "uint256"
        }
      ],
      "name": "NewWithdrawFee",
      "type": "event"
    },
    {
      "anonymous": false,
      "inputs": [
        {
          "indexed": false,
          "internalType": "uint256",
          "name": "withdrawFeeContract",
          "type": "uint256"
        }
      ],
      "name": "NewWithdrawFeeContract",
      "type": "event"
    },
    {
      "anonymous": false,
      "inputs": [
        {
          "indexed": false,
          "internalType": "uint256",
          "name": "withdrawFeePeriod",
          "type": "uint256"
        }
      ],
      "name": "NewWithdrawFeePeriod",
      "type": "event"
    },
    {
      "anonymous": false,
      "inputs": [
        {
          "indexed": true,
          "internalType": "address",
          "name": "previousOwner",
          "type": "address"
        },
        {
          "indexed": true,
          "internalType": "address",
          "name": "newOwner",
          "type": "address"
        }
      ],
      "name": "OwnershipTransferred",
      "type": "event"
    },
    {
      "anonymous": false,
      "inputs": [],
      "name": "Pause",
      "type": "event"
    },
    {
      "anonymous": false,
      "inputs": [
        {
          "indexed": false,
          "internalType": "address",
          "name": "account",
          "type": "address"
        }
      ],
      "name": "Paused",
      "type": "event"
    },
    {
      "anonymous": false,
      "inputs": [
        {
          "indexed": true,
          "internalType": "address",
          "name": "sender",
          "type": "address"
        },
        {
          "indexed": false,
          "internalType": "uint256",
          "name": "amount",
          "type": "uint256"
        },
        {
          "indexed": false,
          "internalType": "uint256",
          "name": "blockTimestamp",
          "type": "uint256"
        }
      ],
      "name": "Unlock",
      "type": "event"
    },
    {
      "anonymous": false,
      "inputs": [],
      "name": "Unpause",
      "type": "event"
    },
    {
      "anonymous": false,
      "inputs": [
        {
          "indexed": false,
          "internalType": "address",
          "name": "account",
          "type": "address"
        }
      ],
      "name": "Unpaused",
      "type": "event"
    },
    {
      "anonymous": false,
      "inputs": [
        {
          "indexed": true,
          "internalType": "address",
          "name": "sender",
          "type": "address"
        },
        {
          "indexed": false,
          "internalType": "uint256",
          "name": "amount",
          "type": "uint256"
        },
        {
          "indexed": false,
          "internalType": "uint256",
          "name": "shares",
          "type": "uint256"
        }
      ],
      "name": "Withdraw",
      "type": "event"
    },
    {
      "inputs": [],
      "name": "BOOST_WEIGHT",
      "outputs": [
        {
          "internalType": "uint256",
          "name": "",
          "type": "uint256"
        }
      ],
      "stateMutability": "view",
      "type": "function",
      "constant": true
    },
    {
      "inputs": [],
      "name": "BOOST_WEIGHT_LIMIT",
      "outputs": [
        {
          "internalType": "uint256",
          "name": "",
          "type": "uint256"
        }
      ],
      "stateMutability": "view",
      "type": "function",
      "constant": true
    },
    {
      "inputs": [],
      "name": "DURATION_FACTOR",
      "outputs": [
        {
          "internalType": "uint256",
          "name": "",
          "type": "uint256"
        }
      ],
      "stateMutability": "view",
      "type": "function",
      "constant": true
    },
    {
      "inputs": [],
      "name": "DURATION_FACTOR_OVERDUE",
      "outputs": [
        {
          "internalType": "uint256",
          "name": "",
          "type": "uint256"
        }
      ],
      "stateMutability": "view",
      "type": "function",
      "constant": true
    },
    {
      "inputs": [],
      "name": "MAX_LOCK_DURATION",
      "outputs": [
        {
          "internalType": "uint256",
          "name": "",
          "type": "uint256"
        }
      ],
      "stateMutability": "view",
      "type": "function",
      "constant": true
    },
    {
      "inputs": [],
      "name": "MAX_LOCK_DURATION_LIMIT",
      "outputs": [
        {
          "internalType": "uint256",
          "name": "",
          "type": "uint256"
        }
      ],
      "stateMutability": "view",
      "type": "function",
      "constant": true
    },
    {
      "inputs": [],
      "name": "MAX_OVERDUE_FEE",
      "outputs": [
        {
          "internalType": "uint256",
          "name": "",
          "type": "uint256"
        }
      ],
      "stateMutability": "view",
      "type": "function",
      "constant": true
    },
    {
      "inputs": [],
      "name": "MAX_PERFORMANCE_FEE",
      "outputs": [
        {
          "internalType": "uint256",
          "name": "",
          "type": "uint256"
        }
      ],
      "stateMutability": "view",
      "type": "function",
      "constant": true
    },
    {
      "inputs": [],
      "name": "MAX_WITHDRAW_FEE",
      "outputs": [
        {
          "internalType": "uint256",
          "name": "",
          "type": "uint256"
        }
      ],
      "stateMutability": "view",
      "type": "function",
      "constant": true
    },
    {
      "inputs": [],
      "name": "MAX_WITHDRAW_FEE_PERIOD",
      "outputs": [
        {
          "internalType": "uint256",
          "name": "",
          "type": "uint256"
        }
      ],
      "stateMutability": "view",
      "type": "function",
      "constant": true
    },
    {
      "inputs": [],
      "name": "MIN_DEPOSIT_AMOUNT",
      "outputs": [
        {
          "internalType": "uint256",
          "name": "",
          "type": "uint256"
        }
      ],
      "stateMutability": "view",
      "type": "function",
      "constant": true
    },
    {
      "inputs": [],
      "name": "MIN_LOCK_DURATION",
      "outputs": [
        {
          "internalType": "uint256",
          "name": "",
          "type": "uint256"
        }
      ],
      "stateMutability": "view",
      "type": "function",
      "constant": true
    },
    {
      "inputs": [],
      "name": "MIN_WITHDRAW_AMOUNT",
      "outputs": [
        {
          "internalType": "uint256",
          "name": "",
          "type": "uint256"
        }
      ],
      "stateMutability": "view",
      "type": "function",
      "constant": true
    },
    {
      "inputs": [],
      "name": "PRECISION_FACTOR",
      "outputs": [
        {
          "internalType": "uint256",
          "name": "",
          "type": "uint256"
        }
      ],
      "stateMutability": "view",
      "type": "function",
      "constant": true
    },
    {
      "inputs": [],
      "name": "PRECISION_FACTOR_SHARE",
      "outputs": [
        {
          "internalType": "uint256",
          "name": "",
          "type": "uint256"
        }
      ],
      "stateMutability": "view",
      "type": "function",
      "constant": true
    },
    {
      "inputs": [],
      "name": "UNLOCK_FREE_DURATION",
      "outputs": [
        {
          "internalType": "uint256",
          "name": "",
          "type": "uint256"
        }
      ],
      "stateMutability": "view",
      "type": "function",
      "constant": true
    },
    {
      "inputs": [],
      "name": "VShdw",
      "outputs": [
        {
          "internalType": "address",
          "name": "",
          "type": "address"
        }
      ],
      "stateMutability": "view",
      "type": "function",
      "constant": true
    },
    {
      "inputs": [],
      "name": "admin",
      "outputs": [
        {
          "internalType": "address",
          "name": "",
          "type": "address"
        }
      ],
      "stateMutability": "view",
      "type": "function",
      "constant": true
    },
    {
      "inputs": [],
      "name": "boostContract",
      "outputs": [
        {
          "internalType": "address",
          "name": "",
          "type": "address"
        }
      ],
      "stateMutability": "view",
      "type": "function",
      "constant": true
    },
    {
      "inputs": [
        {
          "internalType": "address",
          "name": "",
          "type": "address"
        }
      ],
      "name": "freeOverdueFeeUsers",
      "outputs": [
        {
          "internalType": "bool",
          "name": "",
          "type": "bool"
        }
      ],
      "stateMutability": "view",
      "type": "function",
      "constant": true
    },
    {
      "inputs": [
        {
          "internalType": "address",
          "name": "",
          "type": "address"
        }
      ],
      "name": "freePerformanceFeeUsers",
      "outputs": [
        {
          "internalType": "bool",
          "name": "",
          "type": "bool"
        }
      ],
      "stateMutability": "view",
      "type": "function",
      "constant": true
    },
    {
      "inputs": [
        {
          "internalType": "address",
          "name": "",
          "type": "address"
        }
      ],
      "name": "freeWithdrawFeeUsers",
      "outputs": [
        {
          "internalType": "bool",
          "name": "",
          "type": "bool"
        }
      ],
      "stateMutability": "view",
      "type": "function",
      "constant": true
    },
    {
      "inputs": [],
      "name": "operator",
      "outputs": [
        {
          "internalType": "address",
          "name": "",
          "type": "address"
        }
      ],
      "stateMutability": "view",
      "type": "function",
      "constant": true
    },
    {
      "inputs": [],
      "name": "overdueFee",
      "outputs": [
        {
          "internalType": "uint256",
          "name": "",
          "type": "uint256"
        }
      ],
      "stateMutability": "view",
      "type": "function",
      "constant": true
    },
    {
      "inputs": [],
      "name": "owner",
      "outputs": [
        {
          "internalType": "address",
          "name": "",
          "type": "address"
        }
      ],
      "stateMutability": "view",
      "type": "function",
      "constant": true
    },
    {
      "inputs": [],
      "name": "paused",
      "outputs": [
        {
          "internalType": "bool",
          "name": "",
          "type": "bool"
        }
      ],
      "stateMutability": "view",
      "type": "function",
      "constant": true
    },
    {
      "inputs": [],
      "name": "performanceFee",
      "outputs": [
        {
          "internalType": "uint256",
          "name": "",
          "type": "uint256"
        }
      ],
      "stateMutability": "view",
      "type": "function",
      "constant": true
    },
    {
      "inputs": [],
      "name": "performanceFeeContract",
      "outputs": [
        {
          "internalType": "uint256",
          "name": "",
          "type": "uint256"
        }
      ],
      "stateMutability": "view",
      "type": "function",
      "constant": true
    },
    {
      "inputs": [],
      "name": "renounceOwnership",
      "outputs": [],
      "stateMutability": "nonpayable",
      "type": "function"
    },
    {
      "inputs": [],
      "name": "shadowchefV2",
      "outputs": [
        {
          "internalType": "contract IShadowChefV2",
          "name": "",
          "type": "address"
        }
      ],
      "stateMutability": "view",
      "type": "function",
      "constant": true
    },
    {
      "inputs": [],
      "name": "shdwPoolPID",
      "outputs": [
        {
          "internalType": "uint256",
          "name": "",
          "type": "uint256"
        }
      ],
      "stateMutability": "view",
      "type": "function",
      "constant": true
    },
    {
      "inputs": [],
      "name": "token",
      "outputs": [
        {
          "internalType": "contract IERC20",
          "name": "",
          "type": "address"
        }
      ],
      "stateMutability": "view",
      "type": "function",
      "constant": true
    },
    {
      "inputs": [],
      "name": "totalBoostDebt",
      "outputs": [
        {
          "internalType": "uint256",
          "name": "",
          "type": "uint256"
        }
      ],
      "stateMutability": "view",
      "type": "function",
      "constant": true
    },
    {
      "inputs": [],
      "name": "totalLockedAmount",
      "outputs": [
        {
          "internalType": "uint256",
          "name": "",
          "type": "uint256"
        }
      ],
      "stateMutability": "view",
      "type": "function",
      "constant": true
    },
    {
      "inputs": [],
      "name": "totalShares",
      "outputs": [
        {
          "internalType": "uint256",
          "name": "",
          "type": "uint256"
        }
      ],
      "stateMutability": "view",
      "type": "function",
      "constant": true
    },
    {
      "inputs": [
        {
          "internalType": "address",
          "name": "newOwner",
          "type": "address"
        }
      ],
      "name": "transferOwnership",
      "outputs": [],
      "stateMutability": "nonpayable",
      "type": "function"
    },
    {
      "inputs": [],
      "name": "treasury",
      "outputs": [
        {
          "internalType": "address",
          "name": "",
          "type": "address"
        }
      ],
      "stateMutability": "view",
      "type": "function",
      "constant": true
    },
    {
      "inputs": [
        {
          "internalType": "address",
          "name": "",
          "type": "address"
        }
      ],
      "name": "userInfo",
      "outputs": [
        {
          "internalType": "uint256",
          "name": "shares",
          "type": "uint256"
        },
        {
          "internalType": "uint256",
          "name": "lastDepositedTime",
          "type": "uint256"
        },
        {
          "internalType": "uint256",
          "name": "shdwAtLastUserAction",
          "type": "uint256"
        },
        {
          "internalType": "uint256",
          "name": "lastUserActionTime",
          "type": "uint256"
        },
        {
          "internalType": "uint256",
          "name": "lockStartTime",
          "type": "uint256"
        },
        {
          "internalType": "uint256",
          "name": "lockEndTime",
          "type": "uint256"
        },
        {
          "internalType": "uint256",
          "name": "userBoostedShare",
          "type": "uint256"
        },
        {
          "internalType": "bool",
          "name": "locked",
          "type": "bool"
        },
        {
          "internalType": "uint256",
          "name": "lockedAmount",
          "type": "uint256"
        }
      ],
      "stateMutability": "view",
      "type": "function",
      "constant": true
    },
    {
      "inputs": [],
      "name": "withdrawFee",
      "outputs": [
        {
          "internalType": "uint256",
          "name": "",
          "type": "uint256"
        }
      ],
      "stateMutability": "view",
      "type": "function",
      "constant": true
    },
    {
      "inputs": [],
      "name": "withdrawFeeContract",
      "outputs": [
        {
          "internalType": "uint256",
          "name": "",
          "type": "uint256"
        }
      ],
      "stateMutability": "view",
      "type": "function",
      "constant": true
    },
    {
      "inputs": [],
      "name": "withdrawFeePeriod",
      "outputs": [
        {
          "internalType": "uint256",
          "name": "",
          "type": "uint256"
        }
      ],
      "stateMutability": "view",
      "type": "function",
      "constant": true
    },
    {
      "inputs": [
        {
          "internalType": "contract IERC20",
          "name": "dummyToken",
          "type": "address"
        }
      ],
      "name": "init",
      "outputs": [],
      "stateMutability": "nonpayable",
      "type": "function"
    },
    {
      "inputs": [
        {
          "internalType": "address",
          "name": "_user",
          "type": "address"
        }
      ],
      "name": "unlock",
      "outputs": [],
      "stateMutability": "nonpayable",
      "type": "function"
    },
    {
      "inputs": [
        {
          "internalType": "uint256",
          "name": "_amount",
          "type": "uint256"
        },
        {
          "internalType": "uint256",
          "name": "_lockDuration",
          "type": "uint256"
        }
      ],
      "name": "deposit",
      "outputs": [],
      "stateMutability": "nonpayable",
      "type": "function"
    },
    {
      "inputs": [
        {
          "internalType": "uint256",
          "name": "_amount",
          "type": "uint256"
        }
      ],
      "name": "withdrawByAmount",
      "outputs": [],
      "stateMutability": "nonpayable",
      "type": "function"
    },
    {
      "inputs": [
        {
          "internalType": "uint256",
          "name": "_shares",
          "type": "uint256"
        }
      ],
      "name": "withdraw",
      "outputs": [],
      "stateMutability": "nonpayable",
      "type": "function"
    },
    {
      "inputs": [],
      "name": "withdrawAll",
      "outputs": [],
      "stateMutability": "nonpayable",
      "type": "function"
    },
    {
      "inputs": [
        {
          "internalType": "address",
          "name": "_admin",
          "type": "address"
        }
      ],
      "name": "setAdmin",
      "outputs": [],
      "stateMutability": "nonpayable",
      "type": "function"
    },
    {
      "inputs": [
        {
          "internalType": "address",
          "name": "_treasury",
          "type": "address"
        }
      ],
      "name": "setTreasury",
      "outputs": [],
      "stateMutability": "nonpayable",
      "type": "function"
    },
    {
      "inputs": [
        {
          "internalType": "address",
          "name": "_operator",
          "type": "address"
        }
      ],
      "name": "setOperator",
      "outputs": [],
      "stateMutability": "nonpayable",
      "type": "function"
    },
    {
      "inputs": [
        {
          "internalType": "address",
          "name": "_boostContract",
          "type": "address"
        }
      ],
      "name": "setBoostContract",
      "outputs": [],
      "stateMutability": "nonpayable",
      "type": "function"
    },
    {
      "inputs": [
        {
          "internalType": "address",
          "name": "_VShdw",
          "type": "address"
        }
      ],
      "name": "setVShdwContract",
      "outputs": [],
      "stateMutability": "nonpayable",
      "type": "function"
    },
    {
      "inputs": [
        {
          "internalType": "address",
          "name": "_user",
          "type": "address"
        },
        {
          "internalType": "bool",
          "name": "_free",
          "type": "bool"
        }
      ],
      "name": "setFreePerformanceFeeUser",
      "outputs": [],
      "stateMutability": "nonpayable",
      "type": "function"
    },
    {
      "inputs": [
        {
          "internalType": "address",
          "name": "_user",
          "type": "address"
        },
        {
          "internalType": "bool",
          "name": "_free",
          "type": "bool"
        }
      ],
      "name": "setOverdueFeeUser",
      "outputs": [],
      "stateMutability": "nonpayable",
      "type": "function"
    },
    {
      "inputs": [
        {
          "internalType": "address",
          "name": "_user",
          "type": "address"
        },
        {
          "internalType": "bool",
          "name": "_free",
          "type": "bool"
        }
      ],
      "name": "setWithdrawFeeUser",
      "outputs": [],
      "stateMutability": "nonpayable",
      "type": "function"
    },
    {
      "inputs": [
        {
          "internalType": "uint256",
          "name": "_performanceFee",
          "type": "uint256"
        }
      ],
      "name": "setPerformanceFee",
      "outputs": [],
      "stateMutability": "nonpayable",
      "type": "function"
    },
    {
      "inputs": [
        {
          "internalType": "uint256",
          "name": "_performanceFeeContract",
          "type": "uint256"
        }
      ],
      "name": "setPerformanceFeeContract",
      "outputs": [],
      "stateMutability": "nonpayable",
      "type": "function"
    },
    {
      "inputs": [
        {
          "internalType": "uint256",
          "name": "_withdrawFee",
          "type": "uint256"
        }
      ],
      "name": "setWithdrawFee",
      "outputs": [],
      "stateMutability": "nonpayable",
      "type": "function"
    },
    {
      "inputs": [
        {
          "internalType": "uint256",
          "name": "_overdueFee",
          "type": "uint256"
        }
      ],
      "name": "setOverdueFee",
      "outputs": [],
      "stateMutability": "nonpayable",
      "type": "function"
    },
    {
      "inputs": [
        {
          "internalType": "uint256",
          "name": "_withdrawFeeContract",
          "type": "uint256"
        }
      ],
      "name": "setWithdrawFeeContract",
      "outputs": [],
      "stateMutability": "nonpayable",
      "type": "function"
    },
    {
      "inputs": [
        {
          "internalType": "uint256",
          "name": "_withdrawFeePeriod",
          "type": "uint256"
        }
      ],
      "name": "setWithdrawFeePeriod",
      "outputs": [],
      "stateMutability": "nonpayable",
      "type": "function"
    },
    {
      "inputs": [
        {
          "internalType": "uint256",
          "name": "_maxLockDuration",
          "type": "uint256"
        }
      ],
      "name": "setMaxLockDuration",
      "outputs": [],
      "stateMutability": "nonpayable",
      "type": "function"
    },
    {
      "inputs": [
        {
          "internalType": "uint256",
          "name": "_durationFactor",
          "type": "uint256"
        }
      ],
      "name": "setDurationFactor",
      "outputs": [],
      "stateMutability": "nonpayable",
      "type": "function"
    },
    {
      "inputs": [
        {
          "internalType": "uint256",
          "name": "_durationFactorOverdue",
          "type": "uint256"
        }
      ],
      "name": "setDurationFactorOverdue",
      "outputs": [],
      "stateMutability": "nonpayable",
      "type": "function"
    },
    {
      "inputs": [
        {
          "internalType": "uint256",
          "name": "_unlockFreeDuration",
          "type": "uint256"
        }
      ],
      "name": "setUnlockFreeDuration",
      "outputs": [],
      "stateMutability": "nonpayable",
      "type": "function"
    },
    {
      "inputs": [
        {
          "internalType": "uint256",
          "name": "_boostWeight",
          "type": "uint256"
        }
      ],
      "name": "setBoostWeight",
      "outputs": [],
      "stateMutability": "nonpayable",
      "type": "function"
    },
    {
      "inputs": [
        {
          "internalType": "address",
          "name": "_token",
          "type": "address"
        }
      ],
      "name": "inCaseTokensGetStuck",
      "outputs": [],
      "stateMutability": "nonpayable",
      "type": "function"
    },
    {
      "inputs": [],
      "name": "pause",
      "outputs": [],
      "stateMutability": "nonpayable",
      "type": "function"
    },
    {
      "inputs": [],
      "name": "unpause",
      "outputs": [],
      "stateMutability": "nonpayable",
      "type": "function"
    },
    {
      "inputs": [
        {
          "internalType": "address",
          "name": "_user",
          "type": "address"
        }
      ],
      "name": "calculatePerformanceFee",
      "outputs": [
        {
          "internalType": "uint256",
          "name": "",
          "type": "uint256"
        }
      ],
      "stateMutability": "view",
      "type": "function",
      "constant": true
    },
    {
      "inputs": [
        {
          "internalType": "address",
          "name": "_user",
          "type": "address"
        }
      ],
      "name": "calculateOverdueFee",
      "outputs": [
        {
          "internalType": "uint256",
          "name": "",
          "type": "uint256"
        }
      ],
      "stateMutability": "view",
      "type": "function",
      "constant": true
    },
    {
      "inputs": [
        {
          "internalType": "address",
          "name": "_user",
          "type": "address"
        },
        {
          "internalType": "uint256",
          "name": "_shares",
          "type": "uint256"
        }
      ],
      "name": "calculateWithdrawFee",
      "outputs": [
        {
          "internalType": "uint256",
          "name": "",
          "type": "uint256"
        }
      ],
      "stateMutability": "view",
      "type": "function",
      "constant": true
    },
    {
      "inputs": [],
      "name": "calculateTotalpendingShdwRewards",
      "outputs": [
        {
          "internalType": "uint256",
          "name": "",
          "type": "uint256"
        }
      ],
      "stateMutability": "view",
      "type": "function",
      "constant": true
    },
    {
      "inputs": [],
      "name": "getPricePerFullShare",
      "outputs": [
        {
          "internalType": "uint256",
          "name": "",
          "type": "uint256"
        }
      ],
      "stateMutability": "view",
      "type": "function",
      "constant": true
    },
    {
      "inputs": [],
      "name": "available",
      "outputs": [
        {
          "internalType": "uint256",
          "name": "",
          "type": "uint256"
        }
      ],
      "stateMutability": "view",
      "type": "function",
      "constant": true
    },
    {
      "inputs": [],
      "name": "balanceOf",
      "outputs": [
        {
          "internalType": "uint256",
          "name": "",
          "type": "uint256"
        }
      ],
      "stateMutability": "view",
      "type": "function",
      "constant": true
    }
  ],
  "bytecode": "0x60c060405262093a80600e556301e13380600f556301e1338060105562ed4e0060115564e8d4a5100060125560c860135560c8601455600a601555600a60165564e8d4a510006017556203f4806018553480156200005c57600080fd5b5060405162005021380380620050218339810160408190526200007f9162000157565b620000936200008d62000103565b62000107565b6000805460ff60a01b191690556001600160601b0319606096871b81166080529490951b90931660a052600880546001600160a01b039384166001600160a01b0319918216179091556009805492841692821692909217909155600a8054929093169116179055600b55620001f7565b3390565b600080546001600160a01b038381166001600160a01b0319831681178455604051919092169283917f8be0079c531659141344cd1fd0a4f28419497f9722a3daafe3b4186f6b6457e09190a35050565b60008060008060008060c0878903121562000170578182fd5b86516200017d81620001de565b60208801519096506200019081620001de565b6040880151909550620001a381620001de565b6060880151909450620001b681620001de565b6080880151909350620001c981620001de565b8092505060a087015190509295509295509295565b6001600160a01b0381168114620001f457600080fd5b50565b60805160601c60a05160601c614d9c6200028560003960008181610c6001528181610d1d0152818161208e015281816123a00152818161384e01526139280152600081816113ec01528181611937015281816124aa015281816129ab01528181612e0f01528181612e61015281816131650152818161324001528181613b7b0152613db30152614d9c6000f3fe608060405234801561001057600080fd5b50600436106105145760003560e01c806387788782116102a1578063c6ed51be1161016b578063e464c623116100e3578063f2fde38b11610097578063f851a4401161007c578063f851a440146108fb578063fc0c546a14610903578063fd253b641461090b57610514565b8063f2fde38b146108d5578063f786b958146108e857610514565b8063e73008bc116100c8578063e73008bc146108b2578063e941fa78146108ba578063f0f44260146108c257610514565b8063e464c623146108a2578063e4b37ef5146108aa57610514565b8063def68a9c1161013a578063df10b4e61161011f578063df10b4e61461087f578063dfcedeee14610887578063e2bbb1581461088f57610514565b8063def68a9c14610859578063def7869d1461086c57610514565b8063c6ed51be14610836578063cc9cfba114610849578063ccd34cd514610779578063d4b0de2f1461085157610514565b8063acaf88cd11610219578063bc3d652a116101cd578063bdca9165116101b2578063bdca916514610808578063beba0fa014610810578063c54d349c1461082357610514565b8063bc3d652a146107f8578063bc75f4b81461080057610514565b8063b6857844116101fe578063b6857844146105a2578063b6ac642a146107d2578063bb9f408d146107e557610514565b8063acaf88cd146107b7578063b3ab15fb146107bf57610514565b8063948a03f211610270578063a3639b3911610255578063a3639b3914610794578063a5834e06146107a7578063aaada5da146107af57610514565b8063948a03f21461077957806395dc14e11461078157610514565b8063877887821461074357806387d4bda91461074b5780638da5cb5b1461075e57806393c99e6a1461076657610514565b80634e4de1e9116103e2578063668679ba1161035a578063731ff24a1161030e57806378b4330f116102f357806378b4330f146105d05780638456cb5914610733578063853828b61461073b57610514565b8063731ff24a1461072357806377c7b8fc1461072b57610514565b806370897b231161033f57806370897b2314610700578063715018a614610713578063722713f71461071b57610514565b8063668679ba146106da578063704b6c02146106ed57610514565b8063570ca735116103b157806361d027b31161039657806361d027b3146106b757806361fa6368146106bf57806362122f5a146106c757610514565b8063570ca7351461069a5780635c975abb146106af57610514565b80634e4de1e9146106645780634f1bfc9e1461067757806351fb26df1461067f5780635521e9bf1461068757610514565b80632cfc5f01116104905780633eb78874116104445780633fec4e32116104295780633fec4e3214610629578063423b93ed1461064957806348a0d7541461065c57610514565b80633eb78874146106195780633f4ba83a1461062157610514565b80632f6c493c116104755780632f6c493c146105eb57806335981921146105fe5780633a98ef391461061157610514565b80632cfc5f01146105d05780632e1a7d4d146105d857610514565b80631959a002116104e75780631ea30fef116104cc5780631ea30fef146105a25780631efac1b8146105aa57806329a5cfd6146105bd57610514565b80631959a0021461056757806319ab453c1461058f57610514565b806301e813261461051957806305a9f274146105375780630c59696b1461053f57806314ff303914610554575b600080fd5b610521610913565b60405161052e9190614b9f565b60405180910390f35b61052161091b565b61055261054d366004614171565b610921565b005b610552610562366004614171565b6109fa565b61057a6105753660046140d6565b610abc565b60405161052e99989796959493929190614bf5565b61055261059d3660046140d6565b610b0e565b610521610db2565b6105526105b8366004614171565b610dbc565b6105216105cb36600461412a565b610e7f565b610521610fce565b6105526105e6366004614171565b610fd5565b6105526105f93660046140d6565b611025565b61055261060c366004614171565b611122565b6105216111e2565b6105216111e8565b6105526111ee565b61063c6106373660046140d6565b61127a565b60405161052e91906142bf565b6105526106573660046140f2565b61128f565b6105216113ac565b6105526106723660046140f2565b611476565b610521611593565b610521611599565b610552610695366004614171565b61159f565b6106a26115f1565b60405161052e91906141de565b61063c61160d565b6106a261162e565b6106a261164a565b6105526106d53660046140d6565b611666565b61063c6106e83660046140d6565b61177a565b6105526106fb3660046140d6565b61178f565b61055261070e366004614171565b61185a565b61055261191c565b610521611930565b6105216119e8565b6105216119f8565b610552611a4f565b610552611adb565b610521611af4565b61063c6107593660046140d6565b611afa565b6106a2611b0f565b610552610774366004614171565b611b2b565b610521611bf1565b61052161078f3660046140d6565b611bfa565b6105526107a2366004614171565b611d6b565b610521611e2b565b610521611e31565b610521611e37565b6105526107cd3660046140d6565b611e3d565b6105526107e0366004614171565b611f08565b6105526107f3366004614171565b611fca565b6106a261208c565b6105216120b0565b6105216120b6565b61055261081e3660046140f2565b6120bc565b610552610831366004614171565b6121d9565b6105216108443660046140d6565b612299565b61052161239b565b610521612451565b6105526108673660046140d6565b612457565b61055261087a3660046140d6565b6125fa565b61052161270e565b6106a2612714565b61055261089d3660046141a1565b612730565b610521612788565b61052161278e565b610521612794565b61052161279a565b6105526108d03660046140d6565b6127a0565b6105526108e33660046140d6565b61286b565b6105526108f6366004614171565b6128c9565b6106a261298d565b6106a26129a9565b6105216129cd565b6305265c0081565b600d5481565b60085473ffffffffffffffffffffffffffffffffffffffff16331461097b576040517f08c379a000000000000000000000000000000000000000000000000000000000815260040161097290614929565b60405180910390fd5b64e8d4a510008111156109ba576040517f08c379a0000000000000000000000000000000000000000000000000000000008152600401610972906147dd565b60178190556040517ff4bd1c5978320077e792afbb3911e8cab1325ce28a6b3e67f9067a1d80692961906109ef908390614b9f565b60405180910390a150565b60085473ffffffffffffffffffffffffffffffffffffffff163314610a4b576040517f08c379a000000000000000000000000000000000000000000000000000000000815260040161097290614929565b6101f4811115610a87576040517f08c379a000000000000000000000000000000000000000000000000000000000815260040161097290614aae565b60168190556040517fcab352e118188b8a2f20a2e8c4ce1241ce2c1740aac4f17c5b0831e65824d8ef906109ef908390614b9f565b6003602081905260009182526040909120805460018201546002830154938301546004840154600585015460068601546007870154600890970154959794969495939492939192909160ff9091169089565b610b166129d7565b6040517f70a0823100000000000000000000000000000000000000000000000000000000815260009073ffffffffffffffffffffffffffffffffffffffff8316906370a0823190610b6b9033906004016141de565b60206040518083038186803b158015610b8357600080fd5b505afa158015610b97573d6000803e3d6000fd5b505050506040513d601f19601f82011682018060405250810190610bbb9190614189565b905080610bf4576040517f08c379a0000000000000000000000000000000000000000000000000000000008152600401610972906144e8565b610c1673ffffffffffffffffffffffffffffffffffffffff8316333084612a4a565b6040517f095ea7b300000000000000000000000000000000000000000000000000000000815273ffffffffffffffffffffffffffffffffffffffff83169063095ea7b390610c8a907f0000000000000000000000000000000000000000000000000000000000000000908590600401614230565b602060405180830381600087803b158015610ca457600080fd5b505af1158015610cb8573d6000803e3d6000fd5b505050506040513d601f19601f82011682018060405250810190610cdc9190614155565b50600b546040517fe2bbb15800000000000000000000000000000000000000000000000000000000815273ffffffffffffffffffffffffffffffffffffffff7f0000000000000000000000000000000000000000000000000000000000000000169163e2bbb15891610d5391908590600401614bcc565b600060405180830381600087803b158015610d6d57600080fd5b505af1158015610d81573d6000803e3d6000fd5b50506040517f57a86f7d14ccde89e22870afe839e3011216827daa9b24e18629f0a1e9d6cc14925060009150a15050565b6509184e72a00081565b60085473ffffffffffffffffffffffffffffffffffffffff163314610e0d576040517f08c379a000000000000000000000000000000000000000000000000000000000815260040161097290614929565b62093a80811115610e4a576040517f08c379a0000000000000000000000000000000000000000000000000000000008152600401610972906149f4565b60188190556040517fb89ddaddb7435be26824cb48d2d0186c9525a2e1ec057abcb502704cdc0686cc906109ef908390614b9f565b73ffffffffffffffffffffffffffffffffffffffff821660009081526003602052604081208054831115610eb257805492505b3360009081526005602052604090205460ff16158015610ee257506018548160010154610edf9190614c36565b42105b15610fc2576000610ef161239b565b610ef9611930565b610f039190614c36565b8254909150600090610f1a64e8d4a5100087614c87565b610f249190614c4e565b90506000610f3187612af3565b60068501546007548654610f459087614c87565b610f4f9190614c4e565b610f599190614cc4565b610f639190614cc4565b9050600064e8d4a51000610f778484614c87565b610f819190614c4e565b601554909150610f9033612b11565b15610f9a57506016545b6000612710610fa98385614c87565b610fb39190614c4e565b9750610fc89650505050505050565b60009150505b92915050565b62093a8081565b610fdd612b17565b60008111611017576040517f08c379a000000000000000000000000000000000000000000000000000000000815260040161097290614389565b611022816000612b56565b50565b803373ffffffffffffffffffffffffffffffffffffffff821614806110615750600a5473ffffffffffffffffffffffffffffffffffffffff1633145b611097576040517f08c379a0000000000000000000000000000000000000000000000000000000008152600401610972906145ea565b61109f612b17565b73ffffffffffffffffffffffffffffffffffffffff82166000908152600360205260409020600781015460ff1680156110db5750428160050154105b611111576040517f08c379a000000000000000000000000000000000000000000000000000000000815260040161097290614b68565b61111d60008085612f29565b505050565b60085473ffffffffffffffffffffffffffffffffffffffff163314611173576040517f08c379a000000000000000000000000000000000000000000000000000000000815260040161097290614929565b600081116111ad576040517f08c379a000000000000000000000000000000000000000000000000000000000815260040161097290614780565b60118190556040517f18b6d179114082d7eda9837e15a39eb30032d5f3df00487a67541398f48fabfe906109ef908390614b9f565b60075481565b60145481565b60085473ffffffffffffffffffffffffffffffffffffffff16331461123f576040517f08c379a000000000000000000000000000000000000000000000000000000000815260040161097290614929565b61124761359f565b61124f6135dd565b6040517f7805862f689e2f13df9f062ff482ad3ad112aca9e0847911ed832e158c525b3390600090a1565b60046020526000908152604090205460ff1681565b60085473ffffffffffffffffffffffffffffffffffffffff1633146112e0576040517f08c379a000000000000000000000000000000000000000000000000000000000815260040161097290614929565b73ffffffffffffffffffffffffffffffffffffffff821661132d576040517f08c379a000000000000000000000000000000000000000000000000000000000815260040161097290614749565b73ffffffffffffffffffffffffffffffffffffffff821660008181526004602052604080822080547fffffffffffffffffffffffffffffffffffffffffffffffffffffffffffffff001685151590811790915590519092917f3d7902bc9a6665bd7caf4240b834bb805d3cd68256889e9f8d2e40a10be41d4491a35050565b6040517f70a0823100000000000000000000000000000000000000000000000000000000815260009073ffffffffffffffffffffffffffffffffffffffff7f000000000000000000000000000000000000000000000000000000000000000016906370a08231906114219030906004016141de565b60206040518083038186803b15801561143957600080fd5b505afa15801561144d573d6000803e3d6000fd5b505050506040513d601f19601f820116820180604052508101906114719190614189565b905090565b60085473ffffffffffffffffffffffffffffffffffffffff1633146114c7576040517f08c379a000000000000000000000000000000000000000000000000000000000815260040161097290614929565b73ffffffffffffffffffffffffffffffffffffffff8216611514576040517f08c379a000000000000000000000000000000000000000000000000000000000815260040161097290614749565b73ffffffffffffffffffffffffffffffffffffffff821660008181526006602052604080822080547fffffffffffffffffffffffffffffffffffffffffffffffffffffffffffffff001685151590811790915590519092917f3d7902bc9a6665bd7caf4240b834bb805d3cd68256889e9f8d2e40a10be41d4491a35050565b600f5481565b600b5481565b6115a7612b17565b6509184e72a00081116115e6576040517f08c379a000000000000000000000000000000000000000000000000000000000815260040161097290614960565b611022600082612b56565b600a5473ffffffffffffffffffffffffffffffffffffffff1681565b60005474010000000000000000000000000000000000000000900460ff1690565b60095473ffffffffffffffffffffffffffffffffffffffff1681565b60025473ffffffffffffffffffffffffffffffffffffffff1681565b60085473ffffffffffffffffffffffffffffffffffffffff1633146116b7576040517f08c379a000000000000000000000000000000000000000000000000000000000815260040161097290614929565b73ffffffffffffffffffffffffffffffffffffffff8116611704576040517f08c379a000000000000000000000000000000000000000000000000000000000815260040161097290614749565b600280547fffffffffffffffffffffffff00000000000000000000000000000000000000001673ffffffffffffffffffffffffffffffffffffffff83811691909117918290556040517faf38f30be8d095bc1461196db21930b7d89226e57b0167f9d6abe951c53f3332926109ef9216906141de565b60066020526000908152604090205460ff1681565b6117976129d7565b73ffffffffffffffffffffffffffffffffffffffff81166117e4576040517f08c379a000000000000000000000000000000000000000000000000000000000815260040161097290614749565b600880547fffffffffffffffffffffffff00000000000000000000000000000000000000001673ffffffffffffffffffffffffffffffffffffffff83811691909117918290556040517f71614071b88dee5e0b2ae578a9dd7b2ebbe9ae832ba419dc0242cd065a290b6c926109ef9216906141de565b60085473ffffffffffffffffffffffffffffffffffffffff1633146118ab576040517f08c379a000000000000000000000000000000000000000000000000000000000815260040161097290614929565b6107d08111156118e7576040517f08c379a0000000000000000000000000000000000000000000000000000000008152600401610972906146b5565b60138190556040517fefeafcf03e479a9566d7ef321b4816de0ba19cfa3cd0fae2f8c5f4a0afb342c4906109ef908390614b9f565b6119246129d7565b61192e600061364d565b565b6000600c547f000000000000000000000000000000000000000000000000000000000000000073ffffffffffffffffffffffffffffffffffffffff166370a08231306040518263ffffffff1660e01b815260040161198e91906141de565b60206040518083038186803b1580156119a657600080fd5b505afa1580156119ba573d6000803e3d6000fd5b505050506040513d601f19601f820116820180604052508101906119de9190614189565b6114719190614c36565b6b204fce5e3e2502611000000081565b6000600754600014611a4257600754611a0f61239b565b611a17611930565b611a219190614c36565b611a3390670de0b6b3a7640000614c87565b611a3d9190614c4e565b611471565b50670de0b6b3a764000090565b60085473ffffffffffffffffffffffffffffffffffffffff163314611aa0576040517f08c379a000000000000000000000000000000000000000000000000000000000815260040161097290614929565b611aa8612b17565b611ab06136c2565b6040517f6985a02210a168e66602d3235cb6db0e70f92b3ba4d376a33c0f3d9434bff62590600090a1565b3360009081526003602052604090205461192e90610fd5565b60135481565b60056020526000908152604090205460ff1681565b60005473ffffffffffffffffffffffffffffffffffffffff1690565b60085473ffffffffffffffffffffffffffffffffffffffff163314611b7c576040517f08c379a000000000000000000000000000000000000000000000000000000000815260040161097290614929565b652d79883d2000811115611bbc576040517f08c379a00000000000000000000000000000000000000000000000000000000081526004016109729061448b565b60128190556040517f7666dfff8c3377938e522b4eed3aff079973a976f95969db60a406d49f40da4e906109ef908390614b9f565b64e8d4a5100081565b73ffffffffffffffffffffffffffffffffffffffff81166000908152600360205260408120805415801590611c335750600781015460ff165b8015611c65575073ffffffffffffffffffffffffffffffffffffffff831660009081526006602052604090205460ff16155b8015611c81575042600e548260050154611c7f9190614c36565b105b15611d60576000611c9061239b565b611c98611930565b611ca29190614c36565b60068301546007548454929350600092611cbc9085614c87565b611cc69190614c4e565b611cd09190614cc4565b90506000836008015482611ce49190614cc4565b90506000600e54856005015442611cfb9190614cc4565b611d059190614cc4565b9050601154811115611d1657506011545b600060115460175483611d299190614c87565b611d339190614c4e565b9050600064e8d4a51000611d478386614c87565b611d519190614c4e565b9750611d669650505050505050565b60009150505b919050565b60085473ffffffffffffffffffffffffffffffffffffffff163314611dbc576040517f08c379a000000000000000000000000000000000000000000000000000000000815260040161097290614929565b60008111611df6576040517f08c379a00000000000000000000000000000000000000000000000000000000081526004016109729061441d565b60108190556040517f9478eb023aac0a7d58a4e935377056bf27cf5b72a2300725f831817a8f62fbde906109ef908390614b9f565b60175481565b600e5481565b60115481565b611e456129d7565b73ffffffffffffffffffffffffffffffffffffffff8116611e92576040517f08c379a000000000000000000000000000000000000000000000000000000000815260040161097290614749565b600a80547fffffffffffffffffffffffff00000000000000000000000000000000000000001673ffffffffffffffffffffffffffffffffffffffff83811691909117918290556040517fda12ee837e6978172aaf54b16145ffe08414fd8710092ef033c71b8eb6ec189a926109ef9216906141de565b60085473ffffffffffffffffffffffffffffffffffffffff163314611f59576040517f08c379a000000000000000000000000000000000000000000000000000000000815260040161097290614929565b6101f4811115611f95576040517f08c379a000000000000000000000000000000000000000000000000000000000815260040161097290614aae565b60158190556040517fd5fe46099fa396290a7f57e36c3c3c8774e2562c18ed5d1dcc0fa75071e03f1d906109ef908390614b9f565b60085473ffffffffffffffffffffffffffffffffffffffff16331461201b576040517f08c379a000000000000000000000000000000000000000000000000000000000815260040161097290614929565b6107d0811115612057576040517f08c379a0000000000000000000000000000000000000000000000000000000008152600401610972906146b5565b60148190556040517fc5d25457b67b87678c987375af13f6e50beb3ad7bfd009da26766ae986eaa20d906109ef908390614b9f565b7f000000000000000000000000000000000000000000000000000000000000000081565b60125481565b6107d081565b60085473ffffffffffffffffffffffffffffffffffffffff16331461210d576040517f08c379a000000000000000000000000000000000000000000000000000000000815260040161097290614929565b73ffffffffffffffffffffffffffffffffffffffff821661215a576040517f08c379a000000000000000000000000000000000000000000000000000000000815260040161097290614749565b73ffffffffffffffffffffffffffffffffffffffff821660008181526005602052604080822080547fffffffffffffffffffffffffffffffffffffffffffffffffffffffffffffff001685151590811790915590519092917f3d7902bc9a6665bd7caf4240b834bb805d3cd68256889e9f8d2e40a10be41d4491a35050565b60085473ffffffffffffffffffffffffffffffffffffffff16331461222a576040517f08c379a000000000000000000000000000000000000000000000000000000000815260040161097290614929565b60008111612264576040517f08c379a000000000000000000000000000000000000000000000000000000000815260040161097290614b0b565b600e8190556040517ff84bf2b901cfc02956d4e69556d7448cef4ea13587e7714dba7c6d697091e7ad906109ef908390614b9f565b73ffffffffffffffffffffffffffffffffffffffff811660009081526003602052604081208054158015906122d35750600781015460ff16155b8015612305575073ffffffffffffffffffffffffffffffffffffffff831660009081526004602052604090205460ff16155b15611d6057600061231461239b565b61231c611930565b6123269190614c36565b9050600060075482846000015461233d9190614c87565b6123479190614c4e565b9050600083600201548261235b9190614cc4565b60135490915061236a87612b11565b1561237457506014545b60006127106123838385614c87565b61238d9190614c4e565b9650611d6695505050505050565b6000807f000000000000000000000000000000000000000000000000000000000000000073ffffffffffffffffffffffffffffffffffffffff1663c799b59d600b54306040518363ffffffff1660e01b81526004016123fb929190614ba8565b60206040518083038186803b15801561241357600080fd5b505afa158015612427573d6000803e3d6000fd5b505050506040513d601f19601f8201168201806040525081019061244b9190614189565b91505090565b6101f481565b60085473ffffffffffffffffffffffffffffffffffffffff1633146124a8576040517f08c379a000000000000000000000000000000000000000000000000000000000815260040161097290614929565b7f000000000000000000000000000000000000000000000000000000000000000073ffffffffffffffffffffffffffffffffffffffff168173ffffffffffffffffffffffffffffffffffffffff16141561252e576040517f08c379a00000000000000000000000000000000000000000000000000000000081526004016109729061451f565b6040517f70a0823100000000000000000000000000000000000000000000000000000000815260009073ffffffffffffffffffffffffffffffffffffffff8316906370a08231906125839030906004016141de565b60206040518083038186803b15801561259b57600080fd5b505afa1580156125af573d6000803e3d6000fd5b505050506040513d601f19601f820116820180604052508101906125d39190614189565b90506125f673ffffffffffffffffffffffffffffffffffffffff83163383613732565b5050565b60085473ffffffffffffffffffffffffffffffffffffffff16331461264b576040517f08c379a000000000000000000000000000000000000000000000000000000000815260040161097290614929565b73ffffffffffffffffffffffffffffffffffffffff8116612698576040517f08c379a000000000000000000000000000000000000000000000000000000000815260040161097290614749565b600180547fffffffffffffffffffffffff00000000000000000000000000000000000000001673ffffffffffffffffffffffffffffffffffffffff83811691909117918290556040517f8f49a182922022d9119a1a6aeeca151b4a5665e86bd61c1ff32e152d459558b2926109ef9216906141de565b60185481565b60015473ffffffffffffffffffffffffffffffffffffffff1681565b612738612b17565b60008211806127475750600081115b61277d576040517f08c379a00000000000000000000000000000000000000000000000000000000081526004016109729061431b565b6125f6828233612f29565b60105481565b60165481565b600c5481565b60155481565b6127a86129d7565b73ffffffffffffffffffffffffffffffffffffffff81166127f5576040517f08c379a000000000000000000000000000000000000000000000000000000000815260040161097290614749565b600980547fffffffffffffffffffffffff00000000000000000000000000000000000000001673ffffffffffffffffffffffffffffffffffffffff83811691909117918290556040517fafa147634b29e2c7bd53ce194256b9f41cfb9ba3036f2b822fdd1d965beea086926109ef9216906141de565b6128736129d7565b73ffffffffffffffffffffffffffffffffffffffff81166128c0576040517f08c379a0000000000000000000000000000000000000000000000000000000008152600401610972906143c0565b6110228161364d565b60085473ffffffffffffffffffffffffffffffffffffffff16331461291a576040517f08c379a000000000000000000000000000000000000000000000000000000000815260040161097290614929565b6305265c00811115612958576040517f08c379a000000000000000000000000000000000000000000000000000000000815260040161097290614897565b600f8190556040517fcab2f3455b51b6ca5377e84fccd0f890b6f6ca36c02e18b6d36cb34f469fe4fe906109ef908390614b9f565b60085473ffffffffffffffffffffffffffffffffffffffff1681565b7f000000000000000000000000000000000000000000000000000000000000000081565b652d79883d200081565b6129df613751565b73ffffffffffffffffffffffffffffffffffffffff166129fd611b0f565b73ffffffffffffffffffffffffffffffffffffffff161461192e576040517f08c379a0000000000000000000000000000000000000000000000000000000008152600401610972906148f4565b612aed846323b872dd60e01b858585604051602401612a6b939291906141ff565b604080517fffffffffffffffffffffffffffffffffffffffffffffffffffffffffffffffe08184030181529190526020810180517bffffffffffffffffffffffffffffffffffffffffffffffffffffffff167fffffffff0000000000000000000000000000000000000000000000000000000090931692909217909152613755565b50505050565b6000612afe82611bfa565b612b0783612299565b610fc89190614c36565b3b151590565b612b1f61160d565b1561192e576040517f08c379a000000000000000000000000000000000000000000000000000000000815260040161097290614712565b3360009081526003602052604090208054831115612ba0576040517f08c379a00000000000000000000000000000000000000000000000000000000081526004016109729061457c565b42816005015410612bdd576040517f08c379a000000000000000000000000000000000000000000000000000000000815260040161097290614454565b60025473ffffffffffffffffffffffffffffffffffffffff1615612c84576002546040517f51cff8d900000000000000000000000000000000000000000000000000000000815273ffffffffffffffffffffffffffffffffffffffff909116906351cff8d990612c519033906004016141de565b600060405180830381600087803b158015612c6b57600080fd5b505af1158015612c7f573d6000803e3d6000fd5b505050505b80548390600090612ca16b204fce5e3e2502611000000084614c87565b612cab9190614c4e565b9050612cb561380b565b612cbe336139e2565b84158015612ccc5750600084115b15612d0d576000612cdb611930565b90508060075486612cec9190614c87565b612cf69190614c4e565b8454909350831115612d0757835492505b50612d34565b82546b204fce5e3e2502611000000090612d279083614c87565b612d319190614c4e565b91505b600060075483612d42611930565b612d4c9190614c87565b612d569190614c4e565b905082846000016000828254612d6c9190614cc4565b925050819055508260076000828254612d859190614cc4565b90915550503360009081526005602052604090205460ff16158015612dba57506018548460010154612db79190614c36565b42105b15612e4757601554612dcb33612b11565b15612dd557506016545b6000612710612de48385614c87565b612dee9190614c4e565b600954909150612e389073ffffffffffffffffffffffffffffffffffffffff7f00000000000000000000000000000000000000000000000000000000000000008116911683613732565b612e428184614cc4565b925050505b612e8873ffffffffffffffffffffffffffffffffffffffff7f0000000000000000000000000000000000000000000000000000000000000000163383613732565b835415612eba57600754612e9a611930565b8554612ea69190614c87565b612eb09190614c4e565b6002850155612ec2565b600060028501555b426003850155612ed133613e53565b3373ffffffffffffffffffffffffffffffffffffffff167ff279e6a1f5e320cca91135676d9cb6e44ca8a08c0b88342bcdb1144f6511b5688285604051612f19929190614bcc565b60405180910390a2505050505050565b73ffffffffffffffffffffffffffffffffffffffff8116600090815260036020526040902080541580612f5c5750600084115b15612fa0576509184e72a0008411612fa0576040517f08c379a00000000000000000000000000000000000000000000000000000000081526004016109729061483a565b600581015483904211612ffe578415612fdd574260048301556008820154600d8054600090612fd0908490614cc4565b9091555050600060088301555b81600401548260050154612ff19190614cc4565b612ffb9082614c36565b90505b83158061300e575062093a808110155b613044576040517f08c379a000000000000000000000000000000000000000000000000000000000815260040161097290614621565b600f54811115613080576040517f08c379a0000000000000000000000000000000000000000000000000000000008152600401610972906145b3565b60025473ffffffffffffffffffffffffffffffffffffffff161561312b576002546040517f0efe6a8b00000000000000000000000000000000000000000000000000000000815273ffffffffffffffffffffffffffffffffffffffff90911690630efe6a8b906130f890869089908990600401614256565b600060405180830381600087803b15801561311257600080fd5b505af1158015613126573d6000803e3d6000fd5b505050505b61313361380b565b6007546131905760006131446113ac565b60095490915061318e9073ffffffffffffffffffffffffffffffffffffffff7f00000000000000000000000000000000000000000000000000000000000000008116911683613732565b505b613199836139e2565b83156132105742826005015410156131c85742600483018190556131be908590614c36565b60058301556131e2565b838260050160008282546131dc9190614c36565b90915550505b6007820180547fffffffffffffffffffffffffffffffffffffffffffffffffffffffffffffff001660011790555b60008060008061321e611930565b9050881561326c5761326873ffffffffffffffffffffffffffffffffffffffff7f00000000000000000000000000000000000000000000000000000000000000001688308c612a4a565b8892505b8554158015906132805750600786015460ff165b156132f95760075486546132949083614c87565b61329e9190614c4e565b91506132aa8284614c36565b92508560000154600760008282546132c29190614cc4565b90915550506000865560048601544214156132f95760088601829055600d80548391906000906132f3908490614c36565b90915550505b600754156133295761330b8282614cc4565b6007546133189085614c87565b6133229190614c4e565b935061332d565b8293505b8560040154866005015411156134b0576000601054601254886004015489600501546133599190614cc4565b6133639190614c87565b61336d9190614c4e565b9050600064e8d4a510006133818784614c87565b61338b9190614c4e565b90506133978187614c36565b9550858860000160008282546133ad9190614c36565b909155506000905064e8d4a510006133c58785614c87565b6133cf9190614c4e565b9050808960060160008282546133e59190614c36565b9250508190555080600c60008282546133fe9190614c36565b925050819055508b8960080160008282546134199190614c36565b925050819055508b600d60008282546134329190614c36565b925050819055508973ffffffffffffffffffffffffffffffffffffffff167f2b943276e5d747f6f7dd46d3b880d8874cb8d6b9b88ca1903990a2738e7dc7a18a600801548b600001548c600401548d6005015461348f9190614cc4565b426040516134a09493929190614bda565b60405180910390a25050506134ca565b838660000160008282546134c49190614c36565b90915550505b60008911806134d95750600088115b156134e5574260018701555b83600760008282546134f79190614c36565b9091555050600686015460075461350c611930565b88546135189190614c87565b6135229190614c4e565b61352c9190614cc4565b600287015542600387015561354087613e53565b8673ffffffffffffffffffffffffffffffffffffffff167f7162984403f6c73c8639375d45a9187dfd04602231bd8e587c415718b5f7e5f98a868b4260405161358c9493929190614bda565b60405180910390a2505050505050505050565b6135a761160d565b61192e576040517f08c379a000000000000000000000000000000000000000000000000000000000815260040161097290614352565b6135e561359f565b600080547fffffffffffffffffffffff00ffffffffffffffffffffffffffffffffffffffff1690557f5db9ee0a495bf2e6ff9c91a7834c1ba4fdd244a5e8aa4e537bd38aeae4b073aa613636613751565b60405161364391906141de565b60405180910390a1565b6000805473ffffffffffffffffffffffffffffffffffffffff8381167fffffffffffffffffffffffff0000000000000000000000000000000000000000831681178455604051919092169283917f8be0079c531659141344cd1fd0a4f28419497f9722a3daafe3b4186f6b6457e09190a35050565b6136ca612b17565b600080547fffffffffffffffffffffff00ffffffffffffffffffffffffffffffffffffffff16740100000000000000000000000000000000000000001790557f62e78cea01bee320cd4e420270b5ea74000d11b0c9f74754ebdbfc544b05a258613636613751565b61111d8363a9059cbb60e01b8484604051602401612a6b929190614230565b3390565b60006137b7826040518060400160405280602081526020017f5361666545524332303a206c6f772d6c6576656c2063616c6c206661696c65648152508573ffffffffffffffffffffffffffffffffffffffff16613f4d9092919063ffffffff16565b80519091501561111d57808060200190518101906137d59190614155565b61111d576040517f08c379a000000000000000000000000000000000000000000000000000000000815260040161097290614a51565b600b546040517fc799b59d00000000000000000000000000000000000000000000000000000000815260009173ffffffffffffffffffffffffffffffffffffffff7f0000000000000000000000000000000000000000000000000000000000000000169163c799b59d91613883913090600401614ba8565b60206040518083038186803b15801561389b57600080fd5b505afa1580156138af573d6000803e3d6000fd5b505050506040513d601f19601f820116820180604052508101906138d39190614189565b905080156110225760006138e56113ac565b600b546040517f441a3e7000000000000000000000000000000000000000000000000000000000815291925073ffffffffffffffffffffffffffffffffffffffff7f0000000000000000000000000000000000000000000000000000000000000000169163441a3e709161395e91600090600401614bcc565b600060405180830381600087803b15801561397857600080fd5b505af115801561398c573d6000803e3d6000fd5b50505050600061399a6113ac565b9050337fc9695243a805adb74c91f28311176c65b417e842d5699893cef56d18bfa48cba6139c88484614cc4565b6040516139d59190614b9f565b60405180910390a2505050565b73ffffffffffffffffffffffffffffffffffffffff811660009081526003602052604090208054156125f657600781015460ff1615613cda57600081600601546007548360000154613a32611930565b613a3c9190614c87565b613a469190614c4e565b613a509190614cc4565b90508160060154600c6000828254613a689190614cc4565b909155505060006006830181905582546007805491929091613a8b908490614cc4565b909155505073ffffffffffffffffffffffffffffffffffffffff831660009081526006602052604090205460ff16158015613ad6575042600e548360050154613ad49190614c36565b105b15613bb5576000826008015482613aed9190614cc4565b90506000600e54846005015442613b049190614cc4565b613b0e9190614cc4565b9050601154811115613b1f57506011545b600060115460175483613b329190614c87565b613b3c9190614c4e565b9050600064e8d4a51000613b508386614c87565b613b5a9190614c4e565b600954909150613ba49073ffffffffffffffffffffffffffffffffffffffff7f00000000000000000000000000000000000000000000000000000000000000008116911683613732565b613bae8186614cc4565b9450505050505b6000613bbf611930565b90506000600754600014613bf557613bd78383614cc4565b600754613be49085614c87565b613bee9190614c4e565b9050613bf8565b50815b80845560078054829190600090613c10908490614c36565b90915550506005840154421115613cd2576007840180547fffffffffffffffffffffffffffffffffffffffffffffffffffffffffffffff00169055600060048501819055600585018190556008850154600d805491929091613c73908490614cc4565b90915550506000600885015560405173ffffffffffffffffffffffffffffffffffffffff8616907ff7870c5b224cbc19873599e46ccfc7103934650509b1af0c3ce90138377c200490613cc99086904290614bcc565b60405180910390a25b5050506125f6565b73ffffffffffffffffffffffffffffffffffffffff821660009081526004602052604090205460ff166125f6576000600754613d14611930565b8354613d209190614c87565b613d2a9190614c4e565b9050816000015460076000828254613d429190614cc4565b909155505060008083556002830154613d5b9083614cc4565b601354909150613d6a85612b11565b15613d7457506014545b6000612710613d838385614c87565b613d8d9190614c4e565b90508015613de957600954613ddc9073ffffffffffffffffffffffffffffffffffffffff7f00000000000000000000000000000000000000000000000000000000000000008116911683613732565b613de68185614cc4565b93505b6000613df3611930565b90506000600754600014613e2957613e0b8683614cc4565b600754613e189088614c87565b613e229190614c4e565b9050613e2c565b50845b80875560078054829190600090613e44908490614c36565b90915550505050505050505050565b60015473ffffffffffffffffffffffffffffffffffffffff16156110225773ffffffffffffffffffffffffffffffffffffffff8116600090815260036020526040812060048101546005820154919291613ead9190614cc4565b6001546008840154600d546010546040517f87356ef700000000000000000000000000000000000000000000000000000000815294955073ffffffffffffffffffffffffffffffffffffffff909316936387356ef793613f169389939092889290600401614284565b600060405180830381600087803b158015613f3057600080fd5b505af1158015613f44573d6000803e3d6000fd5b50505050505050565b6060613f5c8484600085613f66565b90505b9392505050565b606082471015613fa2576040517f08c379a000000000000000000000000000000000000000000000000000000000815260040161097290614658565b613fab85614067565b613fe1576040517f08c379a0000000000000000000000000000000000000000000000000000000008152600401610972906149bd565b6000808673ffffffffffffffffffffffffffffffffffffffff16858760405161400a91906141c2565b60006040518083038185875af1925050503d8060008114614047576040519150601f19603f3d011682016040523d82523d6000602084013e61404c565b606091505b509150915061405c828286614083565b979650505050505050565b73ffffffffffffffffffffffffffffffffffffffff163b151590565b60608315614092575081613f5f565b8251156140a25782518084602001fd5b816040517f08c379a000000000000000000000000000000000000000000000000000000000815260040161097291906142ca565b6000602082840312156140e7578081fd5b8135613f5f81614d36565b60008060408385031215614104578081fd5b823561410f81614d36565b9150602083013561411f81614d58565b809150509250929050565b6000806040838503121561413c578182fd5b823561414781614d36565b946020939093013593505050565b600060208284031215614166578081fd5b8151613f5f81614d58565b600060208284031215614182578081fd5b5035919050565b60006020828403121561419a578081fd5b5051919050565b600080604083850312156141b3578182fd5b50508035926020909101359150565b600082516141d4818460208701614cdb565b9190910192915050565b73ffffffffffffffffffffffffffffffffffffffff91909116815260200190565b73ffffffffffffffffffffffffffffffffffffffff9384168152919092166020820152604081019190915260600190565b73ffffffffffffffffffffffffffffffffffffffff929092168252602082015260400190565b73ffffffffffffffffffffffffffffffffffffffff9390931683526020830191909152604082015260600190565b73ffffffffffffffffffffffffffffffffffffffff959095168552602085019390935260408401919091526060830152608082015260a00190565b901515815260200190565b60006020825282518060208401526142e9816040850160208701614cdb565b601f017fffffffffffffffffffffffffffffffffffffffffffffffffffffffffffffffe0169190910160400192915050565b60208082526012908201527f4e6f7468696e6720746f206465706f7369740000000000000000000000000000604082015260600190565b60208082526014908201527f5061757361626c653a206e6f7420706175736564000000000000000000000000604082015260600190565b60208082526013908201527f4e6f7468696e6720746f20776974686472617700000000000000000000000000604082015260600190565b60208082526026908201527f4f776e61626c653a206e6577206f776e657220697320746865207a65726f206160408201527f6464726573730000000000000000000000000000000000000000000000000000606082015260800190565b6020808252601e908201527f4455524154494f4e5f464143544f522063616e6e6f74206265207a65726f0000604082015260600190565b6020808252600d908201527f5374696c6c20696e206c6f636b00000000000000000000000000000000000000604082015260600190565b60208082526033908201527f424f4f53545f5745494748542063616e6e6f74206265206d6f7265207468616e60408201527f20424f4f53545f5745494748545f4c494d495400000000000000000000000000606082015260800190565b60208082526015908201527f42616c616e6365206d7573742065786365656420300000000000000000000000604082015260600190565b60208082526025908201527f546f6b656e2063616e6e6f742062652073616d65206173206465706f7369742060408201527f746f6b656e000000000000000000000000000000000000000000000000000000606082015260800190565b6020808252601f908201527f576974686472617720616d6f756e7420657863656564732062616c616e636500604082015260600190565b6020808252601c908201527f4d6178696d756d206c6f636b20706572696f6420657863656564656400000000604082015260600190565b6020808252601a908201527f4e6f74206f70657261746f72206f722053686477206f776e6572000000000000604082015260600190565b6020808252601f908201527f4d696e696d756d206c6f636b20706572696f64206973206f6e65207765656b00604082015260600190565b60208082526026908201527f416464726573733a20696e73756666696369656e742062616c616e636520666f60408201527f722063616c6c0000000000000000000000000000000000000000000000000000606082015260800190565b60208082526036908201527f706572666f726d616e63654665652063616e6e6f74206265206d6f726520746860408201527f616e204d41585f504552464f524d414e43455f46454500000000000000000000606082015260800190565b60208082526010908201527f5061757361626c653a2070617573656400000000000000000000000000000000604082015260600190565b60208082526016908201527f43616e6e6f74206265207a65726f206164647265737300000000000000000000604082015260600190565b60208082526026908201527f4455524154494f4e5f464143544f525f4f5645524455452063616e6e6f74206260408201527f65207a65726f0000000000000000000000000000000000000000000000000000606082015260800190565b6020808252602e908201527f6f7665726475654665652063616e6e6f74206265206d6f7265207468616e204d60408201527f41585f4f5645524455455f464545000000000000000000000000000000000000606082015260800190565b60208082526036908201527f4465706f73697420616d6f756e74206d7573742062652067726561746572207460408201527f68616e204d494e5f4445504f5349545f414d4f554e5400000000000000000000606082015260800190565b6020808252603d908201527f4d41585f4c4f434b5f4455524154494f4e2063616e6e6f74206265206d6f726560408201527f207468616e204d41585f4c4f434b5f4455524154494f4e5f4c494d4954000000606082015260800190565b6020808252818101527f4f776e61626c653a2063616c6c6572206973206e6f7420746865206f776e6572604082015260600190565b6020808252600b908201527f61646d696e3a207775743f000000000000000000000000000000000000000000604082015260600190565b60208082526038908201527f576974686472617720616d6f756e74206d75737420626520677265617465722060408201527f7468616e204d494e5f57495448445241575f414d4f554e540000000000000000606082015260800190565b6020808252601d908201527f416464726573733a2063616c6c20746f206e6f6e2d636f6e7472616374000000604082015260600190565b6020808252603d908201527f7769746864726177466565506572696f642063616e6e6f74206265206d6f726560408201527f207468616e204d41585f57495448445241575f4645455f504552494f44000000606082015260800190565b6020808252602a908201527f5361666545524332303a204552433230206f7065726174696f6e20646964206e60408201527f6f74207375636365656400000000000000000000000000000000000000000000606082015260800190565b60208082526030908201527f77697468647261774665652063616e6e6f74206265206d6f7265207468616e2060408201527f4d41585f57495448445241575f46454500000000000000000000000000000000606082015260800190565b60208082526023908201527f554e4c4f434b5f465245455f4455524154494f4e2063616e6e6f74206265207a60408201527f65726f0000000000000000000000000000000000000000000000000000000000606082015260800190565b60208082526011908201527f43616e6e6f7420756e6c6f636b20796574000000000000000000000000000000604082015260600190565b90815260200190565b91825273ffffffffffffffffffffffffffffffffffffffff16602082015260400190565b918252602082015260400190565b93845260208401929092526040830152606082015260800190565b988952602089019790975260408801959095526060870193909352608086019190915260a085015260c0840152151560e08301526101008201526101200190565b60008219821115614c4957614c49614d07565b500190565b600082614c82577f4e487b710000000000000000000000000000000000000000000000000000000081526012600452602481fd5b500490565b6000817fffffffffffffffffffffffffffffffffffffffffffffffffffffffffffffffff0483118215151615614cbf57614cbf614d07565b500290565b600082821015614cd657614cd6614d07565b500390565b60005b83811015614cf6578181015183820152602001614cde565b83811115612aed5750506000910152565b7f4e487b7100000000000000000000000000000000000000000000000000000000600052601160045260246000fd5b73ffffffffffffffffffffffffffffffffffffffff8116811461102257600080fd5b801515811461102257600080fdfea26469706673582212203a252205a8e87d55eef6f0e0dd76be4924b0eb54a7b8eb8932cd754c5e1df7b864736f6c63430008010033",
  "immutableReferences": {
    "970": [
      {
        "length": 32,
        "start": 5100
      },
      {
        "length": 32,
        "start": 6455
      },
      {
        "length": 32,
        "start": 9386
      },
      {
        "length": 32,
        "start": 10667
      },
      {
        "length": 32,
        "start": 11791
      },
      {
        "length": 32,
        "start": 11873
      },
      {
        "length": 32,
        "start": 12645
      },
      {
        "length": 32,
        "start": 12864
      },
      {
        "length": 32,
        "start": 15227
      },
      {
        "length": 32,
        "start": 15795
      }
    ],
    "973": [
      {
        "length": 32,
        "start": 3168
      },
      {
        "length": 32,
        "start": 3357
      },
      {
        "length": 32,
        "start": 8334
      },
      {
        "length": 32,
        "start": 9120
      },
      {
        "length": 32,
        "start": 14414
      },
      {
        "length": 32,
        "start": 14632
      }
    ]
  },
  "source": "// SPDX-License-Identifier: MIT\r\npragma solidity ^0.8.1;\r\n\r\nimport \"@openzeppelin/contracts/access/Ownable.sol\";\r\nimport \"@openzeppelin/contracts/token/ERC20/utils/SafeERC20.sol\";\r\nimport \"@openzeppelin/contracts/security/Pausable.sol\";\r\nimport \"./interfaces/IShadowChefV2.sol\";\r\nimport \"./interfaces/IBoostContract.sol\";\r\nimport \"./interfaces/IVShdw.sol\";\r\n\r\ncontract ShadowPool is Ownable, Pausable {\r\n  using SafeERC20 for IERC20;\r\n\r\n  struct UserInfo {\r\n    uint256 shares; // number of shares for a user.\r\n    uint256 lastDepositedTime; // keep track of deposited time for potential penalty.\r\n    uint256 shdwAtLastUserAction; // keep track of Shdw deposited at the last user action.\r\n    uint256 lastUserActionTime; // keep track of the last user action time.\r\n    uint256 lockStartTime; // lock start time.\r\n    uint256 lockEndTime; // lock end time.\r\n    uint256 userBoostedShare; // boost share, in order to give the user higher reward. The user only enjoys the reward, so the principal needs to be recorded as a debt.\r\n    bool locked; //lock status.\r\n    uint256 lockedAmount; // amount deposited during lock period.\r\n  }\r\n\r\n  IERC20 public immutable token; // Shdw token.\r\n\r\n  IShadowChefV2 public immutable shadowchefV2;\r\n\r\n  address public boostContract; // boost contract used in Masterchef.\r\n  address public VShdw;\r\n\r\n  mapping(address => UserInfo) public userInfo;\r\n  mapping(address => bool) public freePerformanceFeeUsers; // free performance fee users.\r\n  mapping(address => bool) public freeWithdrawFeeUsers; // free withdraw fee users.\r\n  mapping(address => bool) public freeOverdueFeeUsers; // free overdue fee users.\r\n\r\n  uint256 public totalShares;\r\n  address public admin;\r\n  address public treasury;\r\n  address public operator;\r\n  uint256 public shdwPoolPID;\r\n  uint256 public totalBoostDebt; // total boost debt.\r\n  uint256 public totalLockedAmount; // total lock amount.\r\n\r\n  uint256 public constant MAX_PERFORMANCE_FEE = 2000; // 20%\r\n  uint256 public constant MAX_WITHDRAW_FEE = 500; // 5%\r\n  uint256 public constant MAX_OVERDUE_FEE = 100 * 1e10; // 100%\r\n  uint256 public constant MAX_WITHDRAW_FEE_PERIOD = 1 weeks; // 1 week\r\n  uint256 public constant MIN_LOCK_DURATION = 1 weeks; // 1 week\r\n  uint256 public constant MAX_LOCK_DURATION_LIMIT = 1000 days; // 1000 days\r\n  uint256 public constant BOOST_WEIGHT_LIMIT = 5000 * 1e10; // 5000%\r\n  uint256 public constant PRECISION_FACTOR = 1e12; // precision factor.\r\n  uint256 public constant PRECISION_FACTOR_SHARE = 1e28; // precision factor for share.\r\n  uint256 public constant MIN_DEPOSIT_AMOUNT = 0.00001 ether;\r\n  uint256 public constant MIN_WITHDRAW_AMOUNT = 0.00001 ether;\r\n  uint256 public UNLOCK_FREE_DURATION = 1 weeks; // 1 week\r\n  uint256 public MAX_LOCK_DURATION = 365 days; // 365 days\r\n  uint256 public DURATION_FACTOR = 365 days; // 365 days, in order to calculate user additional boost.\r\n  uint256 public DURATION_FACTOR_OVERDUE = 180 days; // 180 days, in order to calculate overdue fee.\r\n  uint256 public BOOST_WEIGHT = 100 * 1e10; // 100%\r\n\r\n  uint256 public performanceFee = 200; // 2%\r\n  uint256 public performanceFeeContract = 200; // 2%\r\n  uint256 public withdrawFee = 10; // 0.1%\r\n  uint256 public withdrawFeeContract = 10; // 0.1%\r\n  uint256 public overdueFee = 100 * 1e10; // 100%\r\n  uint256 public withdrawFeePeriod = 72 hours; // 3 days\r\n\r\n  event Deposit(\r\n    address indexed sender,\r\n    uint256 amount,\r\n    uint256 shares,\r\n    uint256 duration,\r\n    uint256 lastDepositedTime\r\n  );\r\n  event Withdraw(address indexed sender, uint256 amount, uint256 shares);\r\n  event Harvest(address indexed sender, uint256 amount);\r\n  event Pause();\r\n  event Unpause();\r\n  event Init();\r\n  event Lock(\r\n    address indexed sender,\r\n    uint256 lockedAmount,\r\n    uint256 shares,\r\n    uint256 lockedDuration,\r\n    uint256 blockTimestamp\r\n  );\r\n  event Unlock(address indexed sender, uint256 amount, uint256 blockTimestamp);\r\n  event NewAdmin(address admin);\r\n  event NewTreasury(address treasury);\r\n  event NewOperator(address operator);\r\n  event NewBoostContract(address boostContract);\r\n  event NewVShdwContract(address VShdw);\r\n  event FreeFeeUser(address indexed user, bool indexed free);\r\n  event NewPerformanceFee(uint256 performanceFee);\r\n  event NewPerformanceFeeContract(uint256 performanceFeeContract);\r\n  event NewWithdrawFee(uint256 withdrawFee);\r\n  event NewOverdueFee(uint256 overdueFee);\r\n  event NewWithdrawFeeContract(uint256 withdrawFeeContract);\r\n  event NewWithdrawFeePeriod(uint256 withdrawFeePeriod);\r\n  event NewMaxLockDuration(uint256 maxLockDuration);\r\n  event NewDurationFactor(uint256 durationFactor);\r\n  event NewDurationFactorOverdue(uint256 durationFactorOverdue);\r\n  event NewUnlockFreeDuration(uint256 unlockFreeDuration);\r\n  event NewBoostWeight(uint256 boostWeight);\r\n\r\n  /**\r\n   * @notice Constructor\r\n   * @param _token: Shdw token contract\r\n   * @param _shadowchefV2: ShadowChefV2 contract\r\n   * @param _admin: address of the admin\r\n   * @param _treasury: address of the treasury (collects fees)\r\n   * @param _operator: address of operator\r\n   * @param _pid: Shdw pool ID in ShadowChefV2\r\n   */\r\n  constructor(\r\n    IERC20 _token,\r\n    IShadowChefV2 _shadowchefV2,\r\n    address _admin,\r\n    address _treasury,\r\n    address _operator,\r\n    uint256 _pid\r\n  ) {\r\n    token = _token;\r\n    shadowchefV2 = _shadowchefV2;\r\n    admin = _admin;\r\n    treasury = _treasury;\r\n    operator = _operator;\r\n    shdwPoolPID = _pid;\r\n  }\r\n\r\n  /**\r\n   * @notice Deposits a dummy token to `MASTER_CHEF` MCV2.\r\n   * It will transfer all the `dummyToken` in the tx sender address.\r\n   * @param dummyToken The address of the token to be deposited into MCV2.\r\n   */\r\n  function init(IERC20 dummyToken) external onlyOwner {\r\n    uint256 balance = dummyToken.balanceOf(msg.sender);\r\n    require(balance != 0, \"Balance must exceed 0\");\r\n    dummyToken.safeTransferFrom(msg.sender, address(this), balance);\r\n    dummyToken.approve(address(shadowchefV2), balance);\r\n    shadowchefV2.deposit(shdwPoolPID, balance);\r\n    emit Init();\r\n  }\r\n\r\n  /**\r\n   * @notice Checks if the msg.sender is the admin address.\r\n   */\r\n  modifier onlyAdmin() {\r\n    require(msg.sender == admin, \"admin: wut?\");\r\n    _;\r\n  }\r\n\r\n  /**\r\n   * @notice Checks if the msg.sender is either the Shdw owner address or the operator address.\r\n   */\r\n  modifier onlyOperatorOrShdwOwner(address _user) {\r\n    require(\r\n      msg.sender == _user || msg.sender == operator,\r\n      \"Not operator or Shdw owner\"\r\n    );\r\n    _;\r\n  }\r\n\r\n  /**\r\n   * @notice Update user info in Boost Contract.\r\n   * @param _user: User address\r\n   */\r\n  function updateBoostContractInfo(address _user) internal {\r\n    if (boostContract != address(0)) {\r\n      UserInfo storage user = userInfo[_user];\r\n      uint256 lockDuration = user.lockEndTime - user.lockStartTime;\r\n      IBoostContract(boostContract).onShdwPoolUpdate(\r\n        _user,\r\n        user.lockedAmount,\r\n        lockDuration,\r\n        totalLockedAmount,\r\n        DURATION_FACTOR\r\n      );\r\n    }\r\n  }\r\n\r\n  /**\r\n   * @notice Update user share When need to unlock or charges a fee.\r\n   * @param _user: User address\r\n   */\r\n  function updateUserShare(address _user) internal {\r\n    UserInfo storage user = userInfo[_user];\r\n    if (user.shares > 0) {\r\n      if (user.locked) {\r\n        // Calculate the user's current token amount and update related parameters.\r\n        uint256 currentAmount = (balanceOf() * (user.shares)) /\r\n          totalShares -\r\n          user.userBoostedShare;\r\n        totalBoostDebt -= user.userBoostedShare;\r\n        user.userBoostedShare = 0;\r\n        totalShares -= user.shares;\r\n        //Charge a overdue fee after the free duration has expired.\r\n        if (\r\n          !freeOverdueFeeUsers[_user] &&\r\n          ((user.lockEndTime + UNLOCK_FREE_DURATION) < block.timestamp)\r\n        ) {\r\n          uint256 earnAmount = currentAmount - user.lockedAmount;\r\n          uint256 overdueDuration = block.timestamp -\r\n            user.lockEndTime -\r\n            UNLOCK_FREE_DURATION;\r\n          if (overdueDuration > DURATION_FACTOR_OVERDUE) {\r\n            overdueDuration = DURATION_FACTOR_OVERDUE;\r\n          }\r\n          // Rates are calculated based on the user's overdue duration.\r\n          uint256 overdueWeight = (overdueDuration * overdueFee) /\r\n            DURATION_FACTOR_OVERDUE;\r\n          uint256 currentOverdueFee = (earnAmount * overdueWeight) /\r\n            PRECISION_FACTOR;\r\n          token.safeTransfer(treasury, currentOverdueFee);\r\n          currentAmount -= currentOverdueFee;\r\n        }\r\n        // Recalculate the user's share.\r\n        uint256 pool = balanceOf();\r\n        uint256 currentShares;\r\n        if (totalShares != 0) {\r\n          currentShares =\r\n            (currentAmount * totalShares) /\r\n            (pool - currentAmount);\r\n        } else {\r\n          currentShares = currentAmount;\r\n        }\r\n        user.shares = currentShares;\r\n        totalShares += currentShares;\r\n        // After the lock duration, update related parameters.\r\n        if (user.lockEndTime < block.timestamp) {\r\n          user.locked = false;\r\n          user.lockStartTime = 0;\r\n          user.lockEndTime = 0;\r\n          totalLockedAmount -= user.lockedAmount;\r\n          user.lockedAmount = 0;\r\n          emit Unlock(_user, currentAmount, block.timestamp);\r\n        }\r\n      } else if (!freePerformanceFeeUsers[_user]) {\r\n        // Calculate Performance fee.\r\n        uint256 totalAmount = (user.shares * balanceOf()) / totalShares;\r\n        totalShares -= user.shares;\r\n        user.shares = 0;\r\n        uint256 earnAmount = totalAmount - user.shdwAtLastUserAction;\r\n        uint256 feeRate = performanceFee;\r\n        if (_isContract(_user)) {\r\n          feeRate = performanceFeeContract;\r\n        }\r\n        uint256 currentPerformanceFee = (earnAmount * feeRate) / 10000;\r\n        if (currentPerformanceFee > 0) {\r\n          token.safeTransfer(treasury, currentPerformanceFee);\r\n          totalAmount -= currentPerformanceFee;\r\n        }\r\n        // Recalculate the user's share.\r\n        uint256 pool = balanceOf();\r\n        uint256 newShares;\r\n        if (totalShares != 0) {\r\n          newShares = (totalAmount * totalShares) / (pool - totalAmount);\r\n        } else {\r\n          newShares = totalAmount;\r\n        }\r\n        user.shares = newShares;\r\n        totalShares += newShares;\r\n      }\r\n    }\r\n  }\r\n\r\n  /**\r\n   * @notice Unlock user Shdw funds.\r\n   * @dev Only possible when contract not paused.\r\n   * @param _user: User address\r\n   */\r\n  function unlock(\r\n    address _user\r\n  ) external onlyOperatorOrShdwOwner(_user) whenNotPaused {\r\n    UserInfo storage user = userInfo[_user];\r\n    require(\r\n      user.locked && user.lockEndTime < block.timestamp,\r\n      \"Cannot unlock yet\"\r\n    );\r\n    depositOperation(0, 0, _user);\r\n  }\r\n\r\n  /**\r\n   * @notice Deposit funds into the Shdw Pool.\r\n   * @dev Only possible when contract not paused.\r\n   * @param _amount: number of tokens to deposit (in Shdw)\r\n   * @param _lockDuration: Token lock duration\r\n   */\r\n  function deposit(\r\n    uint256 _amount,\r\n    uint256 _lockDuration\r\n  ) external whenNotPaused {\r\n    require(_amount > 0 || _lockDuration > 0, \"Nothing to deposit\");\r\n    depositOperation(_amount, _lockDuration, msg.sender);\r\n  }\r\n\r\n  /**\r\n   * @notice The operation of deposite.\r\n   * @param _amount: number of tokens to deposit (in Shdw)\r\n   * @param _lockDuration: Token lock duration\r\n   * @param _user: User address\r\n   */\r\n  function depositOperation(\r\n    uint256 _amount,\r\n    uint256 _lockDuration,\r\n    address _user\r\n  ) internal {\r\n    UserInfo storage user = userInfo[_user];\r\n    if (user.shares == 0 || _amount > 0) {\r\n      require(\r\n        _amount > MIN_DEPOSIT_AMOUNT,\r\n        \"Deposit amount must be greater than MIN_DEPOSIT_AMOUNT\"\r\n      );\r\n    }\r\n    // Calculate the total lock duration and check whether the lock duration meets the conditions.\r\n    uint256 totalLockDuration = _lockDuration;\r\n    if (user.lockEndTime >= block.timestamp) {\r\n      // Adding funds during the lock duration is equivalent to re-locking the position, needs to update some variables.\r\n      if (_amount > 0) {\r\n        user.lockStartTime = block.timestamp;\r\n        totalLockedAmount -= user.lockedAmount;\r\n        user.lockedAmount = 0;\r\n      }\r\n      totalLockDuration += user.lockEndTime - user.lockStartTime;\r\n    }\r\n    require(\r\n      _lockDuration == 0 || totalLockDuration >= MIN_LOCK_DURATION,\r\n      \"Minimum lock period is one week\"\r\n    );\r\n    require(\r\n      totalLockDuration <= MAX_LOCK_DURATION,\r\n      \"Maximum lock period exceeded\"\r\n    );\r\n\r\n    if (VShdw != address(0)) {\r\n      IVShdw(VShdw).deposit(_user, _amount, _lockDuration);\r\n    }\r\n\r\n    // Harvest tokens from Masterchef.\r\n    harvest();\r\n\r\n    // Handle stock funds.\r\n    if (totalShares == 0) {\r\n      uint256 stockAmount = available();\r\n      token.safeTransfer(treasury, stockAmount);\r\n    }\r\n    // Update user share.\r\n    updateUserShare(_user);\r\n\r\n    // Update lock duration.\r\n    if (_lockDuration > 0) {\r\n      if (user.lockEndTime < block.timestamp) {\r\n        user.lockStartTime = block.timestamp;\r\n        user.lockEndTime = block.timestamp + _lockDuration;\r\n      } else {\r\n        user.lockEndTime += _lockDuration;\r\n      }\r\n      user.locked = true;\r\n    }\r\n\r\n    uint256 currentShares;\r\n    uint256 currentAmount;\r\n    uint256 userCurrentLockedBalance;\r\n    uint256 pool = balanceOf();\r\n    if (_amount > 0) {\r\n      token.safeTransferFrom(_user, address(this), _amount);\r\n      currentAmount = _amount;\r\n    }\r\n\r\n    // Calculate lock funds\r\n    if (user.shares > 0 && user.locked) {\r\n      userCurrentLockedBalance = (pool * user.shares) / totalShares;\r\n      currentAmount += userCurrentLockedBalance;\r\n      totalShares -= user.shares;\r\n      user.shares = 0;\r\n\r\n      // Update lock amount\r\n      if (user.lockStartTime == block.timestamp) {\r\n        user.lockedAmount = userCurrentLockedBalance;\r\n        totalLockedAmount += user.lockedAmount;\r\n      }\r\n    }\r\n    if (totalShares != 0) {\r\n      currentShares =\r\n        (currentAmount * totalShares) /\r\n        (pool - userCurrentLockedBalance);\r\n    } else {\r\n      currentShares = currentAmount;\r\n    }\r\n\r\n    // Calculate the boost weight share.\r\n    if (user.lockEndTime > user.lockStartTime) {\r\n      // Calculate boost share.\r\n      uint256 boostWeight = ((user.lockEndTime - user.lockStartTime) *\r\n        BOOST_WEIGHT) / DURATION_FACTOR;\r\n      uint256 boostShares = (boostWeight * currentShares) / PRECISION_FACTOR;\r\n      currentShares += boostShares;\r\n      user.shares += currentShares;\r\n\r\n      // Calculate boost share , the user only enjoys the reward, so the principal needs to be recorded as a debt.\r\n      uint256 userBoostedShare = (boostWeight * currentAmount) /\r\n        PRECISION_FACTOR;\r\n      user.userBoostedShare += userBoostedShare;\r\n      totalBoostDebt += userBoostedShare;\r\n\r\n      // Update lock amount.\r\n      user.lockedAmount += _amount;\r\n      totalLockedAmount += _amount;\r\n\r\n      emit Lock(\r\n        _user,\r\n        user.lockedAmount,\r\n        user.shares,\r\n        (user.lockEndTime - user.lockStartTime),\r\n        block.timestamp\r\n      );\r\n    } else {\r\n      user.shares += currentShares;\r\n    }\r\n\r\n    if (_amount > 0 || _lockDuration > 0) {\r\n      user.lastDepositedTime = block.timestamp;\r\n    }\r\n    totalShares += currentShares;\r\n\r\n    user.shdwAtLastUserAction =\r\n      (user.shares * balanceOf()) /\r\n      totalShares -\r\n      user.userBoostedShare;\r\n    user.lastUserActionTime = block.timestamp;\r\n\r\n    // Update user info in Boost Contract.\r\n    updateBoostContractInfo(_user);\r\n\r\n    emit Deposit(_user, _amount, currentShares, _lockDuration, block.timestamp);\r\n  }\r\n\r\n  /**\r\n   * @notice Withdraw funds from the Shdw Pool.\r\n   * @param _amount: Number of amount to withdraw\r\n   */\r\n  function withdrawByAmount(uint256 _amount) public whenNotPaused {\r\n    require(\r\n      _amount > MIN_WITHDRAW_AMOUNT,\r\n      \"Withdraw amount must be greater than MIN_WITHDRAW_AMOUNT\"\r\n    );\r\n    withdrawOperation(0, _amount);\r\n  }\r\n\r\n  /**\r\n   * @notice Withdraw funds from the Shdw Pool.\r\n   * @param _shares: Number of shares to withdraw\r\n   */\r\n  function withdraw(uint256 _shares) public whenNotPaused {\r\n    require(_shares > 0, \"Nothing to withdraw\");\r\n    withdrawOperation(_shares, 0);\r\n  }\r\n\r\n  /**\r\n   * @notice The operation of withdraw.\r\n   * @param _shares: Number of shares to withdraw\r\n   * @param _amount: Number of amount to withdraw\r\n   */\r\n  function withdrawOperation(uint256 _shares, uint256 _amount) internal {\r\n    UserInfo storage user = userInfo[msg.sender];\r\n    require(_shares <= user.shares, \"Withdraw amount exceeds balance\");\r\n    require(user.lockEndTime < block.timestamp, \"Still in lock\");\r\n\r\n    if (VShdw != address(0)) {\r\n      IVShdw(VShdw).withdraw(msg.sender);\r\n    }\r\n\r\n    // Calculate the percent of withdraw shares, when unlocking or calculating the Performance fee, the shares will be updated.\r\n    uint256 currentShare = _shares;\r\n    uint256 sharesPercent = (_shares * PRECISION_FACTOR_SHARE) / user.shares;\r\n\r\n    // Harvest token from ShadowchefV2.\r\n    harvest();\r\n\r\n    // Update user share.\r\n    updateUserShare(msg.sender);\r\n\r\n    if (_shares == 0 && _amount > 0) {\r\n      uint256 pool = balanceOf();\r\n      currentShare = (_amount * totalShares) / pool; // Calculate equivalent shares\r\n      if (currentShare > user.shares) {\r\n        currentShare = user.shares;\r\n      }\r\n    } else {\r\n      currentShare = (sharesPercent * user.shares) / PRECISION_FACTOR_SHARE;\r\n    }\r\n    uint256 currentAmount = (balanceOf() * currentShare) / totalShares;\r\n    user.shares -= currentShare;\r\n    totalShares -= currentShare;\r\n\r\n    // Calculate withdraw fee\r\n    if (\r\n      !freeWithdrawFeeUsers[msg.sender] &&\r\n      (block.timestamp < user.lastDepositedTime + withdrawFeePeriod)\r\n    ) {\r\n      uint256 feeRate = withdrawFee;\r\n      if (_isContract(msg.sender)) {\r\n        feeRate = withdrawFeeContract;\r\n      }\r\n      uint256 currentWithdrawFee = (currentAmount * feeRate) / 10000;\r\n      token.safeTransfer(treasury, currentWithdrawFee);\r\n      currentAmount -= currentWithdrawFee;\r\n    }\r\n\r\n    token.safeTransfer(msg.sender, currentAmount);\r\n\r\n    if (user.shares > 0) {\r\n      user.shdwAtLastUserAction = (user.shares * balanceOf()) / totalShares;\r\n    } else {\r\n      user.shdwAtLastUserAction = 0;\r\n    }\r\n\r\n    user.lastUserActionTime = block.timestamp;\r\n\r\n    // Update user info in Boost Contract.\r\n    updateBoostContractInfo(msg.sender);\r\n\r\n    emit Withdraw(msg.sender, currentAmount, currentShare);\r\n  }\r\n\r\n  /**\r\n   * @notice Withdraw all funds for a user\r\n   */\r\n  function withdrawAll() external {\r\n    withdraw(userInfo[msg.sender].shares);\r\n  }\r\n\r\n  /**\r\n   * @notice Harvest pending Shdw tokens from MasterChef\r\n   */\r\n  function harvest() internal {\r\n    uint256 pendingShdw = shadowchefV2.pendingShdw(shdwPoolPID, address(this));\r\n    if (pendingShdw > 0) {\r\n      uint256 balBefore = available();\r\n      shadowchefV2.withdraw(shdwPoolPID, 0);\r\n      uint256 balAfter = available();\r\n      emit Harvest(msg.sender, (balAfter - balBefore));\r\n    }\r\n  }\r\n\r\n  /**\r\n   * @notice Set admin address\r\n   * @dev Only callable by the contract owner.\r\n   */\r\n  function setAdmin(address _admin) external onlyOwner {\r\n    require(_admin != address(0), \"Cannot be zero address\");\r\n    admin = _admin;\r\n    emit NewAdmin(admin);\r\n  }\r\n\r\n  /**\r\n   * @notice Set treasury address\r\n   * @dev Only callable by the contract owner.\r\n   */\r\n  function setTreasury(address _treasury) external onlyOwner {\r\n    require(_treasury != address(0), \"Cannot be zero address\");\r\n    treasury = _treasury;\r\n    emit NewTreasury(treasury);\r\n  }\r\n\r\n  /**\r\n   * @notice Set operator address\r\n   * @dev Callable by the contract owner.\r\n   */\r\n  function setOperator(address _operator) external onlyOwner {\r\n    require(_operator != address(0), \"Cannot be zero address\");\r\n    operator = _operator;\r\n    emit NewOperator(operator);\r\n  }\r\n\r\n  /**\r\n   * @notice Set Boost Contract address\r\n   * @dev Callable by the contract admin.\r\n   */\r\n  function setBoostContract(address _boostContract) external onlyAdmin {\r\n    require(_boostContract != address(0), \"Cannot be zero address\");\r\n    boostContract = _boostContract;\r\n    emit NewBoostContract(boostContract);\r\n  }\r\n\r\n  /**\r\n   * @notice Set VShdw Contract address\r\n   * @dev Callable by the contract admin.\r\n   */\r\n  function setVShdwContract(address _VShdw) external onlyAdmin {\r\n    require(_VShdw != address(0), \"Cannot be zero address\");\r\n    VShdw = _VShdw;\r\n    emit NewVShdwContract(VShdw);\r\n  }\r\n\r\n  /**\r\n   * @notice Set free performance fee address\r\n   * @dev Only callable by the contract admin.\r\n   * @param _user: User address\r\n   * @param _free: true:free false:not free\r\n   */\r\n  function setFreePerformanceFeeUser(\r\n    address _user,\r\n    bool _free\r\n  ) external onlyAdmin {\r\n    require(_user != address(0), \"Cannot be zero address\");\r\n    freePerformanceFeeUsers[_user] = _free;\r\n    emit FreeFeeUser(_user, _free);\r\n  }\r\n\r\n  /**\r\n   * @notice Set free overdue fee address\r\n   * @dev Only callable by the contract admin.\r\n   * @param _user: User address\r\n   * @param _free: true:free false:not free\r\n   */\r\n  function setOverdueFeeUser(address _user, bool _free) external onlyAdmin {\r\n    require(_user != address(0), \"Cannot be zero address\");\r\n    freeOverdueFeeUsers[_user] = _free;\r\n    emit FreeFeeUser(_user, _free);\r\n  }\r\n\r\n  /**\r\n   * @notice Set free withdraw fee address\r\n   * @dev Only callable by the contract admin.\r\n   * @param _user: User address\r\n   * @param _free: true:free false:not free\r\n   */\r\n  function setWithdrawFeeUser(address _user, bool _free) external onlyAdmin {\r\n    require(_user != address(0), \"Cannot be zero address\");\r\n    freeWithdrawFeeUsers[_user] = _free;\r\n    emit FreeFeeUser(_user, _free);\r\n  }\r\n\r\n  /**\r\n   * @notice Set performance fee\r\n   * @dev Only callable by the contract admin.\r\n   */\r\n  function setPerformanceFee(uint256 _performanceFee) external onlyAdmin {\r\n    require(\r\n      _performanceFee <= MAX_PERFORMANCE_FEE,\r\n      \"performanceFee cannot be more than MAX_PERFORMANCE_FEE\"\r\n    );\r\n    performanceFee = _performanceFee;\r\n    emit NewPerformanceFee(performanceFee);\r\n  }\r\n\r\n  /**\r\n   * @notice Set performance fee for contract\r\n   * @dev Only callable by the contract admin.\r\n   */\r\n  function setPerformanceFeeContract(\r\n    uint256 _performanceFeeContract\r\n  ) external onlyAdmin {\r\n    require(\r\n      _performanceFeeContract <= MAX_PERFORMANCE_FEE,\r\n      \"performanceFee cannot be more than MAX_PERFORMANCE_FEE\"\r\n    );\r\n    performanceFeeContract = _performanceFeeContract;\r\n    emit NewPerformanceFeeContract(performanceFeeContract);\r\n  }\r\n\r\n  /**\r\n   * @notice Set withdraw fee\r\n   * @dev Only callable by the contract admin.\r\n   */\r\n  function setWithdrawFee(uint256 _withdrawFee) external onlyAdmin {\r\n    require(\r\n      _withdrawFee <= MAX_WITHDRAW_FEE,\r\n      \"withdrawFee cannot be more than MAX_WITHDRAW_FEE\"\r\n    );\r\n    withdrawFee = _withdrawFee;\r\n    emit NewWithdrawFee(withdrawFee);\r\n  }\r\n\r\n  /**\r\n   * @notice Set overdue fee\r\n   * @dev Only callable by the contract admin.\r\n   */\r\n  function setOverdueFee(uint256 _overdueFee) external onlyAdmin {\r\n    require(\r\n      _overdueFee <= MAX_OVERDUE_FEE,\r\n      \"overdueFee cannot be more than MAX_OVERDUE_FEE\"\r\n    );\r\n    overdueFee = _overdueFee;\r\n    emit NewOverdueFee(_overdueFee);\r\n  }\r\n\r\n  /**\r\n   * @notice Set withdraw fee for contract\r\n   * @dev Only callable by the contract admin.\r\n   */\r\n  function setWithdrawFeeContract(\r\n    uint256 _withdrawFeeContract\r\n  ) external onlyAdmin {\r\n    require(\r\n      _withdrawFeeContract <= MAX_WITHDRAW_FEE,\r\n      \"withdrawFee cannot be more than MAX_WITHDRAW_FEE\"\r\n    );\r\n    withdrawFeeContract = _withdrawFeeContract;\r\n    emit NewWithdrawFeeContract(withdrawFeeContract);\r\n  }\r\n\r\n  /**\r\n   * @notice Set withdraw fee period\r\n   * @dev Only callable by the contract admin.\r\n   */\r\n  function setWithdrawFeePeriod(uint256 _withdrawFeePeriod) external onlyAdmin {\r\n    require(\r\n      _withdrawFeePeriod <= MAX_WITHDRAW_FEE_PERIOD,\r\n      \"withdrawFeePeriod cannot be more than MAX_WITHDRAW_FEE_PERIOD\"\r\n    );\r\n    withdrawFeePeriod = _withdrawFeePeriod;\r\n    emit NewWithdrawFeePeriod(withdrawFeePeriod);\r\n  }\r\n\r\n  /**\r\n   * @notice Set MAX_LOCK_DURATION\r\n   * @dev Only callable by the contract admin.\r\n   */\r\n  function setMaxLockDuration(uint256 _maxLockDuration) external onlyAdmin {\r\n    require(\r\n      _maxLockDuration <= MAX_LOCK_DURATION_LIMIT,\r\n      \"MAX_LOCK_DURATION cannot be more than MAX_LOCK_DURATION_LIMIT\"\r\n    );\r\n    MAX_LOCK_DURATION = _maxLockDuration;\r\n    emit NewMaxLockDuration(_maxLockDuration);\r\n  }\r\n\r\n  /**\r\n   * @notice Set DURATION_FACTOR\r\n   * @dev Only callable by the contract admin.\r\n   */\r\n  function setDurationFactor(uint256 _durationFactor) external onlyAdmin {\r\n    require(_durationFactor > 0, \"DURATION_FACTOR cannot be zero\");\r\n    DURATION_FACTOR = _durationFactor;\r\n    emit NewDurationFactor(_durationFactor);\r\n  }\r\n\r\n  /**\r\n   * @notice Set DURATION_FACTOR_OVERDUE\r\n   * @dev Only callable by the contract admin.\r\n   */\r\n  function setDurationFactorOverdue(\r\n    uint256 _durationFactorOverdue\r\n  ) external onlyAdmin {\r\n    require(\r\n      _durationFactorOverdue > 0,\r\n      \"DURATION_FACTOR_OVERDUE cannot be zero\"\r\n    );\r\n    DURATION_FACTOR_OVERDUE = _durationFactorOverdue;\r\n    emit NewDurationFactorOverdue(_durationFactorOverdue);\r\n  }\r\n\r\n  /**\r\n   * @notice Set UNLOCK_FREE_DURATION\r\n   * @dev Only callable by the contract admin.\r\n   */\r\n  function setUnlockFreeDuration(\r\n    uint256 _unlockFreeDuration\r\n  ) external onlyAdmin {\r\n    require(_unlockFreeDuration > 0, \"UNLOCK_FREE_DURATION cannot be zero\");\r\n    UNLOCK_FREE_DURATION = _unlockFreeDuration;\r\n    emit NewUnlockFreeDuration(_unlockFreeDuration);\r\n  }\r\n\r\n  /**\r\n   * @notice Set BOOST_WEIGHT\r\n   * @dev Only callable by the contract admin.\r\n   */\r\n  function setBoostWeight(uint256 _boostWeight) external onlyAdmin {\r\n    require(\r\n      _boostWeight <= BOOST_WEIGHT_LIMIT,\r\n      \"BOOST_WEIGHT cannot be more than BOOST_WEIGHT_LIMIT\"\r\n    );\r\n    BOOST_WEIGHT = _boostWeight;\r\n    emit NewBoostWeight(_boostWeight);\r\n  }\r\n\r\n  /**\r\n   * @notice Withdraw unexpected tokens sent to the Shdw Pool\r\n   */\r\n  function inCaseTokensGetStuck(address _token) external onlyAdmin {\r\n    require(_token != address(token), \"Token cannot be same as deposit token\");\r\n\r\n    uint256 amount = IERC20(_token).balanceOf(address(this));\r\n    IERC20(_token).safeTransfer(msg.sender, amount);\r\n  }\r\n\r\n  /**\r\n   * @notice Trigger stopped state\r\n   * @dev Only possible when contract not paused.\r\n   */\r\n  function pause() external onlyAdmin whenNotPaused {\r\n    _pause();\r\n    emit Pause();\r\n  }\r\n\r\n  /**\r\n   * @notice Return to normal state\r\n   * @dev Only possible when contract is paused.\r\n   */\r\n  function unpause() external onlyAdmin whenPaused {\r\n    _unpause();\r\n    emit Unpause();\r\n  }\r\n\r\n  /**\r\n   * @notice Calculate Performance fee.\r\n   * @param _user: User address\r\n   * @return Returns Performance fee.\r\n   */\r\n  function calculatePerformanceFee(\r\n    address _user\r\n  ) public view returns (uint256) {\r\n    UserInfo storage user = userInfo[_user];\r\n    if (user.shares > 0 && !user.locked && !freePerformanceFeeUsers[_user]) {\r\n      uint256 pool = balanceOf() + calculateTotalpendingShdwRewards();\r\n      uint256 totalAmount = (user.shares * pool) / totalShares;\r\n      uint256 earnAmount = totalAmount - user.shdwAtLastUserAction;\r\n      uint256 feeRate = performanceFee;\r\n      if (_isContract(_user)) {\r\n        feeRate = performanceFeeContract;\r\n      }\r\n      uint256 currentPerformanceFee = (earnAmount * feeRate) / 10000;\r\n      return currentPerformanceFee;\r\n    }\r\n    return 0;\r\n  }\r\n\r\n  /**\r\n   * @notice Calculate overdue fee.\r\n   * @param _user: User address\r\n   * @return Returns Overdue fee.\r\n   */\r\n  function calculateOverdueFee(address _user) public view returns (uint256) {\r\n    UserInfo storage user = userInfo[_user];\r\n    if (\r\n      user.shares > 0 &&\r\n      user.locked &&\r\n      !freeOverdueFeeUsers[_user] &&\r\n      ((user.lockEndTime + UNLOCK_FREE_DURATION) < block.timestamp)\r\n    ) {\r\n      uint256 pool = balanceOf() + calculateTotalpendingShdwRewards();\r\n      uint256 currentAmount = (pool * (user.shares)) /\r\n        totalShares -\r\n        user.userBoostedShare;\r\n      uint256 earnAmount = currentAmount - user.lockedAmount;\r\n      uint256 overdueDuration = block.timestamp -\r\n        user.lockEndTime -\r\n        UNLOCK_FREE_DURATION;\r\n      if (overdueDuration > DURATION_FACTOR_OVERDUE) {\r\n        overdueDuration = DURATION_FACTOR_OVERDUE;\r\n      }\r\n      // Rates are calculated based on the user's overdue duration.\r\n      uint256 overdueWeight = (overdueDuration * overdueFee) /\r\n        DURATION_FACTOR_OVERDUE;\r\n      uint256 currentOverdueFee = (earnAmount * overdueWeight) /\r\n        PRECISION_FACTOR;\r\n      return currentOverdueFee;\r\n    }\r\n    return 0;\r\n  }\r\n\r\n  /**\r\n   * @notice Calculate Performance Fee Or Overdue Fee\r\n   * @param _user: User address\r\n   * @return Returns  Performance Fee Or Overdue Fee.\r\n   */\r\n  function calculatePerformanceFeeOrOverdueFee(\r\n    address _user\r\n  ) internal view returns (uint256) {\r\n    return calculatePerformanceFee(_user) + calculateOverdueFee(_user);\r\n  }\r\n\r\n  /**\r\n   * @notice Calculate withdraw fee.\r\n   * @param _user: User address\r\n   * @param _shares: Number of shares to withdraw\r\n   * @return Returns Withdraw fee.\r\n   */\r\n  function calculateWithdrawFee(\r\n    address _user,\r\n    uint256 _shares\r\n  ) public view returns (uint256) {\r\n    UserInfo storage user = userInfo[_user];\r\n    if (user.shares < _shares) {\r\n      _shares = user.shares;\r\n    }\r\n    if (\r\n      !freeWithdrawFeeUsers[msg.sender] &&\r\n      (block.timestamp < user.lastDepositedTime + withdrawFeePeriod)\r\n    ) {\r\n      uint256 pool = balanceOf() + calculateTotalpendingShdwRewards();\r\n      uint256 sharesPercent = (_shares * PRECISION_FACTOR) / user.shares;\r\n      uint256 currentTotalAmount = (pool * (user.shares)) /\r\n        totalShares -\r\n        user.userBoostedShare -\r\n        calculatePerformanceFeeOrOverdueFee(_user);\r\n      uint256 currentAmount = (currentTotalAmount * sharesPercent) /\r\n        PRECISION_FACTOR;\r\n      uint256 feeRate = withdrawFee;\r\n      if (_isContract(msg.sender)) {\r\n        feeRate = withdrawFeeContract;\r\n      }\r\n      uint256 currentWithdrawFee = (currentAmount * feeRate) / 10000;\r\n      return currentWithdrawFee;\r\n    }\r\n    return 0;\r\n  }\r\n\r\n  /**\r\n   * @notice Calculates the total pending rewards that can be harvested\r\n   * @return Returns total pending Shdw rewards\r\n   */\r\n  function calculateTotalpendingShdwRewards() public view returns (uint256) {\r\n    uint256 amount = shadowchefV2.pendingShdw(shdwPoolPID, address(this));\r\n    return amount;\r\n  }\r\n\r\n  function getPricePerFullShare() external view returns (uint256) {\r\n    return\r\n      totalShares == 0\r\n        ? 1e18\r\n        : (((balanceOf() + calculateTotalpendingShdwRewards()) * (1e18)) /\r\n          totalShares);\r\n  }\r\n\r\n  /**\r\n   * @notice Current pool available balance\r\n   * @dev The contract puts 100% of the tokens to work.\r\n   */\r\n  function available() public view returns (uint256) {\r\n    return token.balanceOf(address(this));\r\n  }\r\n\r\n  /**\r\n   * @notice Calculates the total underlying tokens\r\n   * @dev It includes tokens held by the contract and the boost debt amount.\r\n   */\r\n  function balanceOf() public view returns (uint256) {\r\n    return token.balanceOf(address(this)) + totalBoostDebt;\r\n  }\r\n\r\n  /**\r\n   * @notice Checks if address is a contract\r\n   */\r\n  function _isContract(address addr) internal view returns (bool) {\r\n    uint256 size;\r\n    assembly {\r\n      size := extcodesize(addr)\r\n    }\r\n    return size > 0;\r\n  }\r\n}\r\n",
  "sourcePath": "D:\\Other_Folder\\ANGGA\\NFT\\CLIENT\\MAS WIDI NEW\\NewVenosSmartContract\\contracts\\ShadowPool.sol",
  "compiler": {
    "name": "solc",
    "version": "0.8.1+commit.df193b15.Emscripten.clang"
  },
  "schemaVersion": "3.4.16",
  "updatedAt": "2023-10-12T08:29:57.619Z",
  "networkType": "ethereum",
  "devdoc": {
    "kind": "dev",
    "methods": {
      "available()": {
        "details": "The contract puts 100% of the tokens to work."
      },
      "balanceOf()": {
        "details": "It includes tokens held by the contract and the boost debt amount."
      },
      "calculateOverdueFee(address)": {
        "params": {
          "_user": ": User address"
        },
        "returns": {
          "_0": "Returns Overdue fee."
        }
      },
      "calculatePerformanceFee(address)": {
        "params": {
          "_user": ": User address"
        },
        "returns": {
          "_0": "Returns Performance fee."
        }
      },
      "calculateTotalpendingShdwRewards()": {
        "returns": {
          "_0": "Returns total pending Shdw rewards"
        }
      },
      "calculateWithdrawFee(address,uint256)": {
        "params": {
          "_shares": ": Number of shares to withdraw",
          "_user": ": User address"
        },
        "returns": {
          "_0": "Returns Withdraw fee."
        }
      },
      "constructor": {
        "params": {
          "_admin": ": address of the admin",
          "_operator": ": address of operator",
          "_pid": ": Shdw pool ID in ShadowChefV2",
          "_shadowchefV2": ": ShadowChefV2 contract",
          "_token": ": Shdw token contract",
          "_treasury": ": address of the treasury (collects fees)"
        }
      },
      "deposit(uint256,uint256)": {
        "details": "Only possible when contract not paused.",
        "params": {
          "_amount": ": number of tokens to deposit (in Shdw)",
          "_lockDuration": ": Token lock duration"
        }
      },
      "init(address)": {
        "params": {
          "dummyToken": "The address of the token to be deposited into MCV2."
        }
      },
      "owner()": {
        "details": "Returns the address of the current owner."
      },
      "pause()": {
        "details": "Only possible when contract not paused."
      },
      "paused()": {
        "details": "Returns true if the contract is paused, and false otherwise."
      },
      "renounceOwnership()": {
        "details": "Leaves the contract without owner. It will not be possible to call `onlyOwner` functions anymore. Can only be called by the current owner. NOTE: Renouncing ownership will leave the contract without an owner, thereby removing any functionality that is only available to the owner."
      },
      "setAdmin(address)": {
        "details": "Only callable by the contract owner."
      },
      "setBoostContract(address)": {
        "details": "Callable by the contract admin."
      },
      "setBoostWeight(uint256)": {
        "details": "Only callable by the contract admin."
      },
      "setDurationFactor(uint256)": {
        "details": "Only callable by the contract admin."
      },
      "setDurationFactorOverdue(uint256)": {
        "details": "Only callable by the contract admin."
      },
      "setFreePerformanceFeeUser(address,bool)": {
        "details": "Only callable by the contract admin.",
        "params": {
          "_free": ": true:free false:not free",
          "_user": ": User address"
        }
      },
      "setMaxLockDuration(uint256)": {
        "details": "Only callable by the contract admin."
      },
      "setOperator(address)": {
        "details": "Callable by the contract owner."
      },
      "setOverdueFee(uint256)": {
        "details": "Only callable by the contract admin."
      },
      "setOverdueFeeUser(address,bool)": {
        "details": "Only callable by the contract admin.",
        "params": {
          "_free": ": true:free false:not free",
          "_user": ": User address"
        }
      },
      "setPerformanceFee(uint256)": {
        "details": "Only callable by the contract admin."
      },
      "setPerformanceFeeContract(uint256)": {
        "details": "Only callable by the contract admin."
      },
      "setTreasury(address)": {
        "details": "Only callable by the contract owner."
      },
      "setUnlockFreeDuration(uint256)": {
        "details": "Only callable by the contract admin."
      },
      "setVShdwContract(address)": {
        "details": "Callable by the contract admin."
      },
      "setWithdrawFee(uint256)": {
        "details": "Only callable by the contract admin."
      },
      "setWithdrawFeeContract(uint256)": {
        "details": "Only callable by the contract admin."
      },
      "setWithdrawFeePeriod(uint256)": {
        "details": "Only callable by the contract admin."
      },
      "setWithdrawFeeUser(address,bool)": {
        "details": "Only callable by the contract admin.",
        "params": {
          "_free": ": true:free false:not free",
          "_user": ": User address"
        }
      },
      "transferOwnership(address)": {
        "details": "Transfers ownership of the contract to a new account (`newOwner`). Can only be called by the current owner."
      },
      "unlock(address)": {
        "details": "Only possible when contract not paused.",
        "params": {
          "_user": ": User address"
        }
      },
      "unpause()": {
        "details": "Only possible when contract is paused."
      },
      "withdraw(uint256)": {
        "params": {
          "_shares": ": Number of shares to withdraw"
        }
      },
      "withdrawByAmount(uint256)": {
        "params": {
          "_amount": ": Number of amount to withdraw"
        }
      }
    },
    "version": 1
  },
  "userdoc": {
    "kind": "user",
    "methods": {
      "available()": {
        "notice": "Current pool available balance"
      },
      "balanceOf()": {
        "notice": "Calculates the total underlying tokens"
      },
      "calculateOverdueFee(address)": {
        "notice": "Calculate overdue fee."
      },
      "calculatePerformanceFee(address)": {
        "notice": "Calculate Performance fee."
      },
      "calculateTotalpendingShdwRewards()": {
        "notice": "Calculates the total pending rewards that can be harvested"
      },
      "calculateWithdrawFee(address,uint256)": {
        "notice": "Calculate withdraw fee."
      },
      "constructor": {
        "notice": "Constructor"
      },
      "deposit(uint256,uint256)": {
        "notice": "Deposit funds into the Shdw Pool."
      },
      "inCaseTokensGetStuck(address)": {
        "notice": "Withdraw unexpected tokens sent to the Shdw Pool"
      },
      "init(address)": {
        "notice": "Deposits a dummy token to `MASTER_CHEF` MCV2. It will transfer all the `dummyToken` in the tx sender address."
      },
      "pause()": {
        "notice": "Trigger stopped state"
      },
      "setAdmin(address)": {
        "notice": "Set admin address"
      },
      "setBoostContract(address)": {
        "notice": "Set Boost Contract address"
      },
      "setBoostWeight(uint256)": {
        "notice": "Set BOOST_WEIGHT"
      },
      "setDurationFactor(uint256)": {
        "notice": "Set DURATION_FACTOR"
      },
      "setDurationFactorOverdue(uint256)": {
        "notice": "Set DURATION_FACTOR_OVERDUE"
      },
      "setFreePerformanceFeeUser(address,bool)": {
        "notice": "Set free performance fee address"
      },
      "setMaxLockDuration(uint256)": {
        "notice": "Set MAX_LOCK_DURATION"
      },
      "setOperator(address)": {
        "notice": "Set operator address"
      },
      "setOverdueFee(uint256)": {
        "notice": "Set overdue fee"
      },
      "setOverdueFeeUser(address,bool)": {
        "notice": "Set free overdue fee address"
      },
      "setPerformanceFee(uint256)": {
        "notice": "Set performance fee"
      },
      "setPerformanceFeeContract(uint256)": {
        "notice": "Set performance fee for contract"
      },
      "setTreasury(address)": {
        "notice": "Set treasury address"
      },
      "setUnlockFreeDuration(uint256)": {
        "notice": "Set UNLOCK_FREE_DURATION"
      },
      "setVShdwContract(address)": {
        "notice": "Set VShdw Contract address"
      },
      "setWithdrawFee(uint256)": {
        "notice": "Set withdraw fee"
      },
      "setWithdrawFeeContract(uint256)": {
        "notice": "Set withdraw fee for contract"
      },
      "setWithdrawFeePeriod(uint256)": {
        "notice": "Set withdraw fee period"
      },
      "setWithdrawFeeUser(address,bool)": {
        "notice": "Set free withdraw fee address"
      },
      "unlock(address)": {
        "notice": "Unlock user Shdw funds."
      },
      "unpause()": {
        "notice": "Return to normal state"
      },
      "withdraw(uint256)": {
        "notice": "Withdraw funds from the Shdw Pool."
      },
      "withdrawAll()": {
        "notice": "Withdraw all funds for a user"
      },
      "withdrawByAmount(uint256)": {
        "notice": "Withdraw funds from the Shdw Pool."
      }
    },
    "version": 1
  }
}