{
  "contractName": "ShadowChefV2",
  "abi": [
    {
      "inputs": [
        {
          "internalType": "contract IBEP20",
          "name": "_SHDW",
          "type": "address"
        },
        {
          "internalType": "address",
          "name": "_burnAdmin",
          "type": "address"
        }
      ],
      "stateMutability": "nonpayable",
      "type": "constructor"
    },
    {
      "anonymous": false,
      "inputs": [
        {
          "indexed": true,
          "internalType": "uint256",
          "name": "pid",
          "type": "uint256"
        },
        {
          "indexed": false,
          "internalType": "uint256",
          "name": "allocPoint",
          "type": "uint256"
        },
        {
          "indexed": true,
          "internalType": "contract IBEP20",
          "name": "lpToken",
          "type": "address"
        },
        {
          "indexed": false,
          "internalType": "bool",
          "name": "isRegular",
          "type": "bool"
        }
      ],
      "name": "AddPool",
      "type": "event"
    },
    {
      "anonymous": false,
      "inputs": [
        {
          "indexed": true,
          "internalType": "address",
          "name": "user",
          "type": "address"
        },
        {
          "indexed": true,
          "internalType": "uint256",
          "name": "pid",
          "type": "uint256"
        },
        {
          "indexed": false,
          "internalType": "uint256",
          "name": "amount",
          "type": "uint256"
        }
      ],
      "name": "Deposit",
      "type": "event"
    },
    {
      "anonymous": false,
      "inputs": [
        {
          "indexed": true,
          "internalType": "address",
          "name": "user",
          "type": "address"
        },
        {
          "indexed": true,
          "internalType": "uint256",
          "name": "pid",
          "type": "uint256"
        },
        {
          "indexed": false,
          "internalType": "uint256",
          "name": "amount",
          "type": "uint256"
        }
      ],
      "name": "EmergencyWithdraw",
      "type": "event"
    },
    {
      "anonymous": false,
      "inputs": [
        {
          "indexed": false,
          "internalType": "uint256",
          "name": "burnRate",
          "type": "uint256"
        },
        {
          "indexed": false,
          "internalType": "uint256",
          "name": "regularFarmRate",
          "type": "uint256"
        },
        {
          "indexed": false,
          "internalType": "uint256",
          "name": "specialFarmRate",
          "type": "uint256"
        }
      ],
      "name": "EventUpdateShdwRate",
      "type": "event"
    },
    {
      "anonymous": false,
      "inputs": [],
      "name": "Init",
      "type": "event"
    },
    {
      "anonymous": false,
      "inputs": [
        {
          "indexed": true,
          "internalType": "address",
          "name": "previousOwner",
          "type": "address"
        },
        {
          "indexed": true,
          "internalType": "address",
          "name": "newOwner",
          "type": "address"
        }
      ],
      "name": "OwnershipTransferred",
      "type": "event"
    },
    {
      "anonymous": false,
      "inputs": [
        {
          "indexed": true,
          "internalType": "uint256",
          "name": "pid",
          "type": "uint256"
        },
        {
          "indexed": false,
          "internalType": "uint256",
          "name": "allocPoint",
          "type": "uint256"
        }
      ],
      "name": "SetPool",
      "type": "event"
    },
    {
      "anonymous": false,
      "inputs": [
        {
          "indexed": true,
          "internalType": "address",
          "name": "boostContract",
          "type": "address"
        }
      ],
      "name": "UpdateBoostContract",
      "type": "event"
    },
    {
      "anonymous": false,
      "inputs": [
        {
          "indexed": true,
          "internalType": "address",
          "name": "user",
          "type": "address"
        },
        {
          "indexed": false,
          "internalType": "uint256",
          "name": "pid",
          "type": "uint256"
        },
        {
          "indexed": false,
          "internalType": "uint256",
          "name": "oldMultiplier",
          "type": "uint256"
        },
        {
          "indexed": false,
          "internalType": "uint256",
          "name": "newMultiplier",
          "type": "uint256"
        }
      ],
      "name": "UpdateBoostMultiplier",
      "type": "event"
    },
    {
      "anonymous": false,
      "inputs": [
        {
          "indexed": true,
          "internalType": "address",
          "name": "oldAdmin",
          "type": "address"
        },
        {
          "indexed": true,
          "internalType": "address",
          "name": "newAdmin",
          "type": "address"
        }
      ],
      "name": "UpdateBurnAdmin",
      "type": "event"
    },
    {
      "anonymous": false,
      "inputs": [
        {
          "indexed": true,
          "internalType": "uint256",
          "name": "pid",
          "type": "uint256"
        },
        {
          "indexed": false,
          "internalType": "uint256",
          "name": "lastRewardBlock",
          "type": "uint256"
        },
        {
          "indexed": false,
          "internalType": "uint256",
          "name": "lpSupply",
          "type": "uint256"
        },
        {
          "indexed": false,
          "internalType": "uint256",
          "name": "accShdwPerShare",
          "type": "uint256"
        }
      ],
      "name": "UpdatePool",
      "type": "event"
    },
    {
      "anonymous": false,
      "inputs": [
        {
          "indexed": true,
          "internalType": "address",
          "name": "user",
          "type": "address"
        },
        {
          "indexed": false,
          "internalType": "bool",
          "name": "isValid",
          "type": "bool"
        }
      ],
      "name": "UpdateWhiteList",
      "type": "event"
    },
    {
      "anonymous": false,
      "inputs": [
        {
          "indexed": true,
          "internalType": "address",
          "name": "user",
          "type": "address"
        },
        {
          "indexed": true,
          "internalType": "uint256",
          "name": "pid",
          "type": "uint256"
        },
        {
          "indexed": false,
          "internalType": "uint256",
          "name": "amount",
          "type": "uint256"
        }
      ],
      "name": "Withdraw",
      "type": "event"
    },
    {
      "inputs": [],
      "name": "ACC_SHDW_PRECISION",
      "outputs": [
        {
          "internalType": "uint256",
          "name": "",
          "type": "uint256"
        }
      ],
      "stateMutability": "view",
      "type": "function"
    },
    {
      "inputs": [],
      "name": "BOOST_PRECISION",
      "outputs": [
        {
          "internalType": "uint256",
          "name": "",
          "type": "uint256"
        }
      ],
      "stateMutability": "view",
      "type": "function"
    },
    {
      "inputs": [],
      "name": "MASTERCHEF_SHDW_PER_BLOCK",
      "outputs": [
        {
          "internalType": "uint256",
          "name": "",
          "type": "uint256"
        }
      ],
      "stateMutability": "view",
      "type": "function"
    },
    {
      "inputs": [],
      "name": "MAX_BOOST_PRECISION",
      "outputs": [
        {
          "internalType": "uint256",
          "name": "",
          "type": "uint256"
        }
      ],
      "stateMutability": "view",
      "type": "function"
    },
    {
      "inputs": [],
      "name": "SHDW",
      "outputs": [
        {
          "internalType": "contract IBEP20",
          "name": "",
          "type": "address"
        }
      ],
      "stateMutability": "view",
      "type": "function"
    },
    {
      "inputs": [],
      "name": "SHDW_RATE_TOTAL_PRECISION",
      "outputs": [
        {
          "internalType": "uint256",
          "name": "",
          "type": "uint256"
        }
      ],
      "stateMutability": "view",
      "type": "function"
    },
    {
      "inputs": [],
      "name": "boostContract",
      "outputs": [
        {
          "internalType": "address",
          "name": "",
          "type": "address"
        }
      ],
      "stateMutability": "view",
      "type": "function"
    },
    {
      "inputs": [],
      "name": "burnAdmin",
      "outputs": [
        {
          "internalType": "address",
          "name": "",
          "type": "address"
        }
      ],
      "stateMutability": "view",
      "type": "function"
    },
    {
      "inputs": [],
      "name": "lastBurnedBlock",
      "outputs": [
        {
          "internalType": "uint256",
          "name": "",
          "type": "uint256"
        }
      ],
      "stateMutability": "view",
      "type": "function"
    },
    {
      "inputs": [
        {
          "internalType": "uint256",
          "name": "",
          "type": "uint256"
        }
      ],
      "name": "lpToken",
      "outputs": [
        {
          "internalType": "contract IBEP20",
          "name": "",
          "type": "address"
        }
      ],
      "stateMutability": "view",
      "type": "function"
    },
    {
      "inputs": [],
      "name": "owner",
      "outputs": [
        {
          "internalType": "address",
          "name": "",
          "type": "address"
        }
      ],
      "stateMutability": "view",
      "type": "function"
    },
    {
      "inputs": [
        {
          "internalType": "uint256",
          "name": "",
          "type": "uint256"
        }
      ],
      "name": "poolInfo",
      "outputs": [
        {
          "internalType": "uint256",
          "name": "accShdwPerShare",
          "type": "uint256"
        },
        {
          "internalType": "uint256",
          "name": "lastRewardBlock",
          "type": "uint256"
        },
        {
          "internalType": "uint256",
          "name": "allocPoint",
          "type": "uint256"
        },
        {
          "internalType": "uint256",
          "name": "totalBoostedShare",
          "type": "uint256"
        },
        {
          "internalType": "bool",
          "name": "isRegular",
          "type": "bool"
        }
      ],
      "stateMutability": "view",
      "type": "function"
    },
    {
      "inputs": [],
      "name": "renounceOwnership",
      "outputs": [],
      "stateMutability": "nonpayable",
      "type": "function"
    },
    {
      "inputs": [],
      "name": "shdwRateToBurn",
      "outputs": [
        {
          "internalType": "uint256",
          "name": "",
          "type": "uint256"
        }
      ],
      "stateMutability": "view",
      "type": "function"
    },
    {
      "inputs": [],
      "name": "shdwRateToRegularFarm",
      "outputs": [
        {
          "internalType": "uint256",
          "name": "",
          "type": "uint256"
        }
      ],
      "stateMutability": "view",
      "type": "function"
    },
    {
      "inputs": [],
      "name": "shdwRateToSpecialFarm",
      "outputs": [
        {
          "internalType": "uint256",
          "name": "",
          "type": "uint256"
        }
      ],
      "stateMutability": "view",
      "type": "function"
    },
    {
      "inputs": [],
      "name": "totalRegularAllocPoint",
      "outputs": [
        {
          "internalType": "uint256",
          "name": "",
          "type": "uint256"
        }
      ],
      "stateMutability": "view",
      "type": "function"
    },
    {
      "inputs": [],
      "name": "totalSpecialAllocPoint",
      "outputs": [
        {
          "internalType": "uint256",
          "name": "",
          "type": "uint256"
        }
      ],
      "stateMutability": "view",
      "type": "function"
    },
    {
      "inputs": [
        {
          "internalType": "address",
          "name": "newOwner",
          "type": "address"
        }
      ],
      "name": "transferOwnership",
      "outputs": [],
      "stateMutability": "nonpayable",
      "type": "function"
    },
    {
      "inputs": [
        {
          "internalType": "uint256",
          "name": "",
          "type": "uint256"
        },
        {
          "internalType": "address",
          "name": "",
          "type": "address"
        }
      ],
      "name": "userInfo",
      "outputs": [
        {
          "internalType": "uint256",
          "name": "amount",
          "type": "uint256"
        },
        {
          "internalType": "uint256",
          "name": "rewardDebt",
          "type": "uint256"
        },
        {
          "internalType": "uint256",
          "name": "boostMultiplier",
          "type": "uint256"
        }
      ],
      "stateMutability": "view",
      "type": "function"
    },
    {
      "inputs": [
        {
          "internalType": "address",
          "name": "",
          "type": "address"
        }
      ],
      "name": "whiteList",
      "outputs": [
        {
          "internalType": "bool",
          "name": "",
          "type": "bool"
        }
      ],
      "stateMutability": "view",
      "type": "function"
    },
    {
      "inputs": [],
      "name": "poolLength",
      "outputs": [
        {
          "internalType": "uint256",
          "name": "pools",
          "type": "uint256"
        }
      ],
      "stateMutability": "view",
      "type": "function"
    },
    {
      "inputs": [
        {
          "internalType": "uint256",
          "name": "_allocPoint",
          "type": "uint256"
        },
        {
          "internalType": "contract IBEP20",
          "name": "_lpToken",
          "type": "address"
        },
        {
          "internalType": "bool",
          "name": "_isRegular",
          "type": "bool"
        },
        {
          "internalType": "bool",
          "name": "_withUpdate",
          "type": "bool"
        }
      ],
      "name": "add",
      "outputs": [],
      "stateMutability": "nonpayable",
      "type": "function"
    },
    {
      "inputs": [
        {
          "internalType": "uint256",
          "name": "_pid",
          "type": "uint256"
        },
        {
          "internalType": "uint256",
          "name": "_allocPoint",
          "type": "uint256"
        },
        {
          "internalType": "bool",
          "name": "_withUpdate",
          "type": "bool"
        }
      ],
      "name": "set",
      "outputs": [],
      "stateMutability": "nonpayable",
      "type": "function"
    },
    {
      "inputs": [
        {
          "internalType": "uint256",
          "name": "_pid",
          "type": "uint256"
        },
        {
          "internalType": "address",
          "name": "_user",
          "type": "address"
        }
      ],
      "name": "pendingShdw",
      "outputs": [
        {
          "internalType": "uint256",
          "name": "",
          "type": "uint256"
        }
      ],
      "stateMutability": "view",
      "type": "function"
    },
    {
      "inputs": [],
      "name": "massUpdatePools",
      "outputs": [],
      "stateMutability": "nonpayable",
      "type": "function"
    },
    {
      "inputs": [
        {
          "internalType": "bool",
          "name": "_isRegular",
          "type": "bool"
        }
      ],
      "name": "shdwPerBlock",
      "outputs": [
        {
          "internalType": "uint256",
          "name": "amount",
          "type": "uint256"
        }
      ],
      "stateMutability": "view",
      "type": "function"
    },
    {
      "inputs": [],
      "name": "shdwPerBlockToBurn",
      "outputs": [
        {
          "internalType": "uint256",
          "name": "amount",
          "type": "uint256"
        }
      ],
      "stateMutability": "view",
      "type": "function"
    },
    {
      "inputs": [
        {
          "internalType": "uint256",
          "name": "_pid",
          "type": "uint256"
        }
      ],
      "name": "updatePool",
      "outputs": [
        {
          "components": [
            {
              "internalType": "uint256",
              "name": "accShdwPerShare",
              "type": "uint256"
            },
            {
              "internalType": "uint256",
              "name": "lastRewardBlock",
              "type": "uint256"
            },
            {
              "internalType": "uint256",
              "name": "allocPoint",
              "type": "uint256"
            },
            {
              "internalType": "uint256",
              "name": "totalBoostedShare",
              "type": "uint256"
            },
            {
              "internalType": "bool",
              "name": "isRegular",
              "type": "bool"
            }
          ],
          "internalType": "struct ShadowChefV2.PoolInfo",
          "name": "pool",
          "type": "tuple"
        }
      ],
      "stateMutability": "nonpayable",
      "type": "function"
    },
    {
      "inputs": [
        {
          "internalType": "uint256",
          "name": "_pid",
          "type": "uint256"
        },
        {
          "internalType": "uint256",
          "name": "_amount",
          "type": "uint256"
        }
      ],
      "name": "deposit",
      "outputs": [],
      "stateMutability": "nonpayable",
      "type": "function"
    },
    {
      "inputs": [
        {
          "internalType": "uint256",
          "name": "_pid",
          "type": "uint256"
        },
        {
          "internalType": "uint256",
          "name": "_amount",
          "type": "uint256"
        }
      ],
      "name": "withdraw",
      "outputs": [],
      "stateMutability": "nonpayable",
      "type": "function"
    },
    {
      "inputs": [
        {
          "internalType": "uint256",
          "name": "_pid",
          "type": "uint256"
        }
      ],
      "name": "emergencyWithdraw",
      "outputs": [],
      "stateMutability": "nonpayable",
      "type": "function"
    },
    {
      "inputs": [
        {
          "internalType": "bool",
          "name": "_withUpdate",
          "type": "bool"
        }
      ],
      "name": "burnShdw",
      "outputs": [],
      "stateMutability": "nonpayable",
      "type": "function"
    },
    {
      "inputs": [
        {
          "internalType": "uint256",
          "name": "_burnRate",
          "type": "uint256"
        },
        {
          "internalType": "uint256",
          "name": "_regularFarmRate",
          "type": "uint256"
        },
        {
          "internalType": "uint256",
          "name": "_specialFarmRate",
          "type": "uint256"
        },
        {
          "internalType": "bool",
          "name": "_withUpdate",
          "type": "bool"
        }
      ],
      "name": "updateShdwRate",
      "outputs": [],
      "stateMutability": "nonpayable",
      "type": "function"
    },
    {
      "inputs": [
        {
          "internalType": "address",
          "name": "_newAdmin",
          "type": "address"
        }
      ],
      "name": "updateBurnAdmin",
      "outputs": [],
      "stateMutability": "nonpayable",
      "type": "function"
    },
    {
      "inputs": [
        {
          "internalType": "address",
          "name": "_user",
          "type": "address"
        },
        {
          "internalType": "bool",
          "name": "_isValid",
          "type": "bool"
        }
      ],
      "name": "updateWhiteList",
      "outputs": [],
      "stateMutability": "nonpayable",
      "type": "function"
    },
    {
      "inputs": [
        {
          "internalType": "address",
          "name": "_newBoostContract",
          "type": "address"
        }
      ],
      "name": "updateBoostContract",
      "outputs": [],
      "stateMutability": "nonpayable",
      "type": "function"
    },
    {
      "inputs": [
        {
          "internalType": "address",
          "name": "_user",
          "type": "address"
        },
        {
          "internalType": "uint256",
          "name": "_pid",
          "type": "uint256"
        },
        {
          "internalType": "uint256",
          "name": "_newMultiplier",
          "type": "uint256"
        }
      ],
      "name": "updateBoostMultiplier",
      "outputs": [],
      "stateMutability": "nonpayable",
      "type": "function"
    },
    {
      "inputs": [
        {
          "internalType": "address",
          "name": "_user",
          "type": "address"
        },
        {
          "internalType": "uint256",
          "name": "_pid",
          "type": "uint256"
        }
      ],
      "name": "getBoostMultiplier",
      "outputs": [
        {
          "internalType": "uint256",
          "name": "",
          "type": "uint256"
        }
      ],
      "stateMutability": "view",
      "type": "function"
    }
  ],
  "bytecode": "0x60a06040526495e27d7580600a55640ea1fc81ce600b556444502b18b2600c553480156200002c57600080fd5b5060405162004c9538038062004c958339818101604052810190620000529190620001bf565b6000620000646200018960201b60201c565b9050806000806101000a81548173ffffffffffffffffffffffffffffffffffffffff021916908373ffffffffffffffffffffffffffffffffffffffff1602179055508073ffffffffffffffffffffffffffffffffffffffff16600073ffffffffffffffffffffffffffffffffffffffff167f8be0079c531659141344cd1fd0a4f28419497f9722a3daafe3b4186f6b6457e060405160405180910390a350600180819055508173ffffffffffffffffffffffffffffffffffffffff1660808173ffffffffffffffffffffffffffffffffffffffff1660601b8152505080600260006101000a81548173ffffffffffffffffffffffffffffffffffffffff021916908373ffffffffffffffffffffffffffffffffffffffff16021790555050506200027c565b600033905090565b600081519050620001a28162000248565b92915050565b600081519050620001b98162000262565b92915050565b60008060408385031215620001d357600080fd5b6000620001e385828601620001a8565b9250506020620001f68582860162000191565b9150509250929050565b60006200020d8262000228565b9050919050565b6000620002218262000200565b9050919050565b600073ffffffffffffffffffffffffffffffffffffffff82169050919050565b620002538162000200565b81146200025f57600080fd5b50565b6200026d8162000214565b81146200027957600080fd5b50565b60805160601c6149ec620002a9600039806107a75280612336528061322a52806132e652506149ec6000f3fe608060405234801561001057600080fd5b506004361061023d5760003560e01c806378db4c341161013b578063c507aeaa116100b8578063e2bbb1581161007c578063e2bbb15814610686578063f2fde38b146106a2578063f474309e146106be578063f5a26f40146106ee578063f5b91cd31461070c5761023d565b8063c507aeaa146105e0578063c799b59d146105fc578063cc6db2da1461062c578063d2ce6ae81461064a578063dfcedeee146106685761023d565b806393f1a40b116100ff57806393f1a40b1461053a57806399d7e84a1461056c5780639dd2fcc31461058a578063ac1d0609146105a6578063c40d337b146105c25761023d565b806378db4c341461049457806378ed5d1f146104b2578063815d087f146104e257806381bdf98c146104fe5780638da5cb5b1461051c5761023d565b8063372c12b1116101c957806364482f791161018d57806364482f79146104145780636661100f1461043057806369b021281461044e5780636fda08c31461046c578063715018a61461048a5761023d565b8063372c12b114610372578063441a3e70146103a257806351eb05a6146103be5780635312ea8e146103ee578063630b5ba11461040a5761023d565b80630bb844bc116102105780630bb844bc146102ca5780631526fe27146102e657806316e80f4d1461031a57806319f95e2e1461033857806336183ed6146103565761023d565b8063033186e81461024257806303dcff7414610272578063041a84c914610290578063081e3eda146102ac575b600080fd5b61025c60048036038101906102579190613845565b61072a565b6040516102699190614798565b60405180910390f35b61027a6107a5565b60405161028791906144a0565b60405180910390f35b6102aa60048036038101906102a59190613881565b6107c9565b005b6102b4610c6e565b6040516102c19190614798565b60405180910390f35b6102e460048036038101906102df91906137e0565b610c7b565b005b61030060048036038101906102fb9190613922565b610ed7565b604051610311959493929190614813565b60405180910390f35b610322610f27565b60405161032f9190614798565b60405180910390f35b610340610f33565b60405161034d9190614798565b60405180910390f35b610370600480360381019061036b91906138d0565b610f6e565b005b61038c600480360381019061038791906137e0565b611081565b6040516103999190614485565b60405180910390f35b6103bc60048036038101906103b79190613a13565b6110a1565b005b6103d860048036038101906103d39190613922565b611380565b6040516103e5919061477d565b60405180910390f35b61040860048036038101906104039190613922565b6115a8565b005b6104126117ae565b005b61042e60048036038101906104299190613a4f565b61185d565b005b610438611a38565b6040516104459190614798565b60405180910390f35b610456611a3e565b6040516104639190614798565b60405180910390f35b610474611a48565b6040516104819190614798565b60405180910390f35b610492611a4e565b005b61049c611ba1565b6040516104a99190614798565b60405180910390f35b6104cc60048036038101906104c79190613922565b611ba7565b6040516104d991906144a0565b60405180910390f35b6104fc60048036038101906104f79190613a9e565b611be3565b005b610506611dad565b604051610513919061440a565b60405180910390f35b610524611dd3565b604051610531919061440a565b60405180910390f35b610554600480360381019061054f9190613974565b611dfc565b604051610563939291906147dc565b60405180910390f35b610574611e33565b6040516105819190614798565b60405180910390f35b6105a4600480360381019061059f91906137e0565b611e39565b005b6105c060048036038101906105bb9190613809565b61201f565b005b6105ca6121cd565b6040516105d79190614798565b60405180910390f35b6105fa60048036038101906105f591906139b0565b6121d3565b005b61061660048036038101906106119190613974565b612586565b6040516106239190614798565b60405180910390f35b6106346127f2565b6040516106419190614798565b60405180910390f35b6106526127fb565b60405161065f9190614798565b60405180910390f35b610670612804565b60405161067d919061440a565b60405180910390f35b6106a0600480360381019061069b9190613a13565b61282a565b005b6106bc60048036038101906106b791906137e0565b612d37565b005b6106d860048036038101906106d391906138d0565b612ef9565b6040516106e59190614798565b60405180910390f35b6106f6612f78565b6040516107039190614798565b60405180910390f35b610714612f7e565b6040516107219190614798565b60405180910390f35b6000806006600084815260200190815260200160002060008573ffffffffffffffffffffffffffffffffffffffff1673ffffffffffffffffffffffffffffffffffffffff16815260200190815260200160002060020154905064e8d4a51000811161079a5764e8d4a5100061079c565b805b91505092915050565b7f000000000000000000000000000000000000000000000000000000000000000081565b3373ffffffffffffffffffffffffffffffffffffffff16600360009054906101000a900473ffffffffffffffffffffffffffffffffffffffff1673ffffffffffffffffffffffffffffffffffffffff1614610859576040517f08c379a00000000000000000000000000000000000000000000000000000000081526004016108509061469d565b60405180910390fd5b6002600154141561089f576040517f08c379a00000000000000000000000000000000000000000000000000000000081526004016108969061475d565b60405180910390fd5b6002600181905550600073ffffffffffffffffffffffffffffffffffffffff168373ffffffffffffffffffffffffffffffffffffffff161415610917576040517f08c379a000000000000000000000000000000000000000000000000000000000815260040161090e906144fd565b60405180910390fd5b6004828154811061092457fe5b906000526020600020906005020160040160009054906101000a900460ff16610982576040517f08c379a00000000000000000000000000000000000000000000000000000000081526004016109799061471d565b60405180910390fd5b64e8d4a51000811015801561099d57506501d1a94a20008111155b6109dc576040517f08c379a00000000000000000000000000000000000000000000000000000000081526004016109d3906144dd565b60405180910390fd5b6109e4613710565b6109ed83611380565b905060006006600085815260200190815260200160002060008673ffffffffffffffffffffffffffffffffffffffff1673ffffffffffffffffffffffffffffffffffffffff16815260200190815260200160002090506000610a4f868661072a565b9050610a5c868683612f8a565b610aba670de0b6b3a7640000610aac8560000151610a9e64e8d4a51000610a908a89600001546130bc90919063ffffffff16565b61312c90919063ffffffff16565b6130bc90919063ffffffff16565b61312c90919063ffffffff16565b8260010181905550610b45610af364e8d4a51000610ae58786600001546130bc90919063ffffffff16565b61312c90919063ffffffff16565b610b37610b2464e8d4a51000610b168688600001546130bc90919063ffffffff16565b61312c90919063ffffffff16565b866060015161317690919063ffffffff16565b6131c090919063ffffffff16565b8360600181815250508260048681548110610b5c57fe5b90600052602060002090600502016000820151816000015560208201518160010155604082015181600201556060820151816003015560808201518160040160006101000a81548160ff021916908315150217905550905050836006600087815260200190815260200160002060008873ffffffffffffffffffffffffffffffffffffffff1673ffffffffffffffffffffffffffffffffffffffff168152602001908152602001600020600201819055508573ffffffffffffffffffffffffffffffffffffffff167f01abd62439b64f6c5dab6f94d56099495bd0c094f9c21f98f4d3562a21edb4ba868387604051610c57939291906147dc565b60405180910390a250505060018081905550505050565b6000600480549050905090565b610c83613215565b73ffffffffffffffffffffffffffffffffffffffff1660008054906101000a900473ffffffffffffffffffffffffffffffffffffffff1673ffffffffffffffffffffffffffffffffffffffff1614610d10576040517f08c379a0000000000000000000000000000000000000000000000000000000008152600401610d079061467d565b60405180910390fd5b600073ffffffffffffffffffffffffffffffffffffffff168173ffffffffffffffffffffffffffffffffffffffff161415610d80576040517f08c379a0000000000000000000000000000000000000000000000000000000008152600401610d779061457d565b60405180910390fd5b600260009054906101000a900473ffffffffffffffffffffffffffffffffffffffff1673ffffffffffffffffffffffffffffffffffffffff168173ffffffffffffffffffffffffffffffffffffffff161415610e11576040517f08c379a0000000000000000000000000000000000000000000000000000000008152600401610e08906146fd565b60405180910390fd5b6000600260009054906101000a900473ffffffffffffffffffffffffffffffffffffffff16905081600260006101000a81548173ffffffffffffffffffffffffffffffffffffffff021916908373ffffffffffffffffffffffffffffffffffffffff1602179055508173ffffffffffffffffffffffffffffffffffffffff168173ffffffffffffffffffffffffffffffffffffffff167fd146fe330fdddf682413850a35b28edfccd4c4b53cfee802fd24950de5be1dbe60405160405180910390a35050565b60048181548110610ee457fe5b90600052602060002090600502016000915090508060000154908060010154908060020154908060030154908060040160009054906101000a900460ff16905085565b670de0b6b3a764000081565b6000610f6964e8d4a51000610f5b600a54674c53ecdc18a600006130bc90919063ffffffff16565b61312c90919063ffffffff16565b905090565b610f76613215565b73ffffffffffffffffffffffffffffffffffffffff1660008054906101000a900473ffffffffffffffffffffffffffffffffffffffff1673ffffffffffffffffffffffffffffffffffffffff1614611003576040517f08c379a0000000000000000000000000000000000000000000000000000000008152600401610ffa9061467d565b60405180910390fd5b8015611012576110116117ae565b5b6000611029600d544361317690919063ffffffff16565b90506000611047611038610f33565b836130bc90919063ffffffff16565b9050611075600260009054906101000a900473ffffffffffffffffffffffffffffffffffffffff168261321d565b43600d81905550505050565b60076020528060005260406000206000915054906101000a900460ff1681565b600260015414156110e7576040517f08c379a00000000000000000000000000000000000000000000000000000000081526004016110de9061475d565b60405180910390fd5b60026001819055506110f7613710565b61110083611380565b905060006006600085815260200190815260200160002060003373ffffffffffffffffffffffffffffffffffffffff1673ffffffffffffffffffffffffffffffffffffffff1681526020019081526020016000209050828160000154101561119d576040517f08c379a00000000000000000000000000000000000000000000000000000000081526004016111949061463d565b60405180910390fd5b60006111a9338661072a565b90506111b6338683612f8a565b6000841115611241576111d684836000015461317690919063ffffffff16565b82600001819055506112403385600588815481106111f057fe5b9060005260206000200160009054906101000a900473ffffffffffffffffffffffffffffffffffffffff1673ffffffffffffffffffffffffffffffffffffffff166133309092919063ffffffff16565b5b61129f670de0b6b3a7640000611291856000015161128364e8d4a510006112758789600001546130bc90919063ffffffff16565b61312c90919063ffffffff16565b6130bc90919063ffffffff16565b61312c90919063ffffffff16565b82600101819055506113016112d464e8d4a510006112c684886130bc90919063ffffffff16565b61312c90919063ffffffff16565b600487815481106112e157fe5b90600052602060002090600502016003015461317690919063ffffffff16565b6004868154811061130e57fe5b906000526020600020906005020160030181905550843373ffffffffffffffffffffffffffffffffffffffff167ff279e6a1f5e320cca91135676d9cb6e44ca8a08c0b88342bcdb1144f6511b5688660405161136a9190614798565b60405180910390a3505050600180819055505050565b611388613710565b6004828154811061139557fe5b90600052602060002090600502016040518060a0016040529081600082015481526020016001820154815260200160028201548152602001600382015481526020016004820160009054906101000a900460ff161515151581525050905080602001514311156115a3576000816060015190506000826080015161141b5760095461141f565b6008545b90506000821180156114315750600081115b156114eb57600061144f84602001514361317690919063ffffffff16565b9050600061149a8361148c876040015161147e61146f8a60800151612ef9565b876130bc90919063ffffffff16565b6130bc90919063ffffffff16565b61312c90919063ffffffff16565b90506114df6114cc856114be670de0b6b3a7640000856130bc90919063ffffffff16565b61312c90919063ffffffff16565b86600001516131c090919063ffffffff16565b85600001818152505050505b43836020018181525050826004858154811061150357fe5b90600052602060002090600502016000820151816000015560208201518160010155604082015181600201556060820151816003015560808201518160040160006101000a81548160ff021916908315150217905550905050837f3be3541fc42237d611b30329040bfa4569541d156560acdbbae57640d20b8f468460200151848660000151604051611598939291906147dc565b60405180910390a250505b919050565b600260015414156115ee576040517f08c379a00000000000000000000000000000000000000000000000000000000081526004016115e59061475d565b60405180910390fd5b600260018190555060006004828154811061160557fe5b9060005260206000209060050201905060006006600084815260200190815260200160002060003373ffffffffffffffffffffffffffffffffffffffff1673ffffffffffffffffffffffffffffffffffffffff1681526020019081526020016000209050600081600001549050600082600001819055506000826001018190555060006116bb64e8d4a510006116ad61169e338961072a565b856130bc90919063ffffffff16565b61312c90919063ffffffff16565b9050808460030154116116cf5760006116e7565b6116e681856003015461317690919063ffffffff16565b5b846003018190555061175133836005888154811061170157fe5b9060005260206000200160009054906101000a900473ffffffffffffffffffffffffffffffffffffffff1673ffffffffffffffffffffffffffffffffffffffff166133309092919063ffffffff16565b843373ffffffffffffffffffffffffffffffffffffffff167fbb757047c2b5f3974fe26b7c10f732e7bce710b0952a71082702781e62ae0595846040516117989190614798565b60405180910390a3505050506001808190555050565b6000600480549050905060005b81811015611859576117cb613710565b600482815481106117d857fe5b90600052602060002090600502016040518060a0016040529081600082015481526020016001820154815260200160028201548152602001600382015481526020016004820160009054906101000a900460ff1615151515815250509050600081604001511461184d5761184b82611380565b505b508060010190506117bb565b5050565b611865613215565b73ffffffffffffffffffffffffffffffffffffffff1660008054906101000a900473ffffffffffffffffffffffffffffffffffffffff1673ffffffffffffffffffffffffffffffffffffffff16146118f2576040517f08c379a00000000000000000000000000000000000000000000000000000000081526004016118e99061467d565b60405180910390fd5b6118fb83611380565b50801561190b5761190a6117ae565b5b6004838154811061191857fe5b906000526020600020906005020160040160009054906101000a900460ff161561198c57611981826119736004868154811061195057fe5b90600052602060002090600502016002015460085461317690919063ffffffff16565b6131c090919063ffffffff16565b6008819055506119d8565b6119d1826119c3600486815481106119a057fe5b90600052602060002090600502016002015460095461317690919063ffffffff16565b6131c090919063ffffffff16565b6009819055505b81600484815481106119e657fe5b906000526020600020906005020160020181905550827fc0cfd54d2de2b55f1e6e108d3ec53ff0a1abe6055401d32c61e9433b747ef9f883604051611a2b9190614798565b60405180910390a2505050565b600a5481565b6501d1a94a200081565b600c5481565b611a56613215565b73ffffffffffffffffffffffffffffffffffffffff1660008054906101000a900473ffffffffffffffffffffffffffffffffffffffff1673ffffffffffffffffffffffffffffffffffffffff1614611ae3576040517f08c379a0000000000000000000000000000000000000000000000000000000008152600401611ada9061467d565b60405180910390fd5b600073ffffffffffffffffffffffffffffffffffffffff1660008054906101000a900473ffffffffffffffffffffffffffffffffffffffff1673ffffffffffffffffffffffffffffffffffffffff167f8be0079c531659141344cd1fd0a4f28419497f9722a3daafe3b4186f6b6457e060405160405180910390a360008060006101000a81548173ffffffffffffffffffffffffffffffffffffffff021916908373ffffffffffffffffffffffffffffffffffffffff160217905550565b600d5481565b60058181548110611bb457fe5b906000526020600020016000915054906101000a900473ffffffffffffffffffffffffffffffffffffffff1681565b611beb613215565b73ffffffffffffffffffffffffffffffffffffffff1660008054906101000a900473ffffffffffffffffffffffffffffffffffffffff1673ffffffffffffffffffffffffffffffffffffffff1614611c78576040517f08c379a0000000000000000000000000000000000000000000000000000000008152600401611c6f9061467d565b60405180910390fd5b600084118015611c885750600083115b8015611c945750600082115b611cd3576040517f08c379a0000000000000000000000000000000000000000000000000000000008152600401611cca906145bd565b60405180910390fd5b64e8d4a51000611cfe83611cf086886131c090919063ffffffff16565b6131c090919063ffffffff16565b14611d3e576040517f08c379a0000000000000000000000000000000000000000000000000000000008152600401611d35906145dd565b60405180910390fd5b8015611d4d57611d4c6117ae565b5b611d576000610f6e565b83600a8190555082600b8190555081600c819055507f49f805c5fed16b2296163d4fd1958b1961efe39fef41cbb4b981aaa3d80d22d2848484604051611d9f939291906147dc565b60405180910390a150505050565b600260009054906101000a900473ffffffffffffffffffffffffffffffffffffffff1681565b60008060009054906101000a900473ffffffffffffffffffffffffffffffffffffffff16905090565b6006602052816000526040600020602052806000526040600020600091509150508060000154908060010154908060020154905083565b60095481565b611e41613215565b73ffffffffffffffffffffffffffffffffffffffff1660008054906101000a900473ffffffffffffffffffffffffffffffffffffffff1673ffffffffffffffffffffffffffffffffffffffff1614611ece576040517f08c379a0000000000000000000000000000000000000000000000000000000008152600401611ec59061467d565b60405180910390fd5b600073ffffffffffffffffffffffffffffffffffffffff168173ffffffffffffffffffffffffffffffffffffffff1614158015611f595750600360009054906101000a900473ffffffffffffffffffffffffffffffffffffffff1673ffffffffffffffffffffffffffffffffffffffff168173ffffffffffffffffffffffffffffffffffffffff1614155b611f98576040517f08c379a0000000000000000000000000000000000000000000000000000000008152600401611f8f906146bd565b60405180910390fd5b80600360006101000a81548173ffffffffffffffffffffffffffffffffffffffff021916908373ffffffffffffffffffffffffffffffffffffffff1602179055508073ffffffffffffffffffffffffffffffffffffffff167f4c0c07d0b548b824a1b998eb4d11fccf1cfbc1e47edcdb309970ba88315eb30360405160405180910390a250565b612027613215565b73ffffffffffffffffffffffffffffffffffffffff1660008054906101000a900473ffffffffffffffffffffffffffffffffffffffff1673ffffffffffffffffffffffffffffffffffffffff16146120b4576040517f08c379a00000000000000000000000000000000000000000000000000000000081526004016120ab9061467d565b60405180910390fd5b600073ffffffffffffffffffffffffffffffffffffffff168273ffffffffffffffffffffffffffffffffffffffff161415612124576040517f08c379a000000000000000000000000000000000000000000000000000000000815260040161211b906145fd565b60405180910390fd5b80600760008473ffffffffffffffffffffffffffffffffffffffff1673ffffffffffffffffffffffffffffffffffffffff16815260200190815260200160002060006101000a81548160ff0219169083151502179055508173ffffffffffffffffffffffffffffffffffffffff167fc551bbb22d0406dbfb8b6b7740cc521bcf44e1106029cf899c19b6a8e4c99d51826040516121c19190614485565b60405180910390a25050565b60085481565b6121db613215565b73ffffffffffffffffffffffffffffffffffffffff1660008054906101000a900473ffffffffffffffffffffffffffffffffffffffff1673ffffffffffffffffffffffffffffffffffffffff1614612268576040517f08c379a000000000000000000000000000000000000000000000000000000000815260040161225f9061467d565b60405180910390fd5b60008373ffffffffffffffffffffffffffffffffffffffff166370a08231306040518263ffffffff1660e01b81526004016122a3919061440a565b60206040518083038186803b1580156122bb57600080fd5b505afa1580156122cf573d6000803e3d6000fd5b505050506040513d601f19601f820116820180604052508101906122f3919061394b565b1015612334576040517f08c379a000000000000000000000000000000000000000000000000000000000815260040161232b9061465d565b60405180910390fd5b7f000000000000000000000000000000000000000000000000000000000000000073ffffffffffffffffffffffffffffffffffffffff168373ffffffffffffffffffffffffffffffffffffffff1614156123c3576040517f08c379a00000000000000000000000000000000000000000000000000000000081526004016123ba9061473d565b60405180910390fd5b80156123d2576123d16117ae565b5b81156123f8576123ed846008546131c090919063ffffffff16565b600881905550612414565b61240d846009546131c090919063ffffffff16565b6009819055505b6005839080600181540180825580915050600190039060005260206000200160009091909190916101000a81548173ffffffffffffffffffffffffffffffffffffffff021916908373ffffffffffffffffffffffffffffffffffffffff16021790555060046040518060a00160405280600081526020014381526020018681526020016000815260200184151581525090806001815401808255809150506001900390600052602060002090600502016000909190919091506000820151816000015560208201518160010155604082015181600201556060820151816003015560808201518160040160006101000a81548160ff02191690831515021790555050508273ffffffffffffffffffffffffffffffffffffffff16612547600160058054905061317690919063ffffffff16565b7f18caa0724a26384928efe604ae6ddc99c242548876259770fc88fcb7e719d8fa86856040516125789291906147b3565b60405180910390a350505050565b6000612590613710565b6004848154811061259d57fe5b90600052602060002090600502016040518060a0016040529081600082015481526020016001820154815260200160028201548152602001600382015481526020016004820160009054906101000a900460ff1615151515815250509050612603613741565b6006600086815260200190815260200160002060008573ffffffffffffffffffffffffffffffffffffffff1673ffffffffffffffffffffffffffffffffffffffff168152602001908152602001600020604051806060016040529081600082015481526020016001820154815260200160028201548152505090506000826000015190506000836060015190508360200151431180156126a4575060008114155b156127675760006126c285602001514361317690919063ffffffff16565b9050600061272186608001516126da576009546126de565b6008545b61271388604001516127056126f68b60800151612ef9565b876130bc90919063ffffffff16565b6130bc90919063ffffffff16565b61312c90919063ffffffff16565b905061276261275384612745670de0b6b3a7640000856130bc90919063ffffffff16565b61312c90919063ffffffff16565b856131c090919063ffffffff16565b935050505b60006127a064e8d4a5100061279261277f8a8c61072a565b87600001516130bc90919063ffffffff16565b61312c90919063ffffffff16565b90506127e584602001516127d7670de0b6b3a76400006127c987866130bc90919063ffffffff16565b61312c90919063ffffffff16565b61317690919063ffffffff16565b9550505050505092915050565b64e8d4a5100081565b64e8d4a5100081565b600360009054906101000a900473ffffffffffffffffffffffffffffffffffffffff1681565b60026001541415612870576040517f08c379a00000000000000000000000000000000000000000000000000000000081526004016128679061475d565b60405180910390fd5b6002600181905550612880613710565b61288983611380565b905060006006600085815260200190815260200160002060003373ffffffffffffffffffffffffffffffffffffffff1673ffffffffffffffffffffffffffffffffffffffff16815260200190815260200160002090508160800151806129385750600760003373ffffffffffffffffffffffffffffffffffffffff1673ffffffffffffffffffffffffffffffffffffffff16815260200190815260200160002060009054906101000a900460ff165b612977576040517f08c379a000000000000000000000000000000000000000000000000000000000815260040161296e9061459d565b60405180910390fd5b6000612983338661072a565b905060008260000154111561299e5761299d338683612f8a565b5b6000841115612c0d576000600586815481106129b657fe5b9060005260206000200160009054906101000a900473ffffffffffffffffffffffffffffffffffffffff1673ffffffffffffffffffffffffffffffffffffffff166370a08231306040518263ffffffff1660e01b8152600401612a19919061440a565b60206040518083038186803b158015612a3157600080fd5b505afa158015612a45573d6000803e3d6000fd5b505050506040513d601f19601f82011682018060405250810190612a69919061394b565b9050612acf33308760058a81548110612a7e57fe5b9060005260206000200160009054906101000a900473ffffffffffffffffffffffffffffffffffffffff1673ffffffffffffffffffffffffffffffffffffffff166133b6909392919063ffffffff16565b612ba18160058881548110612ae057fe5b9060005260206000200160009054906101000a900473ffffffffffffffffffffffffffffffffffffffff1673ffffffffffffffffffffffffffffffffffffffff166370a08231306040518263ffffffff1660e01b8152600401612b43919061440a565b60206040518083038186803b158015612b5b57600080fd5b505afa158015612b6f573d6000803e3d6000fd5b505050506040513d601f19601f82011682018060405250810190612b93919061394b565b61317690919063ffffffff16565b9450612bba8584600001546131c090919063ffffffff16565b8360000181905550612c02612bef64e8d4a51000612be185896130bc90919063ffffffff16565b61312c90919063ffffffff16565b85606001516131c090919063ffffffff16565b846060018181525050505b612c6b670de0b6b3a7640000612c5d8560000151612c4f64e8d4a51000612c418789600001546130bc90919063ffffffff16565b61312c90919063ffffffff16565b6130bc90919063ffffffff16565b61312c90919063ffffffff16565b82600101819055508260048681548110612c8157fe5b90600052602060002090600502016000820151816000015560208201518160010155604082015181600201556060820151816003015560808201518160040160006101000a81548160ff021916908315150217905550905050843373ffffffffffffffffffffffffffffffffffffffff167f90890809c654f11d6e72a28fa60149770a0d11ec6c92319d6ceb2bb0a4ea1a1586604051612d219190614798565b60405180910390a3505050600180819055505050565b612d3f613215565b73ffffffffffffffffffffffffffffffffffffffff1660008054906101000a900473ffffffffffffffffffffffffffffffffffffffff1673ffffffffffffffffffffffffffffffffffffffff1614612dcc576040517f08c379a0000000000000000000000000000000000000000000000000000000008152600401612dc39061467d565b60405180910390fd5b600073ffffffffffffffffffffffffffffffffffffffff168173ffffffffffffffffffffffffffffffffffffffff161415612e3c576040517f08c379a0000000000000000000000000000000000000000000000000000000008152600401612e339061453d565b60405180910390fd5b8073ffffffffffffffffffffffffffffffffffffffff1660008054906101000a900473ffffffffffffffffffffffffffffffffffffffff1673ffffffffffffffffffffffffffffffffffffffff167f8be0079c531659141344cd1fd0a4f28419497f9722a3daafe3b4186f6b6457e060405160405180910390a3806000806101000a81548173ffffffffffffffffffffffffffffffffffffffff021916908373ffffffffffffffffffffffffffffffffffffffff16021790555050565b60008115612f3c57612f3564e8d4a51000612f27600b54674c53ecdc18a600006130bc90919063ffffffff16565b61312c90919063ffffffff16565b9050612f73565b612f7064e8d4a51000612f62600c54674c53ecdc18a600006130bc90919063ffffffff16565b61312c90919063ffffffff16565b90505b919050565b600b5481565b674c53ecdc18a6000081565b612f92613741565b6006600084815260200190815260200160002060008573ffffffffffffffffffffffffffffffffffffffff1673ffffffffffffffffffffffffffffffffffffffff16815260200190815260200160002060405180606001604052908160008201548152602001600182015481526020016002820154815250509050600061303d64e8d4a5100061302f8585600001516130bc90919063ffffffff16565b61312c90919063ffffffff16565b9050600061308c670de0b6b3a764000061307e6004888154811061305d57fe5b906000526020600020906005020160000154856130bc90919063ffffffff16565b61312c90919063ffffffff16565b905060006130a784602001518361317690919063ffffffff16565b90506130b3878261321d565b50505050505050565b6000808314156130cf5760009050613126565b60008284029050828482816130e057fe5b0414613121576040517f08c379a00000000000000000000000000000000000000000000000000000000081526004016131189061461d565b60405180910390fd5b809150505b92915050565b600061316e83836040518060400160405280601a81526020017f536166654d6174683a206469766973696f6e206279207a65726f00000000000081525061343f565b905092915050565b60006131b883836040518060400160405280601e81526020017f536166654d6174683a207375627472616374696f6e206f766572666c6f7700008152506134a0565b905092915050565b60008082840190508381101561320b576040517f08c379a00000000000000000000000000000000000000000000000000000000081526004016132029061455d565b60405180910390fd5b8091505092915050565b600033905090565b600081111561332c5760007f000000000000000000000000000000000000000000000000000000000000000073ffffffffffffffffffffffffffffffffffffffff166370a08231306040518263ffffffff1660e01b8152600401613281919061440a565b60206040518083038186803b15801561329957600080fd5b505afa1580156132ad573d6000803e3d6000fd5b505050506040513d601f19601f820116820180604052508101906132d1919061394b565b9050818110156132df578091505b61332a83837f000000000000000000000000000000000000000000000000000000000000000073ffffffffffffffffffffffffffffffffffffffff166133309092919063ffffffff16565b505b5050565b6133b18363a9059cbb60e01b848460405160240161334f92919061445c565b604051602081830303815290604052907bffffffffffffffffffffffffffffffffffffffffffffffffffffffff19166020820180517bffffffffffffffffffffffffffffffffffffffffffffffffffffffff83818316178352505050506134fb565b505050565b613439846323b872dd60e01b8585856040516024016133d793929190614425565b604051602081830303815290604052907bffffffffffffffffffffffffffffffffffffffffffffffffffffffff19166020820180517bffffffffffffffffffffffffffffffffffffffffffffffffffffffff83818316178352505050506134fb565b50505050565b60008083118290613486576040517f08c379a000000000000000000000000000000000000000000000000000000000815260040161347d91906144bb565b60405180910390fd5b50600083858161349257fe5b049050809150509392505050565b60008383111582906134e8576040517f08c379a00000000000000000000000000000000000000000000000000000000081526004016134df91906144bb565b60405180910390fd5b5060008385039050809150509392505050565b606061355d826040518060400160405280602081526020017f5361666542455032303a206c6f772d6c6576656c2063616c6c206661696c65648152508573ffffffffffffffffffffffffffffffffffffffff166135c29092919063ffffffff16565b90506000815111156135bd578080602001905181019061357d91906138f9565b6135bc576040517f08c379a00000000000000000000000000000000000000000000000000000000081526004016135b39061451d565b60405180910390fd5b5b505050565b60606135d184846000856135da565b90509392505050565b60606135e5856136fd565b613624576040517f08c379a000000000000000000000000000000000000000000000000000000000815260040161361b906146dd565b60405180910390fd5b600060608673ffffffffffffffffffffffffffffffffffffffff16858760405161364e91906143f3565b60006040518083038185875af1925050503d806000811461368b576040519150601f19603f3d011682016040523d82523d6000602084013e613690565b606091505b509150915081156136a55780925050506136f5565b6000815111156136b85780518082602001fd5b836040517f08c379a00000000000000000000000000000000000000000000000000000000081526004016136ec91906144bb565b60405180910390fd5b949350505050565b600080823b905060008111915050919050565b6040518060a00160405280600081526020016000815260200160008152602001600081526020016000151581525090565b60405180606001604052806000815260200160008152602001600081525090565b6000813590506137718161495a565b92915050565b60008135905061378681614971565b92915050565b60008151905061379b81614971565b92915050565b6000813590506137b081614988565b92915050565b6000813590506137c58161499f565b92915050565b6000815190506137da8161499f565b92915050565b6000602082840312156137f257600080fd5b600061380084828501613762565b91505092915050565b6000806040838503121561381c57600080fd5b600061382a85828601613762565b925050602061383b85828601613777565b9150509250929050565b6000806040838503121561385857600080fd5b600061386685828601613762565b9250506020613877858286016137b6565b9150509250929050565b60008060006060848603121561389657600080fd5b60006138a486828701613762565b93505060206138b5868287016137b6565b92505060406138c6868287016137b6565b9150509250925092565b6000602082840312156138e257600080fd5b60006138f084828501613777565b91505092915050565b60006020828403121561390b57600080fd5b60006139198482850161378c565b91505092915050565b60006020828403121561393457600080fd5b6000613942848285016137b6565b91505092915050565b60006020828403121561395d57600080fd5b600061396b848285016137cb565b91505092915050565b6000806040838503121561398757600080fd5b6000613995858286016137b6565b92505060206139a685828601613762565b9150509250929050565b600080600080608085870312156139c657600080fd5b60006139d4878288016137b6565b94505060206139e5878288016137a1565b93505060406139f687828801613777565b9250506060613a0787828801613777565b91505092959194509250565b60008060408385031215613a2657600080fd5b6000613a34858286016137b6565b9250506020613a45858286016137b6565b9150509250929050565b600080600060608486031215613a6457600080fd5b6000613a72868287016137b6565b9350506020613a83868287016137b6565b9250506040613a9486828701613777565b9150509250925092565b60008060008060808587031215613ab457600080fd5b6000613ac2878288016137b6565b9450506020613ad3878288016137b6565b9350506040613ae4878288016137b6565b9250506060613af587828801613777565b91505092959194509250565b613b0a81614898565b82525050565b613b19816148aa565b82525050565b613b28816148aa565b82525050565b6000613b3982614866565b613b43818561487c565b9350613b53818560208601614916565b80840191505092915050565b613b68816148f2565b82525050565b6000613b7982614871565b613b838185614887565b9350613b93818560208601614916565b613b9c81614949565b840191505092915050565b6000613bb4602a83614887565b91507f536861646f774368656656323a20496e76616c6964206e657720626f6f73742060008301527f6d756c7469706c696572000000000000000000000000000000000000000000006020830152604082019050919050565b6000613c1a602c83614887565b91507f536861646f774368656656323a2054686520757365722061646472657373206d60008301527f7573742062652076616c696400000000000000000000000000000000000000006020830152604082019050919050565b6000613c80602a83614887565b91507f5361666542455032303a204245503230206f7065726174696f6e20646964206e60008301527f6f742073756363656564000000000000000000000000000000000000000000006020830152604082019050919050565b6000613ce6602683614887565b91507f4f776e61626c653a206e6577206f776e657220697320746865207a65726f206160008301527f64647265737300000000000000000000000000000000000000000000000000006020830152604082019050919050565b6000613d4c601b83614887565b91507f536166654d6174683a206164646974696f6e206f766572666c6f7700000000006000830152602082019050919050565b6000613d8c602e83614887565b91507f536861646f774368656656323a204275726e2061646d696e206164647265737360008301527f206d7573742062652076616c69640000000000000000000000000000000000006020830152604082019050919050565b6000613df2604283614887565b91507f536861646f774368656656323a205468652061646472657373206973206e6f7460008301527f20617661696c61626c6520746f206465706f73697420696e207468697320706f60208301527f6f6c0000000000000000000000000000000000000000000000000000000000006040830152606082019050919050565b6000613e7e602e83614887565b91507f536861646f774368656656323a20534844572072617465206d7573742062652060008301527f67726561746572207468616e20300000000000000000000000000000000000006020830152604082019050919050565b6000613ee4602583614887565b91507f536861646f774368656656323a20546f74616c2072617465206d75737420626560008301527f20316531320000000000000000000000000000000000000000000000000000006020830152604082019050919050565b6000613f4a603283614887565b91507f536861646f774368656656323a20546865207768697465206c6973742061646460008301527f72657373206d7573742062652076616c696400000000000000000000000000006020830152604082019050919050565b6000613fb0602183614887565b91507f536166654d6174683a206d756c7469706c69636174696f6e206f766572666c6f60008301527f77000000000000000000000000000000000000000000000000000000000000006020830152604082019050919050565b6000614016601683614887565b91507f77697468647261773a20496e73756666696369656e74000000000000000000006000830152602082019050919050565b6000614056601183614887565b91507f4e6f6e6520424550323020746f6b656e730000000000000000000000000000006000830152602082019050919050565b6000614096602083614887565b91507f4f776e61626c653a2063616c6c6572206973206e6f7420746865206f776e65726000830152602082019050919050565b60006140d6602983614887565b91507f4f776e61626c653a2063616c6c6572206973206e6f742074686520626f6f737460008301527f20636f6e747261637400000000000000000000000000000000000000000000006020830152604082019050919050565b600061413c603683614887565b91507f536861646f774368656656323a204e657720626f6f737420636f6e747261637460008301527f2061646472657373206d7573742062652076616c6964000000000000000000006020830152604082019050919050565b60006141a2601d83614887565b91507f416464726573733a2063616c6c20746f206e6f6e2d636f6e74726163740000006000830152602082019050919050565b60006141e2604183614887565b91507f536861646f774368656656323a204275726e2061646d696e206164647265737360008301527f206973207468652073616d6520776974682063757272656e742061646472657360208301527f73000000000000000000000000000000000000000000000000000000000000006040830152606082019050919050565b600061426e603083614887565b91507f536861646f774368656656323a204f6e6c7920726567756c6172206661726d2060008301527f636f756c6420626520626f6f73746564000000000000000000000000000000006020830152604082019050919050565b60006142d4602783614887565b91507f5348445720746f6b656e2063616e277420626520616464656420746f2066617260008301527f6d20706f6f6c73000000000000000000000000000000000000000000000000006020830152604082019050919050565b600061433a601f83614887565b91507f5265656e7472616e637947756172643a207265656e7472616e742063616c6c006000830152602082019050919050565b60a08201600082015161438360008501826143d5565b50602082015161439660208501826143d5565b5060408201516143a960408501826143d5565b5060608201516143bc60608501826143d5565b5060808201516143cf6080850182613b10565b50505050565b6143de816148e8565b82525050565b6143ed816148e8565b82525050565b60006143ff8284613b2e565b915081905092915050565b600060208201905061441f6000830184613b01565b92915050565b600060608201905061443a6000830186613b01565b6144476020830185613b01565b61445460408301846143e4565b949350505050565b60006040820190506144716000830185613b01565b61447e60208301846143e4565b9392505050565b600060208201905061449a6000830184613b1f565b92915050565b60006020820190506144b56000830184613b5f565b92915050565b600060208201905081810360008301526144d58184613b6e565b905092915050565b600060208201905081810360008301526144f681613ba7565b9050919050565b6000602082019050818103600083015261451681613c0d565b9050919050565b6000602082019050818103600083015261453681613c73565b9050919050565b6000602082019050818103600083015261455681613cd9565b9050919050565b6000602082019050818103600083015261457681613d3f565b9050919050565b6000602082019050818103600083015261459681613d7f565b9050919050565b600060208201905081810360008301526145b681613de5565b9050919050565b600060208201905081810360008301526145d681613e71565b9050919050565b600060208201905081810360008301526145f681613ed7565b9050919050565b6000602082019050818103600083015261461681613f3d565b9050919050565b6000602082019050818103600083015261463681613fa3565b9050919050565b6000602082019050818103600083015261465681614009565b9050919050565b6000602082019050818103600083015261467681614049565b9050919050565b6000602082019050818103600083015261469681614089565b9050919050565b600060208201905081810360008301526146b6816140c9565b9050919050565b600060208201905081810360008301526146d68161412f565b9050919050565b600060208201905081810360008301526146f681614195565b9050919050565b60006020820190508181036000830152614716816141d5565b9050919050565b6000602082019050818103600083015261473681614261565b9050919050565b60006020820190508181036000830152614756816142c7565b9050919050565b600060208201905081810360008301526147768161432d565b9050919050565b600060a082019050614792600083018461436d565b92915050565b60006020820190506147ad60008301846143e4565b92915050565b60006040820190506147c860008301856143e4565b6147d56020830184613b1f565b9392505050565b60006060820190506147f160008301866143e4565b6147fe60208301856143e4565b61480b60408301846143e4565b949350505050565b600060a08201905061482860008301886143e4565b61483560208301876143e4565b61484260408301866143e4565b61484f60608301856143e4565b61485c6080830184613b1f565b9695505050505050565b600081519050919050565b600081519050919050565b600081905092915050565b600082825260208201905092915050565b60006148a3826148c8565b9050919050565b60008115159050919050565b60006148c182614898565b9050919050565b600073ffffffffffffffffffffffffffffffffffffffff82169050919050565b6000819050919050565b60006148fd82614904565b9050919050565b600061490f826148c8565b9050919050565b60005b83811015614934578082015181840152602081019050614919565b83811115614943576000848401525b50505050565b6000601f19601f8301169050919050565b61496381614898565b811461496e57600080fd5b50565b61497a816148aa565b811461498557600080fd5b50565b614991816148b6565b811461499c57600080fd5b50565b6149a8816148e8565b81146149b357600080fd5b5056fea264697066735822122048b166f51170cd838236b01906c6e6077f239645c6c7d69ed4c92cb0aa1324c564736f6c634300060c0033",
  "immutableReferences": {
    "275": [
      {
        "length": 32,
        "start": 1959
      },
      {
        "length": 32,
        "start": 9014
      },
      {
        "length": 32,
        "start": 12842
      },
      {
        "length": 32,
        "start": 13030
      }
    ]
  },
  "source": "// SPDX-License-Identifier: MIT\r\n\r\npragma solidity 0.6.12;\r\npragma experimental ABIEncoderV2;\r\n\r\nimport \"./access/Ownable.sol\";\r\nimport \"./utils/SafeMath.sol\";\r\nimport \"./security/ReentrancyGuard.sol\";\r\nimport \"./interfaces/IBEP20.sol\";\r\nimport \"./SafeBEP20.sol\";\r\n\r\n/// @notice The (older) MasterChef contract gives out a constant number of SHDW tokens per block.\r\n/// It is the only address with minting rights for SHDW.\r\n/// The idea for this ShadowChef V2 (MCV2) contract is therefore to be the owner of a dummy token\r\n/// that is deposited into the MasterChef V1 (MCV1) contract.\r\n/// The allocation point for this pool on MCV1 is the total allocation point for all pools that receive incentives.\r\ncontract ShadowChefV2 is Ownable, ReentrancyGuard {\r\n    using SafeMath for uint256;\r\n    using SafeBEP20 for IBEP20;\r\n\r\n    /// @notice Info of each MCV2 user.\r\n    /// `amount` LP token amount the user has provided.\r\n    /// `rewardDebt` Used to calculate the correct amount of rewards. See explanation below.\r\n    ///\r\n    /// We do some fancy math here. Basically, any point in time, the amount of SHDWs\r\n    /// entitled to a user but is pending to be distributed is:\r\n    ///\r\n    ///   pending reward = (user share * pool.accShdwPerShare) - user.rewardDebt\r\n    ///\r\n    ///   Whenever a user deposits or withdraws LP tokens to a pool. Here's what happens:\r\n    ///   1. The pool's `accShdwPerShare` (and `lastRewardBlock`) gets updated.\r\n    ///   2. User receives the pending reward sent to his/her address.\r\n    ///   3. User's `amount` gets updated. Pool's `totalBoostedShare` gets updated.\r\n    ///   4. User's `rewardDebt` gets updated.\r\n    struct UserInfo {\r\n        uint256 amount;\r\n        uint256 rewardDebt;\r\n        uint256 boostMultiplier;\r\n    }\r\n\r\n    /// @notice Info of each MCV2 pool.\r\n    /// `allocPoint` The amount of allocation points assigned to the pool.\r\n    ///     Also known as the amount of \"multipliers\". Combined with `totalXAllocPoint`, it defines the % of\r\n    ///     SHDW rewards each pool gets.\r\n    /// `accShdwPerShare` Accumulated SHDWs per share, times 1e12.\r\n    /// `lastRewardBlock` Last block number that pool update action is executed.\r\n    /// `isRegular` The flag to set pool is regular or special. See below:\r\n    ///     In ShadowChef V2 farms are \"regular pools\". \"special pools\", which use a different sets of\r\n    ///     `allocPoint` and their own `totalSpecialAllocPoint` are designed to handle the distribution of\r\n    ///     the SHDW rewards to all the ShadowSwap products.\r\n    /// `totalBoostedShare` The total amount of user shares in each pool. After considering the share boosts.\r\n    struct PoolInfo {\r\n        uint256 accShdwPerShare;\r\n        uint256 lastRewardBlock;\r\n        uint256 allocPoint;\r\n        uint256 totalBoostedShare;\r\n        bool isRegular;\r\n    }\r\n\r\n    /// @notice Address of SHDW contract.\r\n    IBEP20 public immutable SHDW;\r\n\r\n    /// @notice The only address can withdraw all the burn SHDW.\r\n    address public burnAdmin;\r\n    /// @notice The contract handles the share boosts.\r\n    address public boostContract;\r\n\r\n    /// @notice Info of each MCV2 pool.\r\n    PoolInfo[] public poolInfo;\r\n    /// @notice Address of the LP token for each MCV2 pool.\r\n    IBEP20[] public lpToken;\r\n\r\n    /// @notice Info of each pool user.\r\n    mapping(uint256 => mapping(address => UserInfo)) public userInfo;\r\n    /// @notice The whitelist of addresses allowed to deposit in special pools.\r\n    mapping(address => bool) public whiteList;\r\n\r\n    /// @notice Total regular allocation points. Must be the sum of all regular pools' allocation points.\r\n    uint256 public totalRegularAllocPoint;\r\n    /// @notice Total special allocation points. Must be the sum of all special pools' allocation points.\r\n    uint256 public totalSpecialAllocPoint;\r\n    ///  @notice 40 SHDWs per block in MCV1\r\n    uint256 public constant MASTERCHEF_SHDW_PER_BLOCK = 5.5 * 1e18;\r\n    uint256 public constant ACC_SHDW_PRECISION = 1e18;\r\n\r\n    /// @notice Basic boost factor, none boosted user's boost factor\r\n    uint256 public constant BOOST_PRECISION = 100 * 1e10;\r\n    /// @notice Hard limit for maxmium boost factor, it must greater than BOOST_PRECISION\r\n    uint256 public constant MAX_BOOST_PRECISION = 200 * 1e10;\r\n    /// @notice total SHDW rate = toBurn + toRegular + toSpecial\r\n    uint256 public constant SHDW_RATE_TOTAL_PRECISION = 1e12;\r\n    /// @notice The last block number of SHDW burn action being executed.\r\n    /// @notice SHDW distribute % for burn\r\n    uint256 public shdwRateToBurn = 643750000000;\r\n    /// @notice SHDW distribute % for regular farm pool\r\n    uint256 public shdwRateToRegularFarm = 62847222222;\r\n    /// @notice SHDW distribute % for special pools\r\n    uint256 public shdwRateToSpecialFarm = 293402777778;\r\n\r\n    uint256 public lastBurnedBlock;\r\n\r\n    event Init();\r\n    event AddPool(uint256 indexed pid, uint256 allocPoint, IBEP20 indexed lpToken, bool isRegular);\r\n    event SetPool(uint256 indexed pid, uint256 allocPoint);\r\n    event UpdatePool(uint256 indexed pid, uint256 lastRewardBlock, uint256 lpSupply, uint256 accShdwPerShare);\r\n    event Deposit(address indexed user, uint256 indexed pid, uint256 amount);\r\n    event Withdraw(address indexed user, uint256 indexed pid, uint256 amount);\r\n    event EmergencyWithdraw(address indexed user, uint256 indexed pid, uint256 amount);\r\n\r\n    event EventUpdateShdwRate(uint256 burnRate, uint256 regularFarmRate, uint256 specialFarmRate);\r\n    event UpdateBurnAdmin(address indexed oldAdmin, address indexed newAdmin);\r\n    event UpdateWhiteList(address indexed user, bool isValid);\r\n    event UpdateBoostContract(address indexed boostContract);\r\n    event UpdateBoostMultiplier(address indexed user, uint256 pid, uint256 oldMultiplier, uint256 newMultiplier);\r\n\r\n    /// @param _SHDW The SHDW token contract address.\r\n    /// @param _burnAdmin The address of burn admin.\r\n    constructor(IBEP20 _SHDW, address _burnAdmin) public {\r\n        SHDW = _SHDW;\r\n        burnAdmin = _burnAdmin;\r\n    }\r\n\r\n    /**\r\n     * @dev Throws if caller is not the boost contract.\r\n     */\r\n    modifier onlyBoostContract() {\r\n        require(boostContract == msg.sender, \"Ownable: caller is not the boost contract\");\r\n        _;\r\n    }\r\n\r\n    /// @notice Returns the number of MCV2 pools.\r\n    function poolLength() public view returns (uint256 pools) {\r\n        pools = poolInfo.length;\r\n    }\r\n\r\n    /// @notice Add a new pool. Can only be called by the owner.\r\n    /// DO NOT add the same LP token more than once. Rewards will be messed up if you do.\r\n    /// @param _allocPoint Number of allocation points for the new pool.\r\n    /// @param _lpToken Address of the LP BEP-20 token.\r\n    /// @param _isRegular Whether the pool is regular or special. LP farms are always \"regular\". \"Special\" pools are\r\n    /// @param _withUpdate Whether call \"massUpdatePools\" operation.\r\n    /// only for SHDW distributions within ShadowSwap products.\r\n    function add(\r\n        uint256 _allocPoint,\r\n        IBEP20 _lpToken,\r\n        bool _isRegular,\r\n        bool _withUpdate\r\n    ) external onlyOwner {\r\n        require(_lpToken.balanceOf(address(this)) >= 0, \"None BEP20 tokens\");\r\n        // stake SHDW token will cause staked token and reward token mixed up,\r\n        // may cause staked tokens withdraw as reward token,never do it.\r\n        require(_lpToken != SHDW, \"SHDW token can't be added to farm pools\");\r\n\r\n        if (_withUpdate) {\r\n            massUpdatePools();\r\n        }\r\n\r\n        if (_isRegular) {\r\n            totalRegularAllocPoint = totalRegularAllocPoint.add(_allocPoint);\r\n        } else {\r\n            totalSpecialAllocPoint = totalSpecialAllocPoint.add(_allocPoint);\r\n        }\r\n        lpToken.push(_lpToken);\r\n\r\n        poolInfo.push(\r\n            PoolInfo({\r\n                allocPoint: _allocPoint,\r\n                lastRewardBlock: block.number,\r\n                accShdwPerShare: 0,\r\n                isRegular: _isRegular,\r\n                totalBoostedShare: 0\r\n            })\r\n        );\r\n        emit AddPool(lpToken.length.sub(1), _allocPoint, _lpToken, _isRegular);\r\n    }\r\n\r\n    /// @notice Update the given pool's SHDW allocation point. Can only be called by the owner.\r\n    /// @param _pid The id of the pool. See `poolInfo`.\r\n    /// @param _allocPoint New number of allocation points for the pool.\r\n    /// @param _withUpdate Whether call \"massUpdatePools\" operation.\r\n    function set(\r\n        uint256 _pid,\r\n        uint256 _allocPoint,\r\n        bool _withUpdate\r\n    ) external onlyOwner {\r\n        // No matter _withUpdate is true or false, we need to execute updatePool once before set the pool parameters.\r\n        updatePool(_pid);\r\n\r\n        if (_withUpdate) {\r\n            massUpdatePools();\r\n        }\r\n\r\n        if (poolInfo[_pid].isRegular) {\r\n            totalRegularAllocPoint = totalRegularAllocPoint.sub(poolInfo[_pid].allocPoint).add(_allocPoint);\r\n        } else {\r\n            totalSpecialAllocPoint = totalSpecialAllocPoint.sub(poolInfo[_pid].allocPoint).add(_allocPoint);\r\n        }\r\n        poolInfo[_pid].allocPoint = _allocPoint;\r\n        emit SetPool(_pid, _allocPoint);\r\n    }\r\n\r\n    /// @notice View function for checking pending SHDW rewards.\r\n    /// @param _pid The id of the pool. See `poolInfo`.\r\n    /// @param _user Address of the user.\r\n    function pendingShdw(uint256 _pid, address _user) external view returns (uint256) {\r\n        PoolInfo memory pool = poolInfo[_pid];\r\n        UserInfo memory user = userInfo[_pid][_user];\r\n        uint256 accShdwPerShare = pool.accShdwPerShare;\r\n        uint256 lpSupply = pool.totalBoostedShare;\r\n\r\n        if (block.number > pool.lastRewardBlock && lpSupply != 0) {\r\n            uint256 multiplier = block.number.sub(pool.lastRewardBlock);\r\n\r\n            uint256 shdwReward = multiplier.mul(shdwPerBlock(pool.isRegular)).mul(pool.allocPoint).div(\r\n                (pool.isRegular ? totalRegularAllocPoint : totalSpecialAllocPoint)\r\n            );\r\n            accShdwPerShare = accShdwPerShare.add(shdwReward.mul(ACC_SHDW_PRECISION).div(lpSupply));\r\n        }\r\n\r\n        uint256 boostedAmount = user.amount.mul(getBoostMultiplier(_user, _pid)).div(BOOST_PRECISION);\r\n        return boostedAmount.mul(accShdwPerShare).div(ACC_SHDW_PRECISION).sub(user.rewardDebt);\r\n    }\r\n\r\n    /// @notice Update SHDW reward for all the active pools. Be careful of gas spending!\r\n    function massUpdatePools() public {\r\n        uint256 length = poolInfo.length;\r\n        for (uint256 pid = 0; pid < length; ++pid) {\r\n            PoolInfo memory pool = poolInfo[pid];\r\n            if (pool.allocPoint != 0) {\r\n                updatePool(pid);\r\n            }\r\n        }\r\n    }\r\n\r\n    /// @notice Calculates and returns the `amount` of SHDW per block.\r\n    /// @param _isRegular If the pool belongs to regular or special.\r\n    function shdwPerBlock(bool _isRegular) public view returns (uint256 amount) {\r\n        if (_isRegular) {\r\n            amount = MASTERCHEF_SHDW_PER_BLOCK.mul(shdwRateToRegularFarm).div(SHDW_RATE_TOTAL_PRECISION);\r\n        } else {\r\n            amount = MASTERCHEF_SHDW_PER_BLOCK.mul(shdwRateToSpecialFarm).div(SHDW_RATE_TOTAL_PRECISION);\r\n        }\r\n    }\r\n\r\n    /// @notice Calculates and returns the `amount` of SHDW per block to burn.\r\n    function shdwPerBlockToBurn() public view returns (uint256 amount) {\r\n        amount = MASTERCHEF_SHDW_PER_BLOCK.mul(shdwRateToBurn).div(SHDW_RATE_TOTAL_PRECISION);\r\n    }\r\n\r\n    /// @notice Update reward variables for the given pool.\r\n    /// @param _pid The id of the pool. See `poolInfo`.\r\n    /// @return pool Returns the pool that was updated.\r\n    function updatePool(uint256 _pid) public returns (PoolInfo memory pool) {\r\n        pool = poolInfo[_pid];\r\n        if (block.number > pool.lastRewardBlock) {\r\n            uint256 lpSupply = pool.totalBoostedShare;\r\n            uint256 totalAllocPoint = (pool.isRegular ? totalRegularAllocPoint : totalSpecialAllocPoint);\r\n\r\n            if (lpSupply > 0 && totalAllocPoint > 0) {\r\n                uint256 multiplier = block.number.sub(pool.lastRewardBlock);\r\n                uint256 shdwReward = multiplier.mul(shdwPerBlock(pool.isRegular)).mul(pool.allocPoint).div(\r\n                    totalAllocPoint\r\n                );\r\n                pool.accShdwPerShare = pool.accShdwPerShare.add((shdwReward.mul(ACC_SHDW_PRECISION).div(lpSupply)));\r\n            }\r\n            pool.lastRewardBlock = block.number;\r\n            poolInfo[_pid] = pool;\r\n            emit UpdatePool(_pid, pool.lastRewardBlock, lpSupply, pool.accShdwPerShare);\r\n        }\r\n    }\r\n\r\n    /// @notice Deposit LP tokens to pool.\r\n    /// @param _pid The id of the pool. See `poolInfo`.\r\n    /// @param _amount Amount of LP tokens to deposit.\r\n    function deposit(uint256 _pid, uint256 _amount) external nonReentrant {\r\n        PoolInfo memory pool = updatePool(_pid);\r\n        UserInfo storage user = userInfo[_pid][msg.sender];\r\n\r\n        require(\r\n            pool.isRegular || whiteList[msg.sender],\r\n            \"ShadowChefV2: The address is not available to deposit in this pool\"\r\n        );\r\n\r\n        uint256 multiplier = getBoostMultiplier(msg.sender, _pid);\r\n\r\n        if (user.amount > 0) {\r\n            settlependingShdw(msg.sender, _pid, multiplier);\r\n        }\r\n\r\n        if (_amount > 0) {\r\n            uint256 before = lpToken[_pid].balanceOf(address(this));\r\n            lpToken[_pid].safeTransferFrom(msg.sender, address(this), _amount);\r\n            _amount = lpToken[_pid].balanceOf(address(this)).sub(before);\r\n            user.amount = user.amount.add(_amount);\r\n\r\n            // Update total boosted share.\r\n            pool.totalBoostedShare = pool.totalBoostedShare.add(_amount.mul(multiplier).div(BOOST_PRECISION));\r\n        }\r\n\r\n        user.rewardDebt = user.amount.mul(multiplier).div(BOOST_PRECISION).mul(pool.accShdwPerShare).div(\r\n            ACC_SHDW_PRECISION\r\n        );\r\n        poolInfo[_pid] = pool;\r\n\r\n        emit Deposit(msg.sender, _pid, _amount);\r\n    }\r\n\r\n    /// @notice Withdraw LP tokens from pool.\r\n    /// @param _pid The id of the pool. See `poolInfo`.\r\n    /// @param _amount Amount of LP tokens to withdraw.\r\n    function withdraw(uint256 _pid, uint256 _amount) external nonReentrant {\r\n        PoolInfo memory pool = updatePool(_pid);\r\n        UserInfo storage user = userInfo[_pid][msg.sender];\r\n\r\n        require(user.amount >= _amount, \"withdraw: Insufficient\");\r\n\r\n        uint256 multiplier = getBoostMultiplier(msg.sender, _pid);\r\n\r\n        settlependingShdw(msg.sender, _pid, multiplier);\r\n\r\n        if (_amount > 0) {\r\n            user.amount = user.amount.sub(_amount);\r\n            lpToken[_pid].safeTransfer(msg.sender, _amount);\r\n        }\r\n\r\n        user.rewardDebt = user.amount.mul(multiplier).div(BOOST_PRECISION).mul(pool.accShdwPerShare).div(\r\n            ACC_SHDW_PRECISION\r\n        );\r\n        poolInfo[_pid].totalBoostedShare = poolInfo[_pid].totalBoostedShare.sub(\r\n            _amount.mul(multiplier).div(BOOST_PRECISION)\r\n        );\r\n\r\n        emit Withdraw(msg.sender, _pid, _amount);\r\n    }\r\n\r\n    /// @notice Withdraw without caring about the rewards. EMERGENCY ONLY.\r\n    /// @param _pid The id of the pool. See `poolInfo`.\r\n    function emergencyWithdraw(uint256 _pid) external nonReentrant {\r\n        PoolInfo storage pool = poolInfo[_pid];\r\n        UserInfo storage user = userInfo[_pid][msg.sender];\r\n\r\n        uint256 amount = user.amount;\r\n        user.amount = 0;\r\n        user.rewardDebt = 0;\r\n        uint256 boostedAmount = amount.mul(getBoostMultiplier(msg.sender, _pid)).div(BOOST_PRECISION);\r\n        pool.totalBoostedShare = pool.totalBoostedShare > boostedAmount ? pool.totalBoostedShare.sub(boostedAmount) : 0;\r\n\r\n        // Note: transfer can fail or succeed if `amount` is zero.\r\n        lpToken[_pid].safeTransfer(msg.sender, amount);\r\n        emit EmergencyWithdraw(msg.sender, _pid, amount);\r\n    }\r\n\r\n    /// @notice Send SHDW pending for burn to `burnAdmin`.\r\n    /// @param _withUpdate Whether call \"massUpdatePools\" operation.\r\n    function burnShdw(bool _withUpdate) public onlyOwner {\r\n        if (_withUpdate) {\r\n            massUpdatePools();\r\n        }\r\n\r\n        uint256 multiplier = block.number.sub(lastBurnedBlock);\r\n        uint256 pendingShdwToBurn = multiplier.mul(shdwPerBlockToBurn());\r\n\r\n        // SafeTransfer SHDW\r\n        _safeTransfer(burnAdmin, pendingShdwToBurn);\r\n        lastBurnedBlock = block.number;\r\n    }\r\n\r\n    /// @notice Update the % of SHDW distributions for burn, regular pools and special pools.\r\n    /// @param _burnRate The % of SHDW to burn each block.\r\n    /// @param _regularFarmRate The % of SHDW to regular pools each block.\r\n    /// @param _specialFarmRate The % of SHDW to special pools each block.\r\n    /// @param _withUpdate Whether call \"massUpdatePools\" operation.\r\n    function updateShdwRate(\r\n        uint256 _burnRate,\r\n        uint256 _regularFarmRate,\r\n        uint256 _specialFarmRate,\r\n        bool _withUpdate\r\n    ) external onlyOwner {\r\n        require(\r\n            _burnRate > 0 && _regularFarmRate > 0 && _specialFarmRate > 0,\r\n            \"ShadowChefV2: SHDW rate must be greater than 0\"\r\n        );\r\n        require(\r\n            _burnRate.add(_regularFarmRate).add(_specialFarmRate) == SHDW_RATE_TOTAL_PRECISION,\r\n            \"ShadowChefV2: Total rate must be 1e12\"\r\n        );\r\n        if (_withUpdate) {\r\n            massUpdatePools();\r\n        }\r\n        // burn SHDW base on old burn SHDW rate\r\n        burnShdw(false);\r\n\r\n        shdwRateToBurn = _burnRate;\r\n        shdwRateToRegularFarm = _regularFarmRate;\r\n        shdwRateToSpecialFarm = _specialFarmRate;\r\n\r\n        emit EventUpdateShdwRate(_burnRate, _regularFarmRate, _specialFarmRate);\r\n    }\r\n\r\n    /// @notice Update burn admin address.\r\n    /// @param _newAdmin The new burn admin address.\r\n    function updateBurnAdmin(address _newAdmin) external onlyOwner {\r\n        require(_newAdmin != address(0), \"ShadowChefV2: Burn admin address must be valid\");\r\n        require(_newAdmin != burnAdmin, \"ShadowChefV2: Burn admin address is the same with current address\");\r\n        address _oldAdmin = burnAdmin;\r\n        burnAdmin = _newAdmin;\r\n        emit UpdateBurnAdmin(_oldAdmin, _newAdmin);\r\n    }\r\n\r\n    /// @notice Update whitelisted addresses for special pools.\r\n    /// @param _user The address to be updated.\r\n    /// @param _isValid The flag for valid or invalid.\r\n    function updateWhiteList(address _user, bool _isValid) external onlyOwner {\r\n        require(_user != address(0), \"ShadowChefV2: The white list address must be valid\");\r\n\r\n        whiteList[_user] = _isValid;\r\n        emit UpdateWhiteList(_user, _isValid);\r\n    }\r\n\r\n    /// @notice Update boost contract address and max boost factor.\r\n    /// @param _newBoostContract The new address for handling all the share boosts.\r\n    function updateBoostContract(address _newBoostContract) external onlyOwner {\r\n        require(\r\n            _newBoostContract != address(0) && _newBoostContract != boostContract,\r\n            \"ShadowChefV2: New boost contract address must be valid\"\r\n        );\r\n\r\n        boostContract = _newBoostContract;\r\n        emit UpdateBoostContract(_newBoostContract);\r\n    }\r\n\r\n    /// @notice Update user boost factor.\r\n    /// @param _user The user address for boost factor updates.\r\n    /// @param _pid The pool id for the boost factor updates.\r\n    /// @param _newMultiplier New boost multiplier.\r\n    function updateBoostMultiplier(\r\n        address _user,\r\n        uint256 _pid,\r\n        uint256 _newMultiplier\r\n    ) external onlyBoostContract nonReentrant {\r\n        require(_user != address(0), \"ShadowChefV2: The user address must be valid\");\r\n        require(poolInfo[_pid].isRegular, \"ShadowChefV2: Only regular farm could be boosted\");\r\n        require(\r\n            _newMultiplier >= BOOST_PRECISION && _newMultiplier <= MAX_BOOST_PRECISION,\r\n            \"ShadowChefV2: Invalid new boost multiplier\"\r\n        );\r\n\r\n        PoolInfo memory pool = updatePool(_pid);\r\n        UserInfo storage user = userInfo[_pid][_user];\r\n\r\n        uint256 prevMultiplier = getBoostMultiplier(_user, _pid);\r\n        settlependingShdw(_user, _pid, prevMultiplier);\r\n\r\n        user.rewardDebt = user.amount.mul(_newMultiplier).div(BOOST_PRECISION).mul(pool.accShdwPerShare).div(\r\n            ACC_SHDW_PRECISION\r\n        );\r\n        pool.totalBoostedShare = pool.totalBoostedShare.sub(user.amount.mul(prevMultiplier).div(BOOST_PRECISION)).add(\r\n            user.amount.mul(_newMultiplier).div(BOOST_PRECISION)\r\n        );\r\n        poolInfo[_pid] = pool;\r\n        userInfo[_pid][_user].boostMultiplier = _newMultiplier;\r\n\r\n        emit UpdateBoostMultiplier(_user, _pid, prevMultiplier, _newMultiplier);\r\n    }\r\n\r\n    /// @notice Get user boost multiplier for specific pool id.\r\n    /// @param _user The user address.\r\n    /// @param _pid The pool id.\r\n    function getBoostMultiplier(address _user, uint256 _pid) public view returns (uint256) {\r\n        uint256 multiplier = userInfo[_pid][_user].boostMultiplier;\r\n        return multiplier > BOOST_PRECISION ? multiplier : BOOST_PRECISION;\r\n    }\r\n\r\n    /// @notice Settles, distribute the pending SHDW rewards for given user.\r\n    /// @param _user The user address for settling rewards.\r\n    /// @param _pid The pool id.\r\n    /// @param _boostMultiplier The user boost multiplier in specific pool id.\r\n    function settlependingShdw(\r\n        address _user,\r\n        uint256 _pid,\r\n        uint256 _boostMultiplier\r\n    ) internal {\r\n        UserInfo memory user = userInfo[_pid][_user];\r\n\r\n        uint256 boostedAmount = user.amount.mul(_boostMultiplier).div(BOOST_PRECISION);\r\n        uint256 accShdw = boostedAmount.mul(poolInfo[_pid].accShdwPerShare).div(ACC_SHDW_PRECISION);\r\n        uint256 pending = accShdw.sub(user.rewardDebt);\r\n        // SafeTransfer SHDW\r\n        _safeTransfer(_user, pending);\r\n    }\r\n\r\n    /// @notice Safe Transfer SHDW.\r\n    /// @param _to The SHDW receiver address.\r\n    /// @param _amount transfer SHDW amounts.\r\n    function _safeTransfer(address _to, uint256 _amount) internal {\r\n        if (_amount > 0) {\r\n            uint256 balance = SHDW.balanceOf(address(this));\r\n            if (balance < _amount) {\r\n                _amount = balance;\r\n            }\r\n            SHDW.safeTransfer(_to, _amount);\r\n        }\r\n    }\r\n}\r\n",
  "sourcePath": "D:\\Other_Folder\\ANGGA\\NFT\\CLIENT\\MAS WIDI NEW\\NewVenosSmartContract\\contracts\\ShadowChefV2.sol",
  "compiler": {
    "name": "solc",
    "version": "0.6.12+commit.27d51765.Emscripten.clang"
  },
  "schemaVersion": "3.4.16",
  "updatedAt": "2023-10-12T07:30:33.627Z",
  "devdoc": {
    "kind": "dev",
    "methods": {
      "add(uint256,address,bool,bool)": {
        "params": {
          "_allocPoint": "Number of allocation points for the new pool.",
          "_isRegular": "Whether the pool is regular or special. LP farms are always \"regular\". \"Special\" pools are",
          "_lpToken": "Address of the LP BEP-20 token.",
          "_withUpdate": "Whether call \"massUpdatePools\" operation. only for SHDW distributions within ShadowSwap products."
        }
      },
      "burnShdw(bool)": {
        "params": {
          "_withUpdate": "Whether call \"massUpdatePools\" operation."
        }
      },
      "constructor": {
        "params": {
          "_SHDW": "The SHDW token contract address.",
          "_burnAdmin": "The address of burn admin."
        }
      },
      "deposit(uint256,uint256)": {
        "params": {
          "_amount": "Amount of LP tokens to deposit.",
          "_pid": "The id of the pool. See `poolInfo`."
        }
      },
      "emergencyWithdraw(uint256)": {
        "params": {
          "_pid": "The id of the pool. See `poolInfo`."
        }
      },
      "getBoostMultiplier(address,uint256)": {
        "params": {
          "_pid": "The pool id.",
          "_user": "The user address."
        }
      },
      "owner()": {
        "details": "Returns the address of the current owner."
      },
      "pendingShdw(uint256,address)": {
        "params": {
          "_pid": "The id of the pool. See `poolInfo`.",
          "_user": "Address of the user."
        }
      },
      "renounceOwnership()": {
        "details": "Leaves the contract without owner. It will not be possible to call `onlyOwner` functions anymore. Can only be called by the current owner. NOTE: Renouncing ownership will leave the contract without an owner, thereby removing any functionality that is only available to the owner."
      },
      "set(uint256,uint256,bool)": {
        "params": {
          "_allocPoint": "New number of allocation points for the pool.",
          "_pid": "The id of the pool. See `poolInfo`.",
          "_withUpdate": "Whether call \"massUpdatePools\" operation."
        }
      },
      "shdwPerBlock(bool)": {
        "params": {
          "_isRegular": "If the pool belongs to regular or special."
        }
      },
      "transferOwnership(address)": {
        "details": "Transfers ownership of the contract to a new account (`newOwner`). Can only be called by the current owner."
      },
      "updateBoostContract(address)": {
        "params": {
          "_newBoostContract": "The new address for handling all the share boosts."
        }
      },
      "updateBoostMultiplier(address,uint256,uint256)": {
        "params": {
          "_newMultiplier": "New boost multiplier.",
          "_pid": "The pool id for the boost factor updates.",
          "_user": "The user address for boost factor updates."
        }
      },
      "updateBurnAdmin(address)": {
        "params": {
          "_newAdmin": "The new burn admin address."
        }
      },
      "updatePool(uint256)": {
        "params": {
          "_pid": "The id of the pool. See `poolInfo`."
        },
        "returns": {
          "pool": "Returns the pool that was updated."
        }
      },
      "updateShdwRate(uint256,uint256,uint256,bool)": {
        "params": {
          "_burnRate": "The % of SHDW to burn each block.",
          "_regularFarmRate": "The % of SHDW to regular pools each block.",
          "_specialFarmRate": "The % of SHDW to special pools each block.",
          "_withUpdate": "Whether call \"massUpdatePools\" operation."
        }
      },
      "updateWhiteList(address,bool)": {
        "params": {
          "_isValid": "The flag for valid or invalid.",
          "_user": "The address to be updated."
        }
      },
      "withdraw(uint256,uint256)": {
        "params": {
          "_amount": "Amount of LP tokens to withdraw.",
          "_pid": "The id of the pool. See `poolInfo`."
        }
      }
    },
    "version": 1
  },
  "userdoc": {
    "kind": "user",
    "methods": {
      "BOOST_PRECISION()": {
        "notice": "Basic boost factor, none boosted user's boost factor"
      },
      "MASTERCHEF_SHDW_PER_BLOCK()": {
        "notice": "40 SHDWs per block in MCV1"
      },
      "MAX_BOOST_PRECISION()": {
        "notice": "Hard limit for maxmium boost factor, it must greater than BOOST_PRECISION"
      },
      "SHDW()": {
        "notice": "Address of SHDW contract."
      },
      "SHDW_RATE_TOTAL_PRECISION()": {
        "notice": "total SHDW rate = toBurn + toRegular + toSpecial"
      },
      "add(uint256,address,bool,bool)": {
        "notice": "Add a new pool. Can only be called by the owner. DO NOT add the same LP token more than once. Rewards will be messed up if you do."
      },
      "boostContract()": {
        "notice": "The contract handles the share boosts."
      },
      "burnAdmin()": {
        "notice": "The only address can withdraw all the burn SHDW."
      },
      "burnShdw(bool)": {
        "notice": "Send SHDW pending for burn to `burnAdmin`."
      },
      "deposit(uint256,uint256)": {
        "notice": "Deposit LP tokens to pool."
      },
      "emergencyWithdraw(uint256)": {
        "notice": "Withdraw without caring about the rewards. EMERGENCY ONLY."
      },
      "getBoostMultiplier(address,uint256)": {
        "notice": "Get user boost multiplier for specific pool id."
      },
      "lpToken(uint256)": {
        "notice": "Address of the LP token for each MCV2 pool."
      },
      "massUpdatePools()": {
        "notice": "Update SHDW reward for all the active pools. Be careful of gas spending!"
      },
      "pendingShdw(uint256,address)": {
        "notice": "View function for checking pending SHDW rewards."
      },
      "poolInfo(uint256)": {
        "notice": "Info of each MCV2 pool."
      },
      "poolLength()": {
        "notice": "Returns the number of MCV2 pools."
      },
      "set(uint256,uint256,bool)": {
        "notice": "Update the given pool's SHDW allocation point. Can only be called by the owner."
      },
      "shdwPerBlock(bool)": {
        "notice": "Calculates and returns the `amount` of SHDW per block."
      },
      "shdwPerBlockToBurn()": {
        "notice": "Calculates and returns the `amount` of SHDW per block to burn."
      },
      "shdwRateToBurn()": {
        "notice": "The last block number of SHDW burn action being executed.SHDW distribute % for burn"
      },
      "shdwRateToRegularFarm()": {
        "notice": "SHDW distribute % for regular farm pool"
      },
      "shdwRateToSpecialFarm()": {
        "notice": "SHDW distribute % for special pools"
      },
      "totalRegularAllocPoint()": {
        "notice": "Total regular allocation points. Must be the sum of all regular pools' allocation points."
      },
      "totalSpecialAllocPoint()": {
        "notice": "Total special allocation points. Must be the sum of all special pools' allocation points."
      },
      "updateBoostContract(address)": {
        "notice": "Update boost contract address and max boost factor."
      },
      "updateBoostMultiplier(address,uint256,uint256)": {
        "notice": "Update user boost factor."
      },
      "updateBurnAdmin(address)": {
        "notice": "Update burn admin address."
      },
      "updatePool(uint256)": {
        "notice": "Update reward variables for the given pool."
      },
      "updateShdwRate(uint256,uint256,uint256,bool)": {
        "notice": "Update the % of SHDW distributions for burn, regular pools and special pools."
      },
      "updateWhiteList(address,bool)": {
        "notice": "Update whitelisted addresses for special pools."
      },
      "userInfo(uint256,address)": {
        "notice": "Info of each pool user."
      },
      "whiteList(address)": {
        "notice": "The whitelist of addresses allowed to deposit in special pools."
      },
      "withdraw(uint256,uint256)": {
        "notice": "Withdraw LP tokens from pool."
      }
    },
    "notice": "The (older) MasterChef contract gives out a constant number of SHDW tokens per block. It is the only address with minting rights for SHDW. The idea for this ShadowChef V2 (MCV2) contract is therefore to be the owner of a dummy token that is deposited into the MasterChef V1 (MCV1) contract. The allocation point for this pool on MCV1 is the total allocation point for all pools that receive incentives.",
    "version": 1
  }
}