{
  "contractName": "IShdw",
  "abi": [
    {
      "inputs": [
        {
          "internalType": "contract IShdwPool",
          "name": "_shdwPool",
          "type": "address"
        },
        {
          "internalType": "address",
          "name": "_admin",
          "type": "address"
        },
        {
          "internalType": "uint256",
          "name": "_ceiling",
          "type": "uint256"
        }
      ],
      "stateMutability": "nonpayable",
      "type": "constructor"
    },
    {
      "anonymous": false,
      "inputs": [
        {
          "indexed": true,
          "internalType": "address",
          "name": "previousOwner",
          "type": "address"
        },
        {
          "indexed": true,
          "internalType": "address",
          "name": "newOwner",
          "type": "address"
        }
      ],
      "name": "OwnershipTransferred",
      "type": "event"
    },
    {
      "anonymous": false,
      "inputs": [
        {
          "indexed": false,
          "internalType": "uint256",
          "name": "newCeiling",
          "type": "uint256"
        }
      ],
      "name": "UpdateCeiling",
      "type": "event"
    },
    {
      "inputs": [],
      "name": "MIN_CEILING_DURATION",
      "outputs": [
        {
          "internalType": "uint256",
          "name": "",
          "type": "uint256"
        }
      ],
      "stateMutability": "view",
      "type": "function",
      "constant": true
    },
    {
      "inputs": [],
      "name": "admin",
      "outputs": [
        {
          "internalType": "address",
          "name": "",
          "type": "address"
        }
      ],
      "stateMutability": "view",
      "type": "function",
      "constant": true
    },
    {
      "inputs": [],
      "name": "ceiling",
      "outputs": [
        {
          "internalType": "uint256",
          "name": "",
          "type": "uint256"
        }
      ],
      "stateMutability": "view",
      "type": "function",
      "constant": true
    },
    {
      "inputs": [],
      "name": "owner",
      "outputs": [
        {
          "internalType": "address",
          "name": "",
          "type": "address"
        }
      ],
      "stateMutability": "view",
      "type": "function",
      "constant": true
    },
    {
      "inputs": [],
      "name": "renounceOwnership",
      "outputs": [],
      "stateMutability": "nonpayable",
      "type": "function"
    },
    {
      "inputs": [],
      "name": "shdwPool",
      "outputs": [
        {
          "internalType": "contract IShdwPool",
          "name": "",
          "type": "address"
        }
      ],
      "stateMutability": "view",
      "type": "function",
      "constant": true
    },
    {
      "inputs": [
        {
          "internalType": "address",
          "name": "newOwner",
          "type": "address"
        }
      ],
      "name": "transferOwnership",
      "outputs": [],
      "stateMutability": "nonpayable",
      "type": "function"
    },
    {
      "inputs": [
        {
          "internalType": "address",
          "name": "_user",
          "type": "address"
        }
      ],
      "name": "getUserCredit",
      "outputs": [
        {
          "internalType": "uint256",
          "name": "",
          "type": "uint256"
        }
      ],
      "stateMutability": "view",
      "type": "function",
      "constant": true
    },
    {
      "inputs": [
        {
          "internalType": "uint256",
          "name": "_newCeiling",
          "type": "uint256"
        }
      ],
      "name": "updateCeiling",
      "outputs": [],
      "stateMutability": "nonpayable",
      "type": "function"
    }
  ],
  "bytecode": "0x60a060405234801561001057600080fd5b50604051610aec380380610aec83398101604081905261002f9161011a565b610038336100ca565b62093a8081101561008f5760405162461bcd60e51b815260206004820152601860248201527f496e76616c6964206365696c696e67206475726174696f6e0000000000000000604482015260640160405180910390fd5b60609290921b6001600160601b031916608052600180546001600160a01b0319166001600160a01b0392909216919091179055600255610175565b600080546001600160a01b038381166001600160a01b0319831681178455604051919092169283917f8be0079c531659141344cd1fd0a4f28419497f9722a3daafe3b4186f6b6457e09190a35050565b60008060006060848603121561012f57600080fd5b835161013a8161015d565b602085015190935061014b8161015d565b80925050604084015190509250925092565b6001600160a01b038116811461017257600080fd5b50565b60805160601c6109536101996000396000818160ad015261043601526109536000f3fe608060405234801561001057600080fd5b50600436106100a35760003560e01c8063b1463a6a11610076578063f0be070c1161005b578063f0be070c1461015e578063f2fde38b14610168578063f851a4401461017b57600080fd5b8063b1463a6a14610138578063dad6f0dc1461014b57600080fd5b806341873acd146100a8578063715018a6146100f9578063753ed1bd146101035780638da5cb5b1461011a575b600080fd5b6100cf7f000000000000000000000000000000000000000000000000000000000000000081565b60405173ffffffffffffffffffffffffffffffffffffffff90911681526020015b60405180910390f35b61010161019b565b005b61010c60025481565b6040519081526020016100f0565b60005473ffffffffffffffffffffffffffffffffffffffff166100cf565b6101016101463660046107f5565b6101af565b61010c61015936600461073f565b61036f565b61010c62093a8081565b61010161017636600461073f565b610552565b6001546100cf9073ffffffffffffffffffffffffffffffffffffffff1681565b6101a3610609565b6101ad600061068a565b565b60015473ffffffffffffffffffffffffffffffffffffffff163314610235576040517f08c379a000000000000000000000000000000000000000000000000000000000815260206004820152600b60248201527f4e6f6e652061646d696e2100000000000000000000000000000000000000000060448201526064015b60405180910390fd5b62093a808110156102a2576040517f08c379a000000000000000000000000000000000000000000000000000000000815260206004820152601e60248201527f7570646174654365696c696e673a20496e76616c6964206365696c696e670000604482015260640161022c565b806002541415610334576040517f08c379a000000000000000000000000000000000000000000000000000000000815260206004820152602260248201527f7570646174654365696c696e673a204365696c696e67206e6f74206368616e6760448201527f6564000000000000000000000000000000000000000000000000000000000000606482015260840161022c565b60028190556040518181527ffb400ea281d5b831cc19858a6fefe7cc8865606ffb709543e3dc56632705708c9060200160405180910390a150565b600073ffffffffffffffffffffffffffffffffffffffff82166103ee576040517f08c379a000000000000000000000000000000000000000000000000000000000815260206004820152601e60248201527f676574557365724372656469743a20496e76616c696420616464726573730000604482015260640161022c565b6040517f1959a00200000000000000000000000000000000000000000000000000000000815273ffffffffffffffffffffffffffffffffffffffff83811660048301526000917f000000000000000000000000000000000000000000000000000000000000000090911690631959a002906024016101206040518083038186803b15801561047b57600080fd5b505afa15801561048f573d6000803e3d6000fd5b505050506040513d601f19601f820116820180604052508101906104b39190610775565b90508060e0015115806104c957508060a0015142115b156104d75750600092915050565b60006104f482608001518360a001516106ff90919063ffffffff16565b9050600254811061050b5750610100015192915050565b6002548110801561051a575060015b1561054b5761054360025461053d8385610100015161071290919063ffffffff16565b9061071e565b949350505050565b5050919050565b61055a610609565b73ffffffffffffffffffffffffffffffffffffffff81166105fd576040517f08c379a000000000000000000000000000000000000000000000000000000000815260206004820152602660248201527f4f776e61626c653a206e6577206f776e657220697320746865207a65726f206160448201527f6464726573730000000000000000000000000000000000000000000000000000606482015260840161022c565b6106068161068a565b50565b60005473ffffffffffffffffffffffffffffffffffffffff1633146101ad576040517f08c379a000000000000000000000000000000000000000000000000000000000815260206004820181905260248201527f4f776e61626c653a2063616c6c6572206973206e6f7420746865206f776e6572604482015260640161022c565b6000805473ffffffffffffffffffffffffffffffffffffffff8381167fffffffffffffffffffffffff0000000000000000000000000000000000000000831681178455604051919092169283917f8be0079c531659141344cd1fd0a4f28419497f9722a3daafe3b4186f6b6457e09190a35050565b600061070b82846108d7565b9392505050565b600061070b828461089a565b600061070b828461085f565b8051801515811461073a57600080fd5b919050565b60006020828403121561075157600080fd5b813573ffffffffffffffffffffffffffffffffffffffff8116811461070b57600080fd5b6000610120828403121561078857600080fd5b61079061080e565b825181526020830151602082015260408301516040820152606083015160608201526080830151608082015260a083015160a082015260c083015160c08201526107dc60e0840161072a565b60e0820152610100928301519281019290925250919050565b60006020828403121561080757600080fd5b5035919050565b604051610120810167ffffffffffffffff81118282101715610859577f4e487b7100000000000000000000000000000000000000000000000000000000600052604160045260246000fd5b60405290565b600082610895577f4e487b7100000000000000000000000000000000000000000000000000000000600052601260045260246000fd5b500490565b6000817fffffffffffffffffffffffffffffffffffffffffffffffffffffffffffffffff04831182151516156108d2576108d26108ee565b500290565b6000828210156108e9576108e96108ee565b500390565b7f4e487b7100000000000000000000000000000000000000000000000000000000600052601160045260246000fdfea2646970667358221220bff64205bc407fadd30382caf3c8ebd8d55815e2c07ad0bacfbb003cf757238d64736f6c63430008050033",
  "immutableReferences": {
    "1151": [
      {
        "length": 32,
        "start": 173
      },
      {
        "length": 32,
        "start": 1078
      }
    ]
  },
  "source": "// SPDX-License-Identifier: MIT\r\npragma solidity ^0.8.5;\r\npragma experimental ABIEncoderV2;\r\n\r\nimport \"@openzeppelin/contracts/access/Ownable.sol\";\r\nimport \"@openzeppelin/contracts/utils/math/SafeMath.sol\";\r\nimport \"@openzeppelin/contracts/token/ERC20/utils/SafeERC20.sol\";\r\nimport \"./interfaces/IShdwPool.sol\";\r\n\r\ncontract IShdw is Ownable {\r\n  using SafeMath for uint256;\r\n\r\n  IShdwPool public immutable shdwPool;\r\n\r\n  address public admin;\r\n  // threshold of locked duration\r\n  uint256 public ceiling;\r\n\r\n  uint256 public constant MIN_CEILING_DURATION = 1 weeks;\r\n\r\n  event UpdateCeiling(uint256 newCeiling);\r\n\r\n  /**\r\n   * @notice Checks if the msg.sender is the admin address\r\n   */\r\n  modifier onlyAdmin() {\r\n    require(msg.sender == admin, \"None admin!\");\r\n    _;\r\n  }\r\n\r\n  /**\r\n   * @notice Constructor\r\n   * @param _shdwPool: shdw pool contract\r\n   * @param _admin: admin of the this contract\r\n   * @param _ceiling: the max locked duration which the linear decrease start\r\n   */\r\n  constructor(IShdwPool _shdwPool, address _admin, uint256 _ceiling) public {\r\n    require(_ceiling >= MIN_CEILING_DURATION, \"Invalid ceiling duration\");\r\n    shdwPool = _shdwPool;\r\n    admin = _admin;\r\n    ceiling = _ceiling;\r\n  }\r\n\r\n  /**\r\n   * @notice calculate ishdw credit per user.\r\n   * @param _user: user address.\r\n   */\r\n  function getUserCredit(address _user) external view returns (uint256) {\r\n    require(_user != address(0), \"getUserCredit: Invalid address\");\r\n\r\n    IShdwPool.UserInfo memory userInfo = shdwPool.userInfo(_user);\r\n\r\n    if (!userInfo.locked || block.timestamp > userInfo.lockEndTime) {\r\n      return 0;\r\n    }\r\n\r\n    // lockEndTime always >= lockStartTime\r\n    uint256 lockDuration = userInfo.lockEndTime.sub(userInfo.lockStartTime);\r\n\r\n    if (lockDuration >= ceiling) {\r\n      return userInfo.lockedAmount;\r\n    } else if (lockDuration < ceiling && lockDuration >= 0) {\r\n      return (userInfo.lockedAmount.mul(lockDuration)).div(ceiling);\r\n    }\r\n  }\r\n\r\n  /**\r\n   * @notice update ceiling thereshold duration for ishdw calculation.\r\n   * @param _newCeiling: new threshold duration.\r\n   */\r\n  function updateCeiling(uint256 _newCeiling) external onlyAdmin {\r\n    require(\r\n      _newCeiling >= MIN_CEILING_DURATION,\r\n      \"updateCeiling: Invalid ceiling\"\r\n    );\r\n    require(ceiling != _newCeiling, \"updateCeiling: Ceiling not changed\");\r\n    ceiling = _newCeiling;\r\n    emit UpdateCeiling(ceiling);\r\n  }\r\n}\r\n",
  "sourcePath": "D:\\Other_Folder\\ANGGA\\NFT\\CLIENT\\MAS WIDI NEW\\NewVenosSmartContract\\contracts\\IShdw.sol",
  "compiler": {
    "name": "solc",
    "version": "0.8.5+commit.a4f2e591.Emscripten.clang"
  },
  "schemaVersion": "3.4.16",
  "updatedAt": "2023-10-12T10:31:11.436Z",
  "networkType": "ethereum",
  "devdoc": {
    "kind": "dev",
    "methods": {
      "constructor": {
        "params": {
          "_admin": ": admin of the this contract",
          "_ceiling": ": the max locked duration which the linear decrease start",
          "_shdwPool": ": shdw pool contract"
        }
      },
      "getUserCredit(address)": {
        "params": {
          "_user": ": user address."
        }
      },
      "owner()": {
        "details": "Returns the address of the current owner."
      },
      "renounceOwnership()": {
        "details": "Leaves the contract without owner. It will not be possible to call `onlyOwner` functions anymore. Can only be called by the current owner. NOTE: Renouncing ownership will leave the contract without an owner, thereby removing any functionality that is only available to the owner."
      },
      "transferOwnership(address)": {
        "details": "Transfers ownership of the contract to a new account (`newOwner`). Can only be called by the current owner."
      },
      "updateCeiling(uint256)": {
        "params": {
          "_newCeiling": ": new threshold duration."
        }
      }
    },
    "version": 1
  },
  "userdoc": {
    "kind": "user",
    "methods": {
      "constructor": {
        "notice": "Constructor"
      },
      "getUserCredit(address)": {
        "notice": "calculate ishdw credit per user."
      },
      "updateCeiling(uint256)": {
        "notice": "update ceiling thereshold duration for ishdw calculation."
      }
    },
    "version": 1
  }
}